{
  "_format": "hh-sol-artifact-1",
  "contractName": "CharityDonation",
  "sourceName": "contracts/CharityDonation.sol",
  "abi": [
    {
      "anonymous": false,
      "inputs": [
        {
          "indexed": false,
          "internalType": "uint256",
          "name": "campaignId",
          "type": "uint256"
        },
        {
          "indexed": false,
          "internalType": "string",
          "name": "title",
          "type": "string"
        },
        {
          "indexed": false,
          "internalType": "uint256",
          "name": "goal",
          "type": "uint256"
        },
        {
          "indexed": false,
          "internalType": "uint256",
          "name": "deadline",
          "type": "uint256"
        }
      ],
      "name": "CampaignAdded",
      "type": "event"
    },
    {
      "anonymous": false,
      "inputs": [
        {
          "indexed": false,
          "internalType": "uint256",
          "name": "campaignId",
          "type": "uint256"
        },
        {
          "indexed": false,
          "internalType": "address",
          "name": "contributor",
          "type": "address"
        },
        {
          "indexed": false,
          "internalType": "uint256",
          "name": "amount",
          "type": "uint256"
        }
      ],
      "name": "Funded",
      "type": "event"
    },
    {
      "anonymous": false,
      "inputs": [
        {
          "indexed": false,
          "internalType": "uint256",
          "name": "campaignId",
          "type": "uint256"
        },
        {
          "indexed": false,
          "internalType": "address",
          "name": "owner",
          "type": "address"
        },
        {
          "indexed": false,
          "internalType": "uint256",
          "name": "amount",
          "type": "uint256"
        }
      ],
      "name": "FundsTransferred",
      "type": "event"
    },
    {
      "anonymous": false,
      "inputs": [
        {
          "indexed": true,
          "internalType": "address",
          "name": "ownerAddress",
          "type": "address"
        },
        {
          "indexed": false,
          "internalType": "string",
          "name": "ownerName",
          "type": "string"
        }
      ],
      "name": "OwnerAdded",
      "type": "event"
    },
    {
      "anonymous": false,
      "inputs": [
        {
          "indexed": false,
          "internalType": "uint256",
          "name": "campaignId",
          "type": "uint256"
        },
        {
          "indexed": false,
          "internalType": "address",
          "name": "contributor",
          "type": "address"
        },
        {
          "indexed": false,
          "internalType": "uint256",
          "name": "amount",
          "type": "uint256"
        }
      ],
      "name": "RefundIssued",
      "type": "event"
    },
    {
      "anonymous": false,
      "inputs": [
        {
          "indexed": false,
          "internalType": "uint256",
          "name": "campaignId",
          "type": "uint256"
        },
        {
          "indexed": false,
          "internalType": "address",
          "name": "voter",
          "type": "address"
        }
      ],
      "name": "VoteCasted",
      "type": "event"
    },
    {
      "anonymous": false,
      "inputs": [
        {
          "indexed": false,
          "internalType": "uint256",
          "name": "campaignId",
          "type": "uint256"
        },
        {
          "indexed": false,
          "internalType": "string",
          "name": "description",
          "type": "string"
        }
      ],
      "name": "WithdrawalRequested",
      "type": "event"
    },
    {
      "inputs": [
        {
          "internalType": "string",
          "name": "_title",
          "type": "string"
        },
        {
          "internalType": "string",
          "name": "_description",
          "type": "string"
        },
        {
          "internalType": "uint256",
          "name": "_goal",
          "type": "uint256"
        },
        {
          "internalType": "uint256",
          "name": "_deadline",
          "type": "uint256"
        },
        {
          "internalType": "uint256",
          "name": "_minContribution",
          "type": "uint256"
        }
      ],
      "name": "addCampaign",
      "outputs": [],
      "stateMutability": "nonpayable",
      "type": "function"
    },
    {
      "inputs": [
        {
          "internalType": "string",
          "name": "_ownerName",
          "type": "string"
        }
      ],
      "name": "addOwner",
      "outputs": [],
      "stateMutability": "nonpayable",
      "type": "function"
    },
    {
      "inputs": [],
      "name": "campaignCount",
      "outputs": [
        {
          "internalType": "uint256",
          "name": "",
          "type": "uint256"
        }
      ],
      "stateMutability": "view",
      "type": "function"
    },
    {
      "inputs": [
        {
          "internalType": "uint256",
          "name": "",
          "type": "uint256"
        }
      ],
      "name": "campaigns",
      "outputs": [
        {
          "internalType": "address",
          "name": "owner",
          "type": "address"
        },
        {
          "internalType": "uint256",
          "name": "id",
          "type": "uint256"
        },
        {
          "internalType": "string",
          "name": "title",
          "type": "string"
        },
        {
          "internalType": "string",
          "name": "description",
          "type": "string"
        },
        {
          "internalType": "uint256",
          "name": "goal",
          "type": "uint256"
        },
        {
          "internalType": "uint256",
          "name": "deadline",
          "type": "uint256"
        },
        {
          "internalType": "uint256",
          "name": "minContribution",
          "type": "uint256"
        },
        {
          "internalType": "uint256",
          "name": "balance",
          "type": "uint256"
        },
        {
          "internalType": "uint256",
          "name": "noOfContributors",
          "type": "uint256"
        },
        {
          "internalType": "bool",
          "name": "exists",
          "type": "bool"
        },
        {
          "components": [
            {
              "internalType": "string",
              "name": "reqMsg",
              "type": "string"
            },
            {
              "internalType": "bool",
              "name": "requested",
              "type": "bool"
            }
          ],
          "internalType": "struct CharityDonation.Request",
          "name": "request",
          "type": "tuple"
        },
        {
          "internalType": "uint256",
          "name": "votesInFavor",
          "type": "uint256"
        }
      ],
      "stateMutability": "view",
      "type": "function"
    },
    {
      "inputs": [
        {
          "internalType": "uint256",
          "name": "campaignId",
          "type": "uint256"
        }
      ],
      "name": "fund",
      "outputs": [],
      "stateMutability": "payable",
      "type": "function"
    },
    {
      "inputs": [
        {
          "internalType": "uint256",
          "name": "campaignId",
          "type": "uint256"
        }
      ],
      "name": "getCampaignBalance",
      "outputs": [
        {
          "internalType": "uint256",
          "name": "",
          "type": "uint256"
        }
      ],
      "stateMutability": "view",
      "type": "function"
    },
    {
      "inputs": [
        {
          "internalType": "uint256",
          "name": "_id",
          "type": "uint256"
        }
      ],
      "name": "getCampaignBasicDetails",
      "outputs": [
        {
          "internalType": "address",
          "name": "owner",
          "type": "address"
        },
        {
          "internalType": "uint256",
          "name": "id",
          "type": "uint256"
        },
        {
          "internalType": "string",
          "name": "title",
          "type": "string"
        },
        {
          "internalType": "string",
          "name": "description",
          "type": "string"
        }
      ],
      "stateMutability": "view",
      "type": "function"
    },
    {
      "inputs": [],
      "name": "getCampaignCount",
      "outputs": [
        {
          "internalType": "uint256",
          "name": "",
          "type": "uint256"
        }
      ],
      "stateMutability": "view",
      "type": "function"
    },
    {
      "inputs": [
        {
          "internalType": "uint256",
          "name": "_id",
          "type": "uint256"
        }
      ],
      "name": "getCampaignFinancialDetails",
      "outputs": [
        {
          "internalType": "uint256",
          "name": "goal",
          "type": "uint256"
        },
        {
          "internalType": "uint256",
          "name": "balance",
          "type": "uint256"
        },
        {
          "internalType": "uint256",
          "name": "noOfContributors",
          "type": "uint256"
        }
      ],
      "stateMutability": "view",
      "type": "function"
    },
    {
      "inputs": [
        {
          "internalType": "uint256",
          "name": "_id",
          "type": "uint256"
        }
      ],
      "name": "getCampaignVoteRequestDetails",
      "outputs": [
        {
          "internalType": "bool",
          "name": "requestStatus",
          "type": "bool"
        },
        {
          "internalType": "uint256",
          "name": "votesInFavor",
          "type": "uint256"
        }
      ],
      "stateMutability": "view",
      "type": "function"
    },
    {
      "inputs": [
        {
          "internalType": "uint256",
          "name": "campaignId",
          "type": "uint256"
        }
      ],
      "name": "getContributorsForCampaign",
      "outputs": [
        {
          "internalType": "address[]",
          "name": "",
          "type": "address[]"
        }
      ],
      "stateMutability": "view",
      "type": "function"
    },
    {
      "inputs": [
        {
          "internalType": "uint256",
          "name": "campaignId",
          "type": "uint256"
        }
      ],
      "name": "getNumberOfContributors",
      "outputs": [
        {
          "internalType": "uint256",
          "name": "",
          "type": "uint256"
        }
      ],
      "stateMutability": "view",
      "type": "function"
    },
    {
      "inputs": [
        {
          "internalType": "address",
          "name": "ownerAddress",
          "type": "address"
        }
      ],
      "name": "getOwner",
      "outputs": [
        {
          "internalType": "address",
          "name": "",
          "type": "address"
        },
        {
          "internalType": "string",
          "name": "",
          "type": "string"
        },
        {
          "internalType": "bool",
          "name": "",
          "type": "bool"
        }
      ],
      "stateMutability": "view",
      "type": "function"
    },
    {
      "inputs": [
        {
          "internalType": "uint256",
          "name": "campaignId",
          "type": "uint256"
        }
      ],
      "name": "getOwnerBalance",
      "outputs": [
        {
          "internalType": "uint256",
          "name": "",
          "type": "uint256"
        }
      ],
      "stateMutability": "view",
      "type": "function"
    },
    {
      "inputs": [
        {
          "internalType": "uint256",
          "name": "campaignId",
          "type": "uint256"
        }
      ],
      "name": "getVotesInFavor",
      "outputs": [
        {
          "internalType": "uint256",
          "name": "",
          "type": "uint256"
        }
      ],
      "stateMutability": "view",
      "type": "function"
    },
    {
      "inputs": [
        {
          "internalType": "address",
          "name": "",
          "type": "address"
        }
      ],
      "name": "owners",
      "outputs": [
        {
          "internalType": "address",
          "name": "owner",
          "type": "address"
        },
        {
          "internalType": "string",
          "name": "ownerName",
          "type": "string"
        },
        {
          "internalType": "bool",
          "name": "verified",
          "type": "bool"
        }
      ],
      "stateMutability": "view",
      "type": "function"
    },
    {
      "inputs": [
        {
          "internalType": "uint256",
          "name": "campaignId",
          "type": "uint256"
        }
      ],
      "name": "processCampaignOutcome",
      "outputs": [],
      "stateMutability": "nonpayable",
      "type": "function"
    },
    {
      "inputs": [
        {
          "internalType": "string",
          "name": "_description",
          "type": "string"
        },
        {
          "internalType": "uint256",
          "name": "campaignId",
          "type": "uint256"
        }
      ],
      "name": "requestWithdrawal",
      "outputs": [],
      "stateMutability": "nonpayable",
      "type": "function"
    },
    {
      "inputs": [
        {
          "internalType": "uint256",
          "name": "campaignId",
          "type": "uint256"
        }
      ],
      "name": "voteForWithdrawal",
      "outputs": [],
      "stateMutability": "nonpayable",
      "type": "function"
    }
  ],
  "bytecode": "0x60806040526000600255348015601457600080fd5b5061305e806100246000396000f3fe6080604052600436106101145760003560e01c80636caa9218116100a0578063ca1d209d11610064578063ca1d209d1461040b578063e41dae1d14610427578063eb044b9714610467578063f141bd60146104a4578063fa544161146104cd57610114565b80636caa9218146103255780637274e30d14610350578063974d26381461037b578063aa6d6394146103a4578063bb1b2ba2146103e257610114565b8063141961bc116100e7578063141961bc146101fd578063256cc0a7146102455780633b077b901461026e57806345f61112146102ab5780635fc28579146102e857610114565b8063022914a714610119578063071f8a9814610158578063094fc034146101815780630fbee319146101c0575b600080fd5b34801561012557600080fd5b50610140600480360381019061013b9190611d93565b61050c565b60405161014f93929190611e7a565b60405180910390f35b34801561016457600080fd5b5061017f600480360381019061017a9190612023565b6105eb565b005b34801561018d57600080fd5b506101a860048036038101906101a3919061207f565b6107fc565b6040516101b7939291906120bb565b60405180910390f35b3480156101cc57600080fd5b506101e760048036038101906101e2919061207f565b6108b6565b6040516101f491906120f2565b60405180910390f35b34801561020957600080fd5b50610224600480360381019061021f919061207f565b6108d6565b60405161023c9c9b9a999897969594939291906121a3565b60405180910390f35b34801561025157600080fd5b5061026c6004803603810190610267919061207f565b610b2a565b005b34801561027a57600080fd5b506102956004803603810190610290919061207f565b610cb1565b6040516102a291906120f2565b60405180910390f35b3480156102b757600080fd5b506102d260048036038101906102cd919061207f565b610cd1565b6040516102df9190612330565b60405180910390f35b3480156102f457600080fd5b5061030f600480360381019061030a919061207f565b610d75565b60405161031c91906120f2565b60405180910390f35b34801561033157600080fd5b5061033a610dcc565b60405161034791906120f2565b60405180910390f35b34801561035c57600080fd5b50610365610dd6565b60405161037291906120f2565b60405180910390f35b34801561038757600080fd5b506103a2600480360381019061039d9190612352565b610ddc565b005b3480156103b057600080fd5b506103cb60048036038101906103c6919061207f565b610fd6565b6040516103d9929190612405565b60405180910390f35b3480156103ee57600080fd5b506104096004803603810190610404919061207f565b611083565b005b6104256004803603810190610420919061207f565b6112b2565b005b34801561043357600080fd5b5061044e6004803603810190610449919061207f565b6114f5565b60405161045e949392919061242e565b60405180910390f35b34801561047357600080fd5b5061048e6004803603810190610489919061207f565b6116ff565b60405161049b91906120f2565b60405180910390f35b3480156104b057600080fd5b506104cb60048036038101906104c69190612481565b61171f565b005b3480156104d957600080fd5b506104f460048036038101906104ef9190611d93565b611a0a565b60405161050393929190611e7a565b60405180910390f35b60006020528060005260406000206000915090508060000160009054906101000a900473ffffffffffffffffffffffffffffffffffffffff1690806001018054610555906124f9565b80601f0160208091040260200160405190810160405280929190818152602001828054610581906124f9565b80156105ce5780601f106105a3576101008083540402835291602001916105ce565b820191906000526020600020905b8154815290600101906020018083116105b157829003601f168201915b5050505050908060020160009054906101000a900460ff16905083565b806001600082815260200190815260200160002060000160009054906101000a900473ffffffffffffffffffffffffffffffffffffffff1673ffffffffffffffffffffffffffffffffffffffff163373ffffffffffffffffffffffffffffffffffffffff1614610690576040517f08c379a00000000000000000000000000000000000000000000000000000000081526004016106879061259c565b60405180910390fd5b60016000838152602001908152602001600020600a0160010160009054906101000a900460ff16156106f7576040517f08c379a00000000000000000000000000000000000000000000000000000000081526004016106ee90612608565b60405180910390fd5b600160008381526020019081526020016000206004015460016000848152602001908152602001600020600701541015610766576040517f08c379a000000000000000000000000000000000000000000000000000000000815260040161075d90612674565b60405180910390fd5b8260016000848152602001908152602001600020600a01600001908161078c9190612840565b506001806000848152602001908152602001600020600a0160010160006101000a81548160ff0219169083151502179055507fe21ee65d22ca73e62948637516eafe929496dca7c69123043c20b414526ca8d982846040516107ef929190612912565b60405180910390a1505050565b60008060006001600085815260200190815260200160002060090160009054906101000a900460ff16610864576040517f08c379a000000000000000000000000000000000000000000000000000000000815260040161085b9061298e565b60405180910390fd5b6001600085815260200190815260200160002060040154600160008681526020019081526020016000206007015460016000878152602001908152602001600020600801549250925092509193909250565b600060016000838152602001908152602001600020600801549050919050565b60016020528060005260406000206000915090508060000160009054906101000a900473ffffffffffffffffffffffffffffffffffffffff1690806001015490806002018054610925906124f9565b80601f0160208091040260200160405190810160405280929190818152602001828054610951906124f9565b801561099e5780601f106109735761010080835404028352916020019161099e565b820191906000526020600020905b81548152906001019060200180831161098157829003601f168201915b5050505050908060030180546109b3906124f9565b80601f01602080910402602001604051908101604052809291908181526020018280546109df906124f9565b8015610a2c5780601f10610a0157610100808354040283529160200191610a2c565b820191906000526020600020905b815481529060010190602001808311610a0f57829003601f168201915b5050505050908060040154908060050154908060060154908060070154908060080154908060090160009054906101000a900460ff169080600a01604051806040016040529081600082018054610a82906124f9565b80601f0160208091040260200160405190810160405280929190818152602001828054610aae906124f9565b8015610afb5780601f10610ad057610100808354040283529160200191610afb565b820191906000526020600020905b815481529060010190602001808311610ade57829003601f168201915b505050505081526020016001820160009054906101000a900460ff1615151515815250509080600f015490508c565b6000600160008381526020019081526020016000209050600081600801549050600082600f015490508260040154836007015410158015610b765750600282610b739190612a0c565b81115b15610ca15760008360070154905060008111610bc7576040517f08c379a0000000000000000000000000000000000000000000000000000000008152600401610bbe90612a89565b60405180910390fd5b8360000160009054906101000a900473ffffffffffffffffffffffffffffffffffffffff1673ffffffffffffffffffffffffffffffffffffffff166108fc829081150290604051600060405180830381858888f19350505050158015610c31573d6000803e3d6000fd5b50600084600701819055507fe90ae330e5aefc2a73ddff0dd88bcaf8f4a0629d6553a2a85b22cac3d5f4a19e858560000160009054906101000a900473ffffffffffffffffffffffffffffffffffffffff1683604051610c9393929190612aa9565b60405180910390a150610cab565b610caa84611b7c565b5b50505050565b600060016000838152602001908152602001600020600f01549050919050565b606060016000838152602001908152602001600020600e01805480602002602001604051908101604052809291908181526020018280548015610d6957602002820191906000526020600020905b8160009054906101000a900473ffffffffffffffffffffffffffffffffffffffff1673ffffffffffffffffffffffffffffffffffffffff1681526020019060010190808311610d1f575b50505050509050919050565b60006001600083815260200190815260200160002060000160009054906101000a900473ffffffffffffffffffffffffffffffffffffffff1673ffffffffffffffffffffffffffffffffffffffff16319050919050565b6000600254905090565b60025481565b60008211610e1f576040517f08c379a0000000000000000000000000000000000000000000000000000000008152600401610e1690612b52565b60405180910390fd5b60006001600060025481526020019081526020016000209050600254816001018190555085816002019081610e549190612840565b5084816003019081610e669190612840565b508381600401819055506201518083610e7f9190612b72565b42610e8a9190612bb4565b81600501819055508181600601819055506000816007018190555060008160080181905550338160000160006101000a81548173ffffffffffffffffffffffffffffffffffffffff021916908373ffffffffffffffffffffffffffffffffffffffff16021790555060405180604001604052806040518060200160405280600081525081526020016000151581525081600a016000820151816000019081610f329190612840565b5060208201518160010160006101000a81548160ff02191690831515021790555090505060018160090160006101000a81548160ff0219169083151502179055507fd375203c1b7c7b8b86a069706b2b59bf0267922e586ada570e5d9b55525bacf960025487868460050154604051610fae9493929190612be8565b60405180910390a160026000815480929190610fc990612c34565b9190505550505050505050565b6000806001600084815260200190815260200160002060090160009054906101000a900460ff1661103c576040517f08c379a00000000000000000000000000000000000000000000000000000000081526004016110339061298e565b60405180910390fd5b60016000848152602001908152602001600020600a0160010160009054906101000a900460ff1660016000858152602001908152602001600020600f015491509150915091565b600060016000838152602001908152602001600020905080600a0160010160009054906101000a900460ff166110ee576040517f08c379a00000000000000000000000000000000000000000000000000000000081526004016110e590612cc8565b60405180910390fd5b600081600c0160003373ffffffffffffffffffffffffffffffffffffffff1673ffffffffffffffffffffffffffffffffffffffff1681526020019081526020016000205411611172576040517f08c379a000000000000000000000000000000000000000000000000000000000815260040161116990612d34565b60405180910390fd5b80600d0160003373ffffffffffffffffffffffffffffffffffffffff1673ffffffffffffffffffffffffffffffffffffffff16815260200190815260200160002060009054906101000a900460ff1615611201576040517f08c379a00000000000000000000000000000000000000000000000000000000081526004016111f890612da0565b60405180910390fd5b600181600d0160003373ffffffffffffffffffffffffffffffffffffffff1673ffffffffffffffffffffffffffffffffffffffff16815260200190815260200160002060006101000a81548160ff02191690831515021790555080600f01600081548092919061127090612c34565b91905055507fd8d46ecf72f6103ff400e47d1b5fdfe248d4ca34a4acd39f63fbe903c8f7e7bd82336040516112a6929190612dc0565b60405180910390a15050565b600160008281526020019081526020016000206006015434101561130b576040517f08c379a000000000000000000000000000000000000000000000000000000000815260040161130290612e5b565b60405180910390fd5b60016000828152602001908152602001600020600501544210611363576040517f08c379a000000000000000000000000000000000000000000000000000000000815260040161135a90612ec7565b60405180910390fd5b6000600160008381526020019081526020016000209050600081600c0160003373ffffffffffffffffffffffffffffffffffffffff1673ffffffffffffffffffffffffffffffffffffffff16815260200190815260200160002054036114435780600e01339080600181540180825580915050600190039060005260206000200160009091909190916101000a81548173ffffffffffffffffffffffffffffffffffffffff021916908373ffffffffffffffffffffffffffffffffffffffff16021790555080600801600081548092919061143d90612c34565b91905055505b3481600c0160003373ffffffffffffffffffffffffffffffffffffffff1673ffffffffffffffffffffffffffffffffffffffff16815260200190815260200160002060008282546114949190612bb4565b92505081905550348160070160008282546114af9190612bb4565b925050819055507f38c48552690c96ec2872092ac1db6c19fb59f5a8c5b49bbf41ed4886d0ca69268233346040516114e993929190612aa9565b60405180910390a15050565b6000806060806001600086815260200190815260200160002060090160009054906101000a900460ff1661155e576040517f08c379a00000000000000000000000000000000000000000000000000000000081526004016115559061298e565b60405180910390fd5b6001600086815260200190815260200160002060000160009054906101000a900473ffffffffffffffffffffffffffffffffffffffff16600160008781526020019081526020016000206001015460016000888152602001908152602001600020600201600160008981526020019081526020016000206003018180546115e4906124f9565b80601f0160208091040260200160405190810160405280929190818152602001828054611610906124f9565b801561165d5780601f106116325761010080835404028352916020019161165d565b820191906000526020600020905b81548152906001019060200180831161164057829003601f168201915b50505050509150808054611670906124f9565b80601f016020809104026020016040519081016040528092919081815260200182805461169c906124f9565b80156116e95780601f106116be576101008083540402835291602001916116e9565b820191906000526020600020905b8154815290600101906020018083116116cc57829003601f168201915b5050505050905093509350935093509193509193565b600060016000838152602001908152602001600020600701549050919050565b600073ffffffffffffffffffffffffffffffffffffffff166000803373ffffffffffffffffffffffffffffffffffffffff1673ffffffffffffffffffffffffffffffffffffffff16815260200190815260200160002060000160009054906101000a900473ffffffffffffffffffffffffffffffffffffffff1673ffffffffffffffffffffffffffffffffffffffff16146117ef576040517f08c379a00000000000000000000000000000000000000000000000000000000081526004016117e690612f33565b60405180910390fd5b336000803373ffffffffffffffffffffffffffffffffffffffff1673ffffffffffffffffffffffffffffffffffffffff16815260200190815260200160002060000160006101000a81548173ffffffffffffffffffffffffffffffffffffffff021916908373ffffffffffffffffffffffffffffffffffffffff160217905550806000803373ffffffffffffffffffffffffffffffffffffffff1673ffffffffffffffffffffffffffffffffffffffff16815260200190815260200160002060010190816118bd9190612840565b5060016000803373ffffffffffffffffffffffffffffffffffffffff1673ffffffffffffffffffffffffffffffffffffffff16815260200190815260200160002060020160006101000a81548160ff0219169083151502179055506000803373ffffffffffffffffffffffffffffffffffffffff1673ffffffffffffffffffffffffffffffffffffffff16815260200190815260200160002060000160009054906101000a900473ffffffffffffffffffffffffffffffffffffffff1673ffffffffffffffffffffffffffffffffffffffff167f7adcb4720057d6b9b1d9dc7f206a6dc456794ecdbf145763cc55d76930c3ab866000803373ffffffffffffffffffffffffffffffffffffffff1673ffffffffffffffffffffffffffffffffffffffff1681526020019081526020016000206001016040516119ff9190612fd7565b60405180910390a250565b600060606000806000808673ffffffffffffffffffffffffffffffffffffffff1673ffffffffffffffffffffffffffffffffffffffff1681526020019081526020016000206040518060600160405290816000820160009054906101000a900473ffffffffffffffffffffffffffffffffffffffff1673ffffffffffffffffffffffffffffffffffffffff1673ffffffffffffffffffffffffffffffffffffffff168152602001600182018054611ac0906124f9565b80601f0160208091040260200160405190810160405280929190818152602001828054611aec906124f9565b8015611b395780601f10611b0e57610100808354040283529160200191611b39565b820191906000526020600020905b815481529060010190602001808311611b1c57829003601f168201915b505050505081526020016002820160009054906101000a900460ff1615151515815250509050806000015181602001518260400151935093509350509193909250565b600060016000838152602001908152602001600020905060005b81600e0180549050811015611d1257600082600e018281548110611bbd57611bbc612ff9565b5b9060005260206000200160009054906101000a900473ffffffffffffffffffffffffffffffffffffffff169050600083600c0160008373ffffffffffffffffffffffffffffffffffffffff1673ffffffffffffffffffffffffffffffffffffffff1681526020019081526020016000205490506000811115611d03578173ffffffffffffffffffffffffffffffffffffffff166108fc829081150290604051600060405180830381858888f19350505050158015611c7f573d6000803e3d6000fd5b50600084600c0160008473ffffffffffffffffffffffffffffffffffffffff1673ffffffffffffffffffffffffffffffffffffffff168152602001908152602001600020819055507f7a482fdeb6bc9a1376f597068a214a7a39472bb2eff1b8cad21ba04f49ddca1b858383604051611cfa93929190612aa9565b60405180910390a15b50508080600101915050611b96565b50600081600701819055505050565b6000604051905090565b600080fd5b600080fd5b600073ffffffffffffffffffffffffffffffffffffffff82169050919050565b6000611d6082611d35565b9050919050565b611d7081611d55565b8114611d7b57600080fd5b50565b600081359050611d8d81611d67565b92915050565b600060208284031215611da957611da8611d2b565b5b6000611db784828501611d7e565b91505092915050565b611dc981611d55565b82525050565b600081519050919050565b600082825260208201905092915050565b60005b83811015611e09578082015181840152602081019050611dee565b60008484015250505050565b6000601f19601f8301169050919050565b6000611e3182611dcf565b611e3b8185611dda565b9350611e4b818560208601611deb565b611e5481611e15565b840191505092915050565b60008115159050919050565b611e7481611e5f565b82525050565b6000606082019050611e8f6000830186611dc0565b8181036020830152611ea18185611e26565b9050611eb06040830184611e6b565b949350505050565b600080fd5b600080fd5b7f4e487b7100000000000000000000000000000000000000000000000000000000600052604160045260246000fd5b611efa82611e15565b810181811067ffffffffffffffff82111715611f1957611f18611ec2565b5b80604052505050565b6000611f2c611d21565b9050611f388282611ef1565b919050565b600067ffffffffffffffff821115611f5857611f57611ec2565b5b611f6182611e15565b9050602081019050919050565b82818337600083830152505050565b6000611f90611f8b84611f3d565b611f22565b905082815260208101848484011115611fac57611fab611ebd565b5b611fb7848285611f6e565b509392505050565b600082601f830112611fd457611fd3611eb8565b5b8135611fe4848260208601611f7d565b91505092915050565b6000819050919050565b61200081611fed565b811461200b57600080fd5b50565b60008135905061201d81611ff7565b92915050565b6000806040838503121561203a57612039611d2b565b5b600083013567ffffffffffffffff81111561205857612057611d30565b5b61206485828601611fbf565b92505060206120758582860161200e565b9150509250929050565b60006020828403121561209557612094611d2b565b5b60006120a38482850161200e565b91505092915050565b6120b581611fed565b82525050565b60006060820190506120d060008301866120ac565b6120dd60208301856120ac565b6120ea60408301846120ac565b949350505050565b600060208201905061210760008301846120ac565b92915050565b600082825260208201905092915050565b600061212982611dcf565b612133818561210d565b9350612143818560208601611deb565b61214c81611e15565b840191505092915050565b61216081611e5f565b82525050565b60006040830160008301518482036000860152612183828261211e565b91505060208301516121986020860182612157565b508091505092915050565b6000610180820190506121b9600083018f611dc0565b6121c6602083018e6120ac565b81810360408301526121d8818d611e26565b905081810360608301526121ec818c611e26565b90506121fb608083018b6120ac565b61220860a083018a6120ac565b61221560c08301896120ac565b61222260e08301886120ac565b6122306101008301876120ac565b61223e610120830186611e6b565b8181036101408301526122518185612166565b90506122616101608301846120ac565b9d9c50505050505050505050505050565b600081519050919050565b600082825260208201905092915050565b6000819050602082019050919050565b6122a781611d55565b82525050565b60006122b9838361229e565b60208301905092915050565b6000602082019050919050565b60006122dd82612272565b6122e7818561227d565b93506122f28361228e565b8060005b8381101561232357815161230a88826122ad565b9750612315836122c5565b9250506001810190506122f6565b5085935050505092915050565b6000602082019050818103600083015261234a81846122d2565b905092915050565b600080600080600060a0868803121561236e5761236d611d2b565b5b600086013567ffffffffffffffff81111561238c5761238b611d30565b5b61239888828901611fbf565b955050602086013567ffffffffffffffff8111156123b9576123b8611d30565b5b6123c588828901611fbf565b94505060406123d68882890161200e565b93505060606123e78882890161200e565b92505060806123f88882890161200e565b9150509295509295909350565b600060408201905061241a6000830185611e6b565b61242760208301846120ac565b9392505050565b60006080820190506124436000830187611dc0565b61245060208301866120ac565b81810360408301526124628185611e26565b905081810360608301526124768184611e26565b905095945050505050565b60006020828403121561249757612496611d2b565b5b600082013567ffffffffffffffff8111156124b5576124b4611d30565b5b6124c184828501611fbf565b91505092915050565b7f4e487b7100000000000000000000000000000000000000000000000000000000600052602260045260246000fd5b6000600282049050600182168061251157607f821691505b602082108103612524576125236124ca565b5b50919050565b7f4f6e6c79206f776e65722063616e2063616c6c20746869732066756e6374696f60008201527f6e00000000000000000000000000000000000000000000000000000000000000602082015250565b6000612586602183611dda565b91506125918261252a565b604082019050919050565b600060208201905081810360008301526125b581612579565b9050919050565b7f526571756573742068617320616c7265616479206265656e2063726561746564600082015250565b60006125f2602083611dda565b91506125fd826125bc565b602082019050919050565b60006020820190508181036000830152612621816125e5565b9050919050565b7f476f616c20686173206e6f74206265656e207265616368656400000000000000600082015250565b600061265e601983611dda565b915061266982612628565b602082019050919050565b6000602082019050818103600083015261268d81612651565b9050919050565b60008190508160005260206000209050919050565b60006020601f8301049050919050565b600082821b905092915050565b6000600883026126f67fffffffffffffffffffffffffffffffffffffffffffffffffffffffffffffffff826126b9565b61270086836126b9565b95508019841693508086168417925050509392505050565b6000819050919050565b600061273d61273861273384611fed565b612718565b611fed565b9050919050565b6000819050919050565b61275783612722565b61276b61276382612744565b8484546126c6565b825550505050565b600090565b612780612773565b61278b81848461274e565b505050565b5b818110156127af576127a4600082612778565b600181019050612791565b5050565b601f8211156127f4576127c581612694565b6127ce846126a9565b810160208510156127dd578190505b6127f16127e9856126a9565b830182612790565b50505b505050565b600082821c905092915050565b6000612817600019846008026127f9565b1980831691505092915050565b60006128308383612806565b9150826002028217905092915050565b61284982611dcf565b67ffffffffffffffff81111561286257612861611ec2565b5b61286c82546124f9565b6128778282856127b3565b600060209050601f8311600181146128aa5760008415612898578287015190505b6128a28582612824565b86555061290a565b601f1984166128b886612694565b60005b828110156128e0578489015182556001820191506020850194506020810190506128bb565b868310156128fd57848901516128f9601f891682612806565b8355505b6001600288020188555050505b505050505050565b600060408201905061292760008301856120ac565b81810360208301526129398184611e26565b90509392505050565b7f43616d706169676e20646f6573206e6f74206578697374000000000000000000600082015250565b6000612978601783611dda565b915061298382612942565b602082019050919050565b600060208201905081810360008301526129a78161296b565b9050919050565b7f4e487b7100000000000000000000000000000000000000000000000000000000600052601260045260246000fd5b7f4e487b7100000000000000000000000000000000000000000000000000000000600052601160045260246000fd5b6000612a1782611fed565b9150612a2283611fed565b925082612a3257612a316129ae565b5b828204905092915050565b7f4e6f2062616c616e636520746f20776974686472617700000000000000000000600082015250565b6000612a73601683611dda565b9150612a7e82612a3d565b602082019050919050565b60006020820190508181036000830152612aa281612a66565b9050919050565b6000606082019050612abe60008301866120ac565b612acb6020830185611dc0565b612ad860408301846120ac565b949350505050565b7f446561646c696e65206d7573742062652067726561746572207468616e20302060008201527f6461797300000000000000000000000000000000000000000000000000000000602082015250565b6000612b3c602483611dda565b9150612b4782612ae0565b604082019050919050565b60006020820190508181036000830152612b6b81612b2f565b9050919050565b6000612b7d82611fed565b9150612b8883611fed565b9250828202612b9681611fed565b91508282048414831517612bad57612bac6129dd565b5b5092915050565b6000612bbf82611fed565b9150612bca83611fed565b9250828201905080821115612be257612be16129dd565b5b92915050565b6000608082019050612bfd60008301876120ac565b8181036020830152612c0f8186611e26565b9050612c1e60408301856120ac565b612c2b60608301846120ac565b95945050505050565b6000612c3f82611fed565b91507fffffffffffffffffffffffffffffffffffffffffffffffffffffffffffffffff8203612c7157612c706129dd565b5b600182019050919050565b7f4e6f207769746864726177616c207265717565737420617661696c61626c6500600082015250565b6000612cb2601f83611dda565b9150612cbd82612c7c565b602082019050919050565b60006020820190508181036000830152612ce181612ca5565b9050919050565b7f4f6e6c7920636f6e7472696275746f72732063616e20766f7465000000000000600082015250565b6000612d1e601a83611dda565b9150612d2982612ce8565b602082019050919050565b60006020820190508181036000830152612d4d81612d11565b9050919050565b7f416c726561647920766f74656400000000000000000000000000000000000000600082015250565b6000612d8a600d83611dda565b9150612d9582612d54565b602082019050919050565b60006020820190508181036000830152612db981612d7d565b9050919050565b6000604082019050612dd560008301856120ac565b612de26020830184611dc0565b9392505050565b7f4d7573742066756e6420616d6f756e742067726561746572207468616e206d6960008201527f6e20636f6e747269627574696f6e000000000000000000000000000000000000602082015250565b6000612e45602e83611dda565b9150612e5082612de9565b604082019050919050565b60006020820190508181036000830152612e7481612e38565b9050919050565b7f43616d706169676e2068617320656e6465640000000000000000000000000000600082015250565b6000612eb1601283611dda565b9150612ebc82612e7b565b602082019050919050565b60006020820190508181036000830152612ee081612ea4565b9050919050565b7f4f776e657220616c726561647920657869737473000000000000000000000000600082015250565b6000612f1d601483611dda565b9150612f2882612ee7565b602082019050919050565b60006020820190508181036000830152612f4c81612f10565b9050919050565b60008154612f60816124f9565b612f6a8186611dda565b94506001821660008114612f855760018114612f9b57612fce565b60ff198316865281151560200286019350612fce565b612fa485612694565b60005b83811015612fc657815481890152600182019150602081019050612fa7565b808801955050505b50505092915050565b60006020820190508181036000830152612ff18184612f53565b905092915050565b7f4e487b7100000000000000000000000000000000000000000000000000000000600052603260045260246000fdfea26469706673582212208b23fa9cba96f4d15213283ae507da021c6abe57d3d35546115e5c588d73e4ac64736f6c634300081b0033",
  "linkReferences": {},
  "deployedLinkReferences": {}
}