{
  "_format": "hh-sol-artifact-1",
  "contractName": "CharityDonation",
  "sourceName": "contracts/CharityDonation.sol",
  "abi": [
    {
      "inputs": [
        {
          "internalType": "address",
          "name": "o",
          "type": "address"
        },
        {
          "internalType": "string",
          "name": "cid",
          "type": "string"
        }
      ],
      "name": "addApprovedOwners",
      "outputs": [],
      "stateMutability": "nonpayable",
      "type": "function"
    },
    {
      "inputs": [
        {
          "internalType": "string",
          "name": "_title",
          "type": "string"
        },
        {
          "internalType": "string",
          "name": "_description",
          "type": "string"
        },
        {
          "internalType": "uint256",
          "name": "_goal",
          "type": "uint256"
        },
        {
          "internalType": "uint256",
          "name": "_days",
          "type": "uint256"
        },
        {
          "internalType": "uint256",
          "name": "_hours",
          "type": "uint256"
        },
        {
          "internalType": "uint256",
          "name": "_minutes",
          "type": "uint256"
        },
        {
          "internalType": "uint256",
          "name": "_minContribution",
          "type": "uint256"
        }
      ],
      "name": "addCampaign",
      "outputs": [],
      "stateMutability": "nonpayable",
      "type": "function"
    },
    {
      "inputs": [
        {
          "internalType": "string",
          "name": "_ownerName",
          "type": "string"
        }
      ],
      "name": "addOwner",
      "outputs": [],
      "stateMutability": "nonpayable",
      "type": "function"
    },
    {
      "inputs": [
        {
          "internalType": "uint256",
          "name": "campaignId",
          "type": "uint256"
        },
        {
          "internalType": "string",
          "name": "updateTitle",
          "type": "string"
        },
        {
          "internalType": "string",
          "name": "updateDescription",
          "type": "string"
        },
        {
          "internalType": "string[]",
          "name": "updateImages",
          "type": "string[]"
        }
      ],
      "name": "addUpdate",
      "outputs": [],
      "stateMutability": "nonpayable",
      "type": "function"
    },
    {
      "inputs": [
        {
          "internalType": "address",
          "name": "",
          "type": "address"
        }
      ],
      "name": "approvedOwners",
      "outputs": [
        {
          "internalType": "string",
          "name": "",
          "type": "string"
        }
      ],
      "stateMutability": "view",
      "type": "function"
    },
    {
      "inputs": [],
      "name": "campaignCount",
      "outputs": [
        {
          "internalType": "uint256",
          "name": "",
          "type": "uint256"
        }
      ],
      "stateMutability": "view",
      "type": "function"
    },
    {
      "inputs": [
        {
          "internalType": "uint256",
          "name": "",
          "type": "uint256"
        }
      ],
      "name": "campaigns",
      "outputs": [
        {
          "internalType": "address",
          "name": "owner",
          "type": "address"
        },
        {
          "internalType": "uint256",
          "name": "id",
          "type": "uint256"
        },
        {
          "internalType": "string",
          "name": "title",
          "type": "string"
        },
        {
          "internalType": "string",
          "name": "description",
          "type": "string"
        },
        {
          "internalType": "uint256",
          "name": "goal",
          "type": "uint256"
        },
        {
          "internalType": "uint256",
          "name": "deadline",
          "type": "uint256"
        },
        {
          "internalType": "uint256",
          "name": "minContribution",
          "type": "uint256"
        },
        {
          "internalType": "uint256",
          "name": "balance",
          "type": "uint256"
        },
        {
          "internalType": "uint256",
          "name": "noOfContributors",
          "type": "uint256"
        },
        {
          "internalType": "bool",
          "name": "exists",
          "type": "bool"
        },
        {
          "internalType": "uint256",
          "name": "votesInFavor",
          "type": "uint256"
        }
      ],
      "stateMutability": "view",
      "type": "function"
    },
    {
      "inputs": [
        {
          "internalType": "uint256",
          "name": "",
          "type": "uint256"
        }
      ],
      "name": "cardImage",
      "outputs": [
        {
          "internalType": "string",
          "name": "",
          "type": "string"
        }
      ],
      "stateMutability": "view",
      "type": "function"
    },
    {
      "inputs": [
        {
          "internalType": "address",
          "name": "a",
          "type": "address"
        }
      ],
      "name": "checkIfAdmin",
      "outputs": [
        {
          "internalType": "bool",
          "name": "",
          "type": "bool"
        }
      ],
      "stateMutability": "view",
      "type": "function"
    },
    {
      "inputs": [
        {
          "internalType": "address",
          "name": "o",
          "type": "address"
        }
      ],
      "name": "checkIfApprovedOwner",
      "outputs": [
        {
          "internalType": "bool",
          "name": "",
          "type": "bool"
        }
      ],
      "stateMutability": "view",
      "type": "function"
    },
    {
      "inputs": [
        {
          "internalType": "uint256",
          "name": "campaignId",
          "type": "uint256"
        }
      ],
      "name": "exists",
      "outputs": [
        {
          "internalType": "bool",
          "name": "",
          "type": "bool"
        }
      ],
      "stateMutability": "view",
      "type": "function"
    },
    {
      "inputs": [
        {
          "internalType": "uint256",
          "name": "campaignId",
          "type": "uint256"
        }
      ],
      "name": "fund",
      "outputs": [],
      "stateMutability": "payable",
      "type": "function"
    },
    {
      "inputs": [],
      "name": "getAllApprovedOwners",
      "outputs": [
        {
          "internalType": "address[]",
          "name": "",
          "type": "address[]"
        },
        {
          "internalType": "string[]",
          "name": "",
          "type": "string[]"
        }
      ],
      "stateMutability": "view",
      "type": "function"
    },
    {
      "inputs": [
        {
          "internalType": "uint256",
          "name": "_id",
          "type": "uint256"
        }
      ],
      "name": "getCampaignBasicDetails",
      "outputs": [
        {
          "internalType": "address",
          "name": "owner",
          "type": "address"
        },
        {
          "internalType": "uint256",
          "name": "id",
          "type": "uint256"
        },
        {
          "internalType": "string",
          "name": "title",
          "type": "string"
        },
        {
          "internalType": "string",
          "name": "description",
          "type": "string"
        },
        {
          "internalType": "uint256",
          "name": "minContribution",
          "type": "uint256"
        },
        {
          "internalType": "uint256",
          "name": "deadline",
          "type": "uint256"
        }
      ],
      "stateMutability": "view",
      "type": "function"
    },
    {
      "inputs": [],
      "name": "getCampaignCount",
      "outputs": [
        {
          "internalType": "uint256",
          "name": "",
          "type": "uint256"
        }
      ],
      "stateMutability": "view",
      "type": "function"
    },
    {
      "inputs": [
        {
          "internalType": "uint256",
          "name": "_id",
          "type": "uint256"
        }
      ],
      "name": "getCampaignFinancialDetails",
      "outputs": [
        {
          "internalType": "uint256",
          "name": "goal",
          "type": "uint256"
        },
        {
          "internalType": "uint256",
          "name": "balance",
          "type": "uint256"
        },
        {
          "internalType": "uint256",
          "name": "noOfContributors",
          "type": "uint256"
        }
      ],
      "stateMutability": "view",
      "type": "function"
    },
    {
      "inputs": [
        {
          "internalType": "uint256",
          "name": "campaignId",
          "type": "uint256"
        }
      ],
      "name": "getCardImage",
      "outputs": [
        {
          "internalType": "string",
          "name": "",
          "type": "string"
        }
      ],
      "stateMutability": "view",
      "type": "function"
    },
    {
      "inputs": [
        {
          "internalType": "address",
          "name": "ad",
          "type": "address"
        }
      ],
      "name": "getCid",
      "outputs": [
        {
          "internalType": "string",
          "name": "",
          "type": "string"
        }
      ],
      "stateMutability": "view",
      "type": "function"
    },
    {
      "inputs": [
        {
          "internalType": "uint256",
          "name": "campaignId",
          "type": "uint256"
        },
        {
          "internalType": "address",
          "name": "contributor",
          "type": "address"
        }
      ],
      "name": "getContributionForAddress",
      "outputs": [
        {
          "internalType": "uint256",
          "name": "",
          "type": "uint256"
        }
      ],
      "stateMutability": "view",
      "type": "function"
    },
    {
      "inputs": [
        {
          "internalType": "uint256",
          "name": "campaignId",
          "type": "uint256"
        }
      ],
      "name": "getContributorsForCampaign",
      "outputs": [
        {
          "internalType": "address[]",
          "name": "",
          "type": "address[]"
        }
      ],
      "stateMutability": "view",
      "type": "function"
    },
    {
      "inputs": [
        {
          "internalType": "uint256",
          "name": "campaignId",
          "type": "uint256"
        }
      ],
      "name": "getContributorsIfVoted",
      "outputs": [
        {
          "internalType": "bool",
          "name": "",
          "type": "bool"
        }
      ],
      "stateMutability": "view",
      "type": "function"
    },
    {
      "inputs": [
        {
          "internalType": "address",
          "name": "ownerAddress",
          "type": "address"
        }
      ],
      "name": "getOwner",
      "outputs": [
        {
          "internalType": "address",
          "name": "",
          "type": "address"
        },
        {
          "internalType": "string",
          "name": "",
          "type": "string"
        },
        {
          "internalType": "bool",
          "name": "",
          "type": "bool"
        }
      ],
      "stateMutability": "view",
      "type": "function"
    },
    {
      "inputs": [
        {
          "internalType": "uint256",
          "name": "campaignId",
          "type": "uint256"
        }
      ],
      "name": "getUpdates",
      "outputs": [
        {
          "components": [
            {
              "internalType": "string",
              "name": "title",
              "type": "string"
            },
            {
              "internalType": "string",
              "name": "description",
              "type": "string"
            },
            {
              "internalType": "string[]",
              "name": "images",
              "type": "string[]"
            }
          ],
          "internalType": "struct CharityDonation.Update[]",
          "name": "",
          "type": "tuple[]"
        }
      ],
      "stateMutability": "view",
      "type": "function"
    },
    {
      "inputs": [
        {
          "internalType": "uint256",
          "name": "campaignId",
          "type": "uint256"
        }
      ],
      "name": "isContributor",
      "outputs": [
        {
          "internalType": "bool",
          "name": "",
          "type": "bool"
        }
      ],
      "stateMutability": "view",
      "type": "function"
    },
    {
      "inputs": [
        {
          "internalType": "uint256",
          "name": "campaignId",
          "type": "uint256"
        },
        {
          "internalType": "uint256",
          "name": "dead",
          "type": "uint256"
        }
      ],
      "name": "isDeadlineReached",
      "outputs": [
        {
          "internalType": "bool",
          "name": "",
          "type": "bool"
        }
      ],
      "stateMutability": "view",
      "type": "function"
    },
    {
      "inputs": [
        {
          "internalType": "uint256",
          "name": "campaignId",
          "type": "uint256"
        }
      ],
      "name": "isExists",
      "outputs": [],
      "stateMutability": "nonpayable",
      "type": "function"
    },
    {
      "inputs": [
        {
          "internalType": "uint256",
          "name": "campaignId",
          "type": "uint256"
        }
      ],
      "name": "isGoalReached",
      "outputs": [
        {
          "internalType": "bool",
          "name": "",
          "type": "bool"
        }
      ],
      "stateMutability": "view",
      "type": "function"
    },
    {
      "inputs": [
        {
          "internalType": "uint256",
          "name": "campaignId",
          "type": "uint256"
        }
      ],
      "name": "isVotesInFavour",
      "outputs": [
        {
          "internalType": "bool",
          "name": "",
          "type": "bool"
        }
      ],
      "stateMutability": "view",
      "type": "function"
    },
    {
      "inputs": [
        {
          "internalType": "uint256",
          "name": "",
          "type": "uint256"
        }
      ],
      "name": "ownerArray",
      "outputs": [
        {
          "internalType": "address",
          "name": "",
          "type": "address"
        }
      ],
      "stateMutability": "view",
      "type": "function"
    },
    {
      "inputs": [
        {
          "internalType": "uint256",
          "name": "campaignId",
          "type": "uint256"
        }
      ],
      "name": "ownerWithdraw",
      "outputs": [],
      "stateMutability": "nonpayable",
      "type": "function"
    },
    {
      "inputs": [
        {
          "internalType": "address",
          "name": "",
          "type": "address"
        }
      ],
      "name": "owners",
      "outputs": [
        {
          "internalType": "address",
          "name": "owner",
          "type": "address"
        },
        {
          "internalType": "string",
          "name": "ownerName",
          "type": "string"
        },
        {
          "internalType": "bool",
          "name": "verified",
          "type": "bool"
        }
      ],
      "stateMutability": "view",
      "type": "function"
    },
    {
      "inputs": [
        {
          "internalType": "uint256",
          "name": "campaignId",
          "type": "uint256"
        }
      ],
      "name": "refundMyContribution",
      "outputs": [],
      "stateMutability": "nonpayable",
      "type": "function"
    },
    {
      "inputs": [
        {
          "internalType": "uint256",
          "name": "campaignId",
          "type": "uint256"
        },
        {
          "internalType": "string",
          "name": "imageUrl",
          "type": "string"
        }
      ],
      "name": "updateCardImage",
      "outputs": [],
      "stateMutability": "nonpayable",
      "type": "function"
    },
    {
      "inputs": [
        {
          "internalType": "uint256",
          "name": "",
          "type": "uint256"
        },
        {
          "internalType": "uint256",
          "name": "",
          "type": "uint256"
        }
      ],
      "name": "updates",
      "outputs": [
        {
          "internalType": "string",
          "name": "title",
          "type": "string"
        },
        {
          "internalType": "string",
          "name": "description",
          "type": "string"
        }
      ],
      "stateMutability": "view",
      "type": "function"
    },
    {
      "inputs": [
        {
          "internalType": "uint256",
          "name": "campaignId",
          "type": "uint256"
        }
      ],
      "name": "voteForWithdrawal",
      "outputs": [],
      "stateMutability": "nonpayable",
      "type": "function"
    }
  ],
  "bytecode": "0x60806040526000600655348015601457600080fd5b50614fb2806100246000396000f3fe6080604052600436106102045760003560e01c80639e914d1f11610118578063d9fa9c1a116100a0578063f11265891161006f578063f112658914610875578063f141bd601461089e578063f19603aa146108c7578063fa54416114610904578063ff93478c1461094357610204565b8063d9fa9c1a1461077c578063e41dae1d146107b9578063e6b25dfc146107fb578063e8d49e101461083857610204565b8063bb1b2ba2116100e7578063bb1b2ba214610694578063bc24c16b146106bd578063c0ffdba0146106e6578063ca1d209d14610723578063d34197231461073f57610204565b80639e914d1f146105c8578063a4edee2514610605578063ab68490514610642578063b4fde1081461066b57610204565b80634edc3e221161019b5780637274e30d1161016a5780637274e30d146104bd5780638ac0d213146104e85780638b89ad89146105255780639b87c11f146105625780639d36788e1461059f57610204565b80634edc3e22146103ec5780634f558e7914610418578063686cfb9e146104555780636caa92181461049257610204565b806333f707d1116101d757806333f707d11461030c57806341c0ed5c1461033557806344a8c0991461037257806345f61112146103af57610204565b8063022914a714610209578063094fc03414610248578063141961bc1461028757806318e48a0b146102ce575b600080fd5b34801561021557600080fd5b50610230600480360381019061022b919061341d565b61096c565b60405161023f93929190613504565b60405180910390f35b34801561025457600080fd5b5061026f600480360381019061026a9190613578565b610a4b565b60405161027e939291906135b4565b60405180910390f35b34801561029357600080fd5b506102ae60048036038101906102a99190613578565b610aa2565b6040516102c59b9a999897969594939291906135eb565b60405180910390f35b3480156102da57600080fd5b506102f560048036038101906102f091906136a4565b610c39565b6040516103039291906136e4565b60405180910390f35b34801561031857600080fd5b50610333600480360381019061032e9190613578565b610d8a565b005b34801561034157600080fd5b5061035c6004803603810190610357919061371b565b611059565b604051610369919061375b565b60405180910390f35b34801561037e57600080fd5b506103996004803603810190610394919061341d565b6110b7565b6040516103a69190613776565b60405180910390f35b3480156103bb57600080fd5b506103d660048036038101906103d19190613578565b61110e565b6040516103e3919061384f565b60405180910390f35b3480156103f857600080fd5b506104016111b2565b60405161040f92919061397d565b60405180910390f35b34801561042457600080fd5b5061043f600480360381019061043a9190613578565b611434565b60405161044c9190613776565b60405180910390f35b34801561046157600080fd5b5061047c60048036038101906104779190613578565b611466565b60405161048991906139b4565b60405180910390f35b34801561049e57600080fd5b506104a76114a5565b6040516104b4919061375b565b60405180910390f35b3480156104c957600080fd5b506104d26114af565b6040516104df919061375b565b60405180910390f35b3480156104f457600080fd5b5061050f600480360381019061050a919061341d565b6114b5565b60405161051c91906139cf565b60405180910390f35b34801561053157600080fd5b5061054c60048036038101906105479190613578565b611555565b60405161055991906139cf565b60405180910390f35b34801561056e57600080fd5b5061058960048036038101906105849190613578565b6115fa565b6040516105969190613776565b60405180910390f35b3480156105ab57600080fd5b506105c660048036038101906105c19190613578565b611659565b005b3480156105d457600080fd5b506105ef60048036038101906105ea91906136a4565b61168b565b6040516105fc9190613776565b60405180910390f35b34801561061157600080fd5b5061062c60048036038101906106279190613578565b6116c4565b6040516106399190613776565b60405180910390f35b34801561064e57600080fd5b5061066960048036038101906106649190613b26565b6116fb565b005b34801561067757600080fd5b50610692600480360381019061068d9190613b82565b611831565b005b3480156106a057600080fd5b506106bb60048036038101906106b69190613578565b611a4f565b005b3480156106c957600080fd5b506106e460048036038101906106df9190613578565b611c89565b005b3480156106f257600080fd5b5061070d60048036038101906107089190613578565b611ed3565b60405161071a9190613e02565b60405180910390f35b61073d60048036038101906107389190613578565b612142565b005b34801561074b57600080fd5b506107666004803603810190610761919061341d565b6123ee565b60405161077391906139cf565b60405180910390f35b34801561078857600080fd5b506107a3600480360381019061079e919061341d565b6124bf565b6040516107b09190613776565b60405180910390f35b3480156107c557600080fd5b506107e060048036038101906107db9190613578565b61250b565b6040516107f296959493929190613e24565b60405180910390f35b34801561080757600080fd5b50610822600480360381019061081d9190613578565b6126e9565b60405161082f91906139cf565b60405180910390f35b34801561084457600080fd5b5061085f600480360381019061085a9190613578565b612789565b60405161086c9190613776565b60405180910390f35b34801561088157600080fd5b5061089c60048036038101906108979190613e93565b6127f3565b005b3480156108aa57600080fd5b506108c560048036038101906108c09190613eef565b6129c5565b005b3480156108d357600080fd5b506108ee60048036038101906108e99190613578565b612c4f565b6040516108fb9190613776565b60405180910390f35b34801561091057600080fd5b5061092b6004803603810190610926919061341d565b612c93565b60405161093a93929190613504565b60405180910390f35b34801561094f57600080fd5b5061096a6004803603810190610965919061401e565b612e05565b005b60006020528060005260406000206000915090508060000160009054906101000a900473ffffffffffffffffffffffffffffffffffffffff16908060010180546109b590614108565b80601f01602080910402602001604051908101604052809291908181526020018280546109e190614108565b8015610a2e5780601f10610a0357610100808354040283529160200191610a2e565b820191906000526020600020905b815481529060010190602001808311610a1157829003601f168201915b5050505050908060020160009054906101000a900460ff16905083565b60008060006001600085815260200190815260200160002060040154600160008681526020019081526020016000206007015460016000878152602001908152602001600020600801549250925092509193909250565b60016020528060005260406000206000915090508060000160009054906101000a900473ffffffffffffffffffffffffffffffffffffffff1690806001015490806002018054610af190614108565b80601f0160208091040260200160405190810160405280929190818152602001828054610b1d90614108565b8015610b6a5780601f10610b3f57610100808354040283529160200191610b6a565b820191906000526020600020905b815481529060010190602001808311610b4d57829003601f168201915b505050505090806003018054610b7f90614108565b80601f0160208091040260200160405190810160405280929190818152602001828054610bab90614108565b8015610bf85780601f10610bcd57610100808354040283529160200191610bf8565b820191906000526020600020905b815481529060010190602001808311610bdb57829003601f168201915b5050505050908060040154908060050154908060060154908060070154908060080154908060090160009054906101000a900460ff169080600d015490508b565b60036020528160005260406000208181548110610c5557600080fd5b906000526020600020906003020160009150915050806000018054610c7990614108565b80601f0160208091040260200160405190810160405280929190818152602001828054610ca590614108565b8015610cf25780601f10610cc757610100808354040283529160200191610cf2565b820191906000526020600020905b815481529060010190602001808311610cd557829003601f168201915b505050505090806001018054610d0790614108565b80601f0160208091040260200160405190810160405280929190818152602001828054610d3390614108565b8015610d805780601f10610d5557610100808354040283529160200191610d80565b820191906000526020600020905b815481529060010190602001808311610d6357829003601f168201915b5050505050905082565b806001600082815260200190815260200160002060000160009054906101000a900473ffffffffffffffffffffffffffffffffffffffff1673ffffffffffffffffffffffffffffffffffffffff163373ffffffffffffffffffffffffffffffffffffffff1614610e2f576040517f08c379a0000000000000000000000000000000000000000000000000000000008152600401610e26906141ab565b60405180910390fd5b60006001600084815260200190815260200160002090508060000160009054906101000a900473ffffffffffffffffffffffffffffffffffffffff1673ffffffffffffffffffffffffffffffffffffffff163373ffffffffffffffffffffffffffffffffffffffff1614610ed8576040517f08c379a0000000000000000000000000000000000000000000000000000000008152600401610ecf90614217565b60405180910390fd5b8060050154421015610f1f576040517f08c379a0000000000000000000000000000000000000000000000000000000008152600401610f1690614283565b60405180910390fd5b60028160080154610f309190614301565b81600d015411610f75576040517f08c379a0000000000000000000000000000000000000000000000000000000008152600401610f6c906143a4565b60405180910390fd5b60008160070154905060008111610fc1576040517f08c379a0000000000000000000000000000000000000000000000000000000008152600401610fb890614410565b60405180910390fd5b6000826007018190555060008260090160006101000a81548160ff0219169083151502179055508160000160009054906101000a900473ffffffffffffffffffffffffffffffffffffffff1673ffffffffffffffffffffffffffffffffffffffff166108fc829081150290604051600060405180830381858888f19350505050158015611052573d6000803e3d6000fd5b5050505050565b600060016000848152602001908152602001600020600a0160008373ffffffffffffffffffffffffffffffffffffffff1673ffffffffffffffffffffffffffffffffffffffff16815260200190815260200160002054905092915050565b600080600460008473ffffffffffffffffffffffffffffffffffffffff1673ffffffffffffffffffffffffffffffffffffffff168152602001908152602001600020805461110490614108565b9050119050919050565b606060016000838152602001908152602001600020600c018054806020026020016040519081016040528092919081815260200182805480156111a657602002820191906000526020600020905b8160009054906101000a900473ffffffffffffffffffffffffffffffffffffffff1673ffffffffffffffffffffffffffffffffffffffff168152602001906001019080831161115c575b50505050509050919050565b6060806000600580549050905060008167ffffffffffffffff8111156111db576111da6139fb565b5b6040519080825280602002602001820160405280156112095781602001602082028036833780820191505090505b50905060008267ffffffffffffffff811115611228576112276139fb565b5b60405190808252806020026020018201604052801561125b57816020015b60608152602001906001900390816112465790505b50905060005b83811015611426576005818154811061127d5761127c614430565b5b9060005260206000200160009054906101000a900473ffffffffffffffffffffffffffffffffffffffff168382815181106112bb576112ba614430565b5b602002602001019073ffffffffffffffffffffffffffffffffffffffff16908173ffffffffffffffffffffffffffffffffffffffff1681525050600460006005838154811061130d5761130c614430565b5b9060005260206000200160009054906101000a900473ffffffffffffffffffffffffffffffffffffffff1673ffffffffffffffffffffffffffffffffffffffff1673ffffffffffffffffffffffffffffffffffffffff168152602001908152602001600020805461137d90614108565b80601f01602080910402602001604051908101604052809291908181526020018280546113a990614108565b80156113f65780601f106113cb576101008083540402835291602001916113f6565b820191906000526020600020905b8154815290600101906020018083116113d957829003601f168201915b505050505082828151811061140e5761140d614430565b5b60200260200101819052508080600101915050611261565b508181945094505050509091565b6000806001600084815260200190815260200160002090508060090160009054906101000a900460ff16915050919050565b6005818154811061147657600080fd5b906000526020600020016000915054906101000a900473ffffffffffffffffffffffffffffffffffffffff1681565b6000600654905090565b60065481565b600460205280600052604060002060009150905080546114d490614108565b80601f016020809104026020016040519081016040528092919081815260200182805461150090614108565b801561154d5780601f106115225761010080835404028352916020019161154d565b820191906000526020600020905b81548152906001019060200180831161153057829003601f168201915b505050505081565b606060026000838152602001908152602001600020805461157590614108565b80601f01602080910402602001604051908101604052809291908181526020018280546115a190614108565b80156115ee5780601f106115c3576101008083540402835291602001916115ee565b820191906000526020600020905b8154815290600101906020018083116115d157829003601f168201915b50505050509050919050565b60008060016000848152602001908152602001600020600a0160003373ffffffffffffffffffffffffffffffffffffffff1673ffffffffffffffffffffffffffffffffffffffff16815260200190815260200160002054119050919050565b60006001600083815260200190815260200160002060090160006101000a81548160ff02191690831515021790555050565b600080600160008581526020019081526020016000209050806005015483106116b85760019150506116be565b60009150505b92915050565b600080600160008481526020019081526020016000209050600281600801546116ed9190614301565b81600d015411915050919050565b7370997970c51812dc3a010c7d01b50e0d17dc79c873ffffffffffffffffffffffffffffffffffffffff163373ffffffffffffffffffffffffffffffffffffffff161461177d576040517f08c379a0000000000000000000000000000000000000000000000000000000008152600401611774906144ab565b60405180910390fd5b80600460008473ffffffffffffffffffffffffffffffffffffffff1673ffffffffffffffffffffffffffffffffffffffff16815260200190815260200160002090816117c99190614677565b506005829080600181540180825580915050600190039060005260206000200160009091909190916101000a81548173ffffffffffffffffffffffffffffffffffffffff021916908373ffffffffffffffffffffffffffffffffffffffff1602179055505050565b6000600460003373ffffffffffffffffffffffffffffffffffffffff1673ffffffffffffffffffffffffffffffffffffffff168152602001908152602001600020805461187d90614108565b9050116118bf576040517f08c379a00000000000000000000000000000000000000000000000000000000081526004016118b690614795565b60405180910390fd5b6000603c836118ce91906147b5565b610e10856118dc91906147b5565b62015180876118eb91906147b5565b6118f591906147f7565b6118ff91906147f7565b905060008111611944576040517f08c379a000000000000000000000000000000000000000000000000000000000815260040161193b9061489d565b60405180910390fd5b6000814261195291906147f7565b9050600060016000600654815260200190815260200160002090506006548160010181905550898160020190816119899190614677565b508881600301908161199b9190614677565b508781600401819055508181600501819055508381600601819055506000816007018190555060008160080181905550338160000160006101000a81548173ffffffffffffffffffffffffffffffffffffffff021916908373ffffffffffffffffffffffffffffffffffffffff16021790555060018160090160006101000a81548160ff02191690831515021790555060066000815480929190611a3e906148bd565b919050555050505050505050505050565b80600060016000838152602001908152602001600020600a0160003373ffffffffffffffffffffffffffffffffffffffff1673ffffffffffffffffffffffffffffffffffffffff1681526020019081526020016000205411611ae6576040517f08c379a0000000000000000000000000000000000000000000000000000000008152600401611add90614977565b60405180910390fd5b6000600160008481526020019081526020016000209050600081600a0160003373ffffffffffffffffffffffffffffffffffffffff1673ffffffffffffffffffffffffffffffffffffffff1681526020019081526020016000205411611b81576040517f08c379a0000000000000000000000000000000000000000000000000000000008152600401611b78906149e3565b60405180910390fd5b80600b0160003373ffffffffffffffffffffffffffffffffffffffff1673ffffffffffffffffffffffffffffffffffffffff16815260200190815260200160002060009054906101000a900460ff1615611c10576040517f08c379a0000000000000000000000000000000000000000000000000000000008152600401611c0790614a4f565b60405180910390fd5b600181600b0160003373ffffffffffffffffffffffffffffffffffffffff1673ffffffffffffffffffffffffffffffffffffffff16815260200190815260200160002060006101000a81548160ff02191690831515021790555080600d016000815480929190611c7f906148bd565b9190505550505050565b80600060016000838152602001908152602001600020600a0160003373ffffffffffffffffffffffffffffffffffffffff1673ffffffffffffffffffffffffffffffffffffffff1681526020019081526020016000205411611d20576040517f08c379a0000000000000000000000000000000000000000000000000000000008152600401611d1790614977565b60405180910390fd5b6000600160008481526020019081526020016000209050600081600a0160003373ffffffffffffffffffffffffffffffffffffffff1673ffffffffffffffffffffffffffffffffffffffff16815260200190815260200160002054905060008111611dc0576040517f08c379a0000000000000000000000000000000000000000000000000000000008152600401611db790614ae1565b60405180910390fd5b611dc9846116c4565b1580611ddb5750611dd984612c4f565b155b611e1a576040517f08c379a0000000000000000000000000000000000000000000000000000000008152600401611e1190614b73565b60405180910390fd5b3373ffffffffffffffffffffffffffffffffffffffff166108fc829081150290604051600060405180830381858888f19350505050158015611e60573d6000803e3d6000fd5b5080826007016000828254611e759190614b93565b92505081905550600082600a0160003373ffffffffffffffffffffffffffffffffffffffff1673ffffffffffffffffffffffffffffffffffffffff16815260200190815260200160002081905550611ecd8433613064565b50505050565b606060036000838152602001908152602001600020805480602002602001604051908101604052809291908181526020016000905b828210156121375783829060005260206000209060030201604051806060016040529081600082018054611f3b90614108565b80601f0160208091040260200160405190810160405280929190818152602001828054611f6790614108565b8015611fb45780601f10611f8957610100808354040283529160200191611fb4565b820191906000526020600020905b815481529060010190602001808311611f9757829003601f168201915b50505050508152602001600182018054611fcd90614108565b80601f0160208091040260200160405190810160405280929190818152602001828054611ff990614108565b80156120465780601f1061201b57610100808354040283529160200191612046565b820191906000526020600020905b81548152906001019060200180831161202957829003601f168201915b5050505050815260200160028201805480602002602001604051908101604052809291908181526020016000905b8282101561212057838290600052602060002001805461209390614108565b80601f01602080910402602001604051908101604052809291908181526020018280546120bf90614108565b801561210c5780601f106120e15761010080835404028352916020019161210c565b820191906000526020600020905b8154815290600101906020018083116120ef57829003601f168201915b505050505081526020019060010190612074565b505050508152505081526020019060010190611f08565b505050509050919050565b600160008281526020019081526020016000206006015434101561219b576040517f08c379a000000000000000000000000000000000000000000000000000000000815260040161219290614c39565b60405180910390fd5b600160008281526020019081526020016000206005015442106121f3576040517f08c379a00000000000000000000000000000000000000000000000000000000081526004016121ea90614ca5565b60405180910390fd5b6001600082815260200190815260200160002060000160009054906101000a900473ffffffffffffffffffffffffffffffffffffffff1673ffffffffffffffffffffffffffffffffffffffff163373ffffffffffffffffffffffffffffffffffffffff1603612297576040517f08c379a000000000000000000000000000000000000000000000000000000000815260040161228e90614d11565b60405180910390fd5b6000600160008381526020019081526020016000209050600081600a0160003373ffffffffffffffffffffffffffffffffffffffff1673ffffffffffffffffffffffffffffffffffffffff16815260200190815260200160002054036123775780600c01339080600181540180825580915050600190039060005260206000200160009091909190916101000a81548173ffffffffffffffffffffffffffffffffffffffff021916908373ffffffffffffffffffffffffffffffffffffffff160217905550806008016000815480929190612371906148bd565b91905055505b3481600a0160003373ffffffffffffffffffffffffffffffffffffffff1673ffffffffffffffffffffffffffffffffffffffff16815260200190815260200160002060008282546123c891906147f7565b92505081905550348160070160008282546123e391906147f7565b925050819055505050565b6060600460008373ffffffffffffffffffffffffffffffffffffffff1673ffffffffffffffffffffffffffffffffffffffff168152602001908152602001600020805461243a90614108565b80601f016020809104026020016040519081016040528092919081815260200182805461246690614108565b80156124b35780601f10612488576101008083540402835291602001916124b3565b820191906000526020600020905b81548152906001019060200180831161249657829003601f168201915b50505050509050919050565b60007370997970c51812dc3a010c7d01b50e0d17dc79c873ffffffffffffffffffffffffffffffffffffffff168273ffffffffffffffffffffffffffffffffffffffff16149050919050565b6000806060806000806001600088815260200190815260200160002060000160009054906101000a900473ffffffffffffffffffffffffffffffffffffffff166001600089815260200190815260200160002060010154600160008a8152602001908152602001600020600201600160008b8152602001908152602001600020600301600160008c815260200190815260200160002060060154600160008d8152602001908152602001600020600501548380546125c890614108565b80601f01602080910402602001604051908101604052809291908181526020018280546125f490614108565b80156126415780601f1061261657610100808354040283529160200191612641565b820191906000526020600020905b81548152906001019060200180831161262457829003601f168201915b5050505050935082805461265490614108565b80601f016020809104026020016040519081016040528092919081815260200182805461268090614108565b80156126cd5780601f106126a2576101008083540402835291602001916126cd565b820191906000526020600020905b8154815290600101906020018083116126b057829003601f168201915b5050505050925095509550955095509550955091939550919395565b6002602052806000526040600020600091509050805461270890614108565b80601f016020809104026020016040519081016040528092919081815260200182805461273490614108565b80156127815780601f1061275657610100808354040283529160200191612781565b820191906000526020600020905b81548152906001019060200180831161276457829003601f168201915b505050505081565b600060016000838152602001908152602001600020600b0160003373ffffffffffffffffffffffffffffffffffffffff1673ffffffffffffffffffffffffffffffffffffffff16815260200190815260200160002060009054906101000a900460ff169050919050565b816001600082815260200190815260200160002060000160009054906101000a900473ffffffffffffffffffffffffffffffffffffffff1673ffffffffffffffffffffffffffffffffffffffff163373ffffffffffffffffffffffffffffffffffffffff1614612898576040517f08c379a000000000000000000000000000000000000000000000000000000000815260040161288f906141ab565b60405180910390fd5b6001600084815260200190815260200160002060090160009054906101000a900460ff166128fb576040517f08c379a00000000000000000000000000000000000000000000000000000000081526004016128f290614d7d565b60405180910390fd5b6001600084815260200190815260200160002060000160009054906101000a900473ffffffffffffffffffffffffffffffffffffffff1673ffffffffffffffffffffffffffffffffffffffff163373ffffffffffffffffffffffffffffffffffffffff161461299f576040517f08c379a000000000000000000000000000000000000000000000000000000000815260040161299690614de9565b60405180910390fd5b816002600085815260200190815260200160002090816129bf9190614677565b50505050565b6000600460003373ffffffffffffffffffffffffffffffffffffffff1673ffffffffffffffffffffffffffffffffffffffff1681526020019081526020016000208054612a1190614108565b905011612a53576040517f08c379a0000000000000000000000000000000000000000000000000000000008152600401612a4a90614795565b60405180910390fd5b600073ffffffffffffffffffffffffffffffffffffffff166000803373ffffffffffffffffffffffffffffffffffffffff1673ffffffffffffffffffffffffffffffffffffffff16815260200190815260200160002060000160009054906101000a900473ffffffffffffffffffffffffffffffffffffffff1673ffffffffffffffffffffffffffffffffffffffff1614612b23576040517f08c379a0000000000000000000000000000000000000000000000000000000008152600401612b1a90614e55565b60405180910390fd5b336000803373ffffffffffffffffffffffffffffffffffffffff1673ffffffffffffffffffffffffffffffffffffffff16815260200190815260200160002060000160006101000a81548173ffffffffffffffffffffffffffffffffffffffff021916908373ffffffffffffffffffffffffffffffffffffffff160217905550806000803373ffffffffffffffffffffffffffffffffffffffff1673ffffffffffffffffffffffffffffffffffffffff1681526020019081526020016000206001019081612bf19190614677565b5060016000803373ffffffffffffffffffffffffffffffffffffffff1673ffffffffffffffffffffffffffffffffffffffff16815260200190815260200160002060020160006101000a81548160ff02191690831515021790555050565b600080600160008481526020019081526020016000209050606460508260040154612c7a91906147b5565b612c849190614301565b81600701541015915050919050565b600060606000806000808673ffffffffffffffffffffffffffffffffffffffff1673ffffffffffffffffffffffffffffffffffffffff1681526020019081526020016000206040518060600160405290816000820160009054906101000a900473ffffffffffffffffffffffffffffffffffffffff1673ffffffffffffffffffffffffffffffffffffffff1673ffffffffffffffffffffffffffffffffffffffff168152602001600182018054612d4990614108565b80601f0160208091040260200160405190810160405280929190818152602001828054612d7590614108565b8015612dc25780601f10612d9757610100808354040283529160200191612dc2565b820191906000526020600020905b815481529060010190602001808311612da557829003601f168201915b505050505081526020016002820160009054906101000a900460ff1615151515815250509050806000015181602001518260400151935093509350509193909250565b836001600082815260200190815260200160002060000160009054906101000a900473ffffffffffffffffffffffffffffffffffffffff1673ffffffffffffffffffffffffffffffffffffffff163373ffffffffffffffffffffffffffffffffffffffff1614612eaa576040517f08c379a0000000000000000000000000000000000000000000000000000000008152600401612ea1906141ab565b60405180910390fd5b6001600086815260200190815260200160002060090160009054906101000a900460ff16612f0d576040517f08c379a0000000000000000000000000000000000000000000000000000000008152600401612f0490614d7d565b60405180910390fd5b6001600086815260200190815260200160002060000160009054906101000a900473ffffffffffffffffffffffffffffffffffffffff1673ffffffffffffffffffffffffffffffffffffffff163373ffffffffffffffffffffffffffffffffffffffff1614612fb1576040517f08c379a0000000000000000000000000000000000000000000000000000000008152600401612fa890614ec1565b60405180910390fd5b612fb96132b0565b8481600001819052508381602001819052508281604001819052506003600087815260200190815260200160002081908060018154018082558091505060019003906000526020600020906003020160009091909190915060008201518160000190816130269190614677565b50602082015181600101908161303c9190614677565b5060408201518160020190805190602001906130599291906132d1565b505050505050505050565b60006001600084815260200190815260200160002090506000806000905060005b83600c0180549050811015613120578473ffffffffffffffffffffffffffffffffffffffff1684600c0182815481106130c1576130c0614430565b5b9060005260206000200160009054906101000a900473ffffffffffffffffffffffffffffffffffffffff1673ffffffffffffffffffffffffffffffffffffffff16036131135780925060019150613120565b8080600101915050613085565b5080613161576040517f08c379a000000000000000000000000000000000000000000000000000000000815260040161315890614f2d565b60405180910390fd5b6000600184600c01805490506131779190614b93565b905083600c01818154811061318f5761318e614430565b5b9060005260206000200160009054906101000a900473ffffffffffffffffffffffffffffffffffffffff1684600c0184815481106131d0576131cf614430565b5b9060005260206000200160006101000a81548173ffffffffffffffffffffffffffffffffffffffff021916908373ffffffffffffffffffffffffffffffffffffffff16021790555083600c0180548061322c5761322b614f4d565b5b6001900381819060005260206000200160006101000a81549073ffffffffffffffffffffffffffffffffffffffff02191690559055600084600a0160008773ffffffffffffffffffffffffffffffffffffffff1673ffffffffffffffffffffffffffffffffffffffff16815260200190815260200160002081905550505050505050565b60405180606001604052806060815260200160608152602001606081525090565b828054828255906000526020600020908101928215613319579160200282015b828111156133185782518290816133089190614677565b50916020019190600101906132f1565b5b509050613326919061332a565b5090565b5b8082111561334a5760008181613341919061334e565b5060010161332b565b5090565b50805461335a90614108565b6000825580601f1061336c575061338b565b601f01602090049060005260206000209081019061338a919061338e565b5b50565b5b808211156133a757600081600090555060010161338f565b5090565b6000604051905090565b600080fd5b600080fd5b600073ffffffffffffffffffffffffffffffffffffffff82169050919050565b60006133ea826133bf565b9050919050565b6133fa816133df565b811461340557600080fd5b50565b600081359050613417816133f1565b92915050565b600060208284031215613433576134326133b5565b5b600061344184828501613408565b91505092915050565b613453816133df565b82525050565b600081519050919050565b600082825260208201905092915050565b60005b83811015613493578082015181840152602081019050613478565b60008484015250505050565b6000601f19601f8301169050919050565b60006134bb82613459565b6134c58185613464565b93506134d5818560208601613475565b6134de8161349f565b840191505092915050565b60008115159050919050565b6134fe816134e9565b82525050565b6000606082019050613519600083018661344a565b818103602083015261352b81856134b0565b905061353a60408301846134f5565b949350505050565b6000819050919050565b61355581613542565b811461356057600080fd5b50565b6000813590506135728161354c565b92915050565b60006020828403121561358e5761358d6133b5565b5b600061359c84828501613563565b91505092915050565b6135ae81613542565b82525050565b60006060820190506135c960008301866135a5565b6135d660208301856135a5565b6135e360408301846135a5565b949350505050565b600061016082019050613601600083018e61344a565b61360e602083018d6135a5565b8181036040830152613620818c6134b0565b90508181036060830152613634818b6134b0565b9050613643608083018a6135a5565b61365060a08301896135a5565b61365d60c08301886135a5565b61366a60e08301876135a5565b6136786101008301866135a5565b6136866101208301856134f5565b6136946101408301846135a5565b9c9b505050505050505050505050565b600080604083850312156136bb576136ba6133b5565b5b60006136c985828601613563565b92505060206136da85828601613563565b9150509250929050565b600060408201905081810360008301526136fe81856134b0565b9050818103602083015261371281846134b0565b90509392505050565b60008060408385031215613732576137316133b5565b5b600061374085828601613563565b925050602061375185828601613408565b9150509250929050565b600060208201905061377060008301846135a5565b92915050565b600060208201905061378b60008301846134f5565b92915050565b600081519050919050565b600082825260208201905092915050565b6000819050602082019050919050565b6137c6816133df565b82525050565b60006137d883836137bd565b60208301905092915050565b6000602082019050919050565b60006137fc82613791565b613806818561379c565b9350613811836137ad565b8060005b8381101561384257815161382988826137cc565b9750613834836137e4565b925050600181019050613815565b5085935050505092915050565b6000602082019050818103600083015261386981846137f1565b905092915050565b600081519050919050565b600082825260208201905092915050565b6000819050602082019050919050565b600082825260208201905092915050565b60006138b982613459565b6138c3818561389d565b93506138d3818560208601613475565b6138dc8161349f565b840191505092915050565b60006138f383836138ae565b905092915050565b6000602082019050919050565b600061391382613871565b61391d818561387c565b93508360208202850161392f8561388d565b8060005b8581101561396b578484038952815161394c85826138e7565b9450613957836138fb565b925060208a01995050600181019050613933565b50829750879550505050505092915050565b6000604082019050818103600083015261399781856137f1565b905081810360208301526139ab8184613908565b90509392505050565b60006020820190506139c9600083018461344a565b92915050565b600060208201905081810360008301526139e981846134b0565b905092915050565b600080fd5b600080fd5b7f4e487b7100000000000000000000000000000000000000000000000000000000600052604160045260246000fd5b613a338261349f565b810181811067ffffffffffffffff82111715613a5257613a516139fb565b5b80604052505050565b6000613a656133ab565b9050613a718282613a2a565b919050565b600067ffffffffffffffff821115613a9157613a906139fb565b5b613a9a8261349f565b9050602081019050919050565b82818337600083830152505050565b6000613ac9613ac484613a76565b613a5b565b905082815260208101848484011115613ae557613ae46139f6565b5b613af0848285613aa7565b509392505050565b600082601f830112613b0d57613b0c6139f1565b5b8135613b1d848260208601613ab6565b91505092915050565b60008060408385031215613b3d57613b3c6133b5565b5b6000613b4b85828601613408565b925050602083013567ffffffffffffffff811115613b6c57613b6b6133ba565b5b613b7885828601613af8565b9150509250929050565b600080600080600080600060e0888a031215613ba157613ba06133b5565b5b600088013567ffffffffffffffff811115613bbf57613bbe6133ba565b5b613bcb8a828b01613af8565b975050602088013567ffffffffffffffff811115613bec57613beb6133ba565b5b613bf88a828b01613af8565b9650506040613c098a828b01613563565b9550506060613c1a8a828b01613563565b9450506080613c2b8a828b01613563565b93505060a0613c3c8a828b01613563565b92505060c0613c4d8a828b01613563565b91505092959891949750929550565b600081519050919050565b600082825260208201905092915050565b6000819050602082019050919050565b600082825260208201905092915050565b6000613ca482613871565b613cae8185613c88565b935083602082028501613cc08561388d565b8060005b85811015613cfc5784840389528151613cdd85826138e7565b9450613ce8836138fb565b925060208a01995050600181019050613cc4565b50829750879550505050505092915050565b60006060830160008301518482036000860152613d2b82826138ae565b91505060208301518482036020860152613d4582826138ae565b91505060408301518482036040860152613d5f8282613c99565b9150508091505092915050565b6000613d788383613d0e565b905092915050565b6000602082019050919050565b6000613d9882613c5c565b613da28185613c67565b935083602082028501613db485613c78565b8060005b85811015613df05784840389528151613dd18582613d6c565b9450613ddc83613d80565b925060208a01995050600181019050613db8565b50829750879550505050505092915050565b60006020820190508181036000830152613e1c8184613d8d565b905092915050565b600060c082019050613e39600083018961344a565b613e4660208301886135a5565b8181036040830152613e5881876134b0565b90508181036060830152613e6c81866134b0565b9050613e7b60808301856135a5565b613e8860a08301846135a5565b979650505050505050565b60008060408385031215613eaa57613ea96133b5565b5b6000613eb885828601613563565b925050602083013567ffffffffffffffff811115613ed957613ed86133ba565b5b613ee585828601613af8565b9150509250929050565b600060208284031215613f0557613f046133b5565b5b600082013567ffffffffffffffff811115613f2357613f226133ba565b5b613f2f84828501613af8565b91505092915050565b600067ffffffffffffffff821115613f5357613f526139fb565b5b602082029050602081019050919050565b600080fd5b6000613f7c613f7784613f38565b613a5b565b90508083825260208201905060208402830185811115613f9f57613f9e613f64565b5b835b81811015613fe657803567ffffffffffffffff811115613fc457613fc36139f1565b5b808601613fd18982613af8565b85526020850194505050602081019050613fa1565b5050509392505050565b600082601f830112614005576140046139f1565b5b8135614015848260208601613f69565b91505092915050565b60008060008060808587031215614038576140376133b5565b5b600061404687828801613563565b945050602085013567ffffffffffffffff811115614067576140666133ba565b5b61407387828801613af8565b935050604085013567ffffffffffffffff811115614094576140936133ba565b5b6140a087828801613af8565b925050606085013567ffffffffffffffff8111156140c1576140c06133ba565b5b6140cd87828801613ff0565b91505092959194509250565b7f4e487b7100000000000000000000000000000000000000000000000000000000600052602260045260246000fd5b6000600282049050600182168061412057607f821691505b602082108103614133576141326140d9565b5b50919050565b7f4f6e6c79206f776e65722063616e2063616c6c20746869732066756e6374696f60008201527f6e00000000000000000000000000000000000000000000000000000000000000602082015250565b6000614195602183613464565b91506141a082614139565b604082019050919050565b600060208201905081810360008301526141c481614188565b9050919050565b7f4f6e6c7920746865206f776e65722063616e2077697468647261770000000000600082015250565b6000614201601b83613464565b915061420c826141cb565b602082019050919050565b60006020820190508181036000830152614230816141f4565b9050919050565b7f446561646c696e65206e6f742072656163686564000000000000000000000000600082015250565b600061426d601483613464565b915061427882614237565b602082019050919050565b6000602082019050818103600083015261429c81614260565b9050919050565b7f4e487b7100000000000000000000000000000000000000000000000000000000600052601260045260246000fd5b7f4e487b7100000000000000000000000000000000000000000000000000000000600052601160045260246000fd5b600061430c82613542565b915061431783613542565b925082614327576143266142a3565b5b828204905092915050565b7f566f74657320617265206c657373207468616e20353025206f6620636f6e747260008201527f696275746f727300000000000000000000000000000000000000000000000000602082015250565b600061438e602783613464565b915061439982614332565b604082019050919050565b600060208201905081810360008301526143bd81614381565b9050919050565b7f4e6f2066756e647320617661696c61626c650000000000000000000000000000600082015250565b60006143fa601283613464565b9150614405826143c4565b602082019050919050565b60006020820190508181036000830152614429816143ed565b9050919050565b7f4e487b7100000000000000000000000000000000000000000000000000000000600052603260045260246000fd5b7f4e6f7420616e2061646d696e0000000000000000000000000000000000000000600082015250565b6000614495600c83613464565b91506144a08261445f565b602082019050919050565b600060208201905081810360008301526144c481614488565b9050919050565b60008190508160005260206000209050919050565b60006020601f8301049050919050565b600082821b905092915050565b60006008830261452d7fffffffffffffffffffffffffffffffffffffffffffffffffffffffffffffffff826144f0565b61453786836144f0565b95508019841693508086168417925050509392505050565b6000819050919050565b600061457461456f61456a84613542565b61454f565b613542565b9050919050565b6000819050919050565b61458e83614559565b6145a261459a8261457b565b8484546144fd565b825550505050565b600090565b6145b76145aa565b6145c2818484614585565b505050565b5b818110156145e6576145db6000826145af565b6001810190506145c8565b5050565b601f82111561462b576145fc816144cb565b614605846144e0565b81016020851015614614578190505b614628614620856144e0565b8301826145c7565b50505b505050565b600082821c905092915050565b600061464e60001984600802614630565b1980831691505092915050565b6000614667838361463d565b9150826002028217905092915050565b61468082613459565b67ffffffffffffffff811115614699576146986139fb565b5b6146a38254614108565b6146ae8282856145ea565b600060209050601f8311600181146146e157600084156146cf578287015190505b6146d9858261465b565b865550614741565b601f1984166146ef866144cb565b60005b82811015614717578489015182556001820191506020850194506020810190506146f2565b868310156147345784890151614730601f89168261463d565b8355505b6001600288020188555050505b505050505050565b7f4e6f7420616e20617070726f766564206f776e65720000000000000000000000600082015250565b600061477f601583613464565b915061478a82614749565b602082019050919050565b600060208201905081810360008301526147ae81614772565b9050919050565b60006147c082613542565b91506147cb83613542565b92508282026147d981613542565b915082820484148315176147f0576147ef6142d2565b5b5092915050565b600061480282613542565b915061480d83613542565b9250828201905080821115614825576148246142d2565b5b92915050565b7f546f74616c206475726174696f6e206d7573742062652067726561746572207460008201527f68616e207a65726f000000000000000000000000000000000000000000000000602082015250565b6000614887602883613464565b91506148928261482b565b604082019050919050565b600060208201905081810360008301526148b68161487a565b9050919050565b60006148c882613542565b91507fffffffffffffffffffffffffffffffffffffffffffffffffffffffffffffffff82036148fa576148f96142d2565b5b600182019050919050565b7f4f6e6c7920636f6e7472696275746f72732063616e2063616c6c20746869732060008201527f66756e6374696f6e000000000000000000000000000000000000000000000000602082015250565b6000614961602883613464565b915061496c82614905565b604082019050919050565b6000602082019050818103600083015261499081614954565b9050919050565b7f4f6e6c7920636f6e7472696275746f72732063616e20766f7465000000000000600082015250565b60006149cd601a83613464565b91506149d882614997565b602082019050919050565b600060208201905081810360008301526149fc816149c0565b9050919050565b7f416c726561647920766f74656400000000000000000000000000000000000000600082015250565b6000614a39600d83613464565b9150614a4482614a03565b602082019050919050565b60006020820190508181036000830152614a6881614a2c565b9050919050565b7f596f752068617665206e6f7420636f6e747269627574656420746f207468697360008201527f2063616d706169676e0000000000000000000000000000000000000000000000602082015250565b6000614acb602983613464565b9150614ad682614a6f565b604082019050919050565b60006020820190508181036000830152614afa81614abe565b9050919050565b7f766f7465732061726520696e206661766f72206e6f20726566756e64206f722060008201527f676f616c20726561636865642000000000000000000000000000000000000000602082015250565b6000614b5d602d83613464565b9150614b6882614b01565b604082019050919050565b60006020820190508181036000830152614b8c81614b50565b9050919050565b6000614b9e82613542565b9150614ba983613542565b9250828203905081811115614bc157614bc06142d2565b5b92915050565b7f4d7573742066756e6420616d6f756e742067726561746572207468616e206d6960008201527f6e20636f6e747269627574696f6e000000000000000000000000000000000000602082015250565b6000614c23602e83613464565b9150614c2e82614bc7565b604082019050919050565b60006020820190508181036000830152614c5281614c16565b9050919050565b7f43616d706169676e2068617320656e6465640000000000000000000000000000600082015250565b6000614c8f601283613464565b9150614c9a82614c59565b602082019050919050565b60006020820190508181036000830152614cbe81614c82565b9050919050565b7f596f752061726520616e206f776e657200000000000000000000000000000000600082015250565b6000614cfb601083613464565b9150614d0682614cc5565b602082019050919050565b60006020820190508181036000830152614d2a81614cee565b9050919050565b7f43616d706169676e20646f6573206e6f74206578697374000000000000000000600082015250565b6000614d67601783613464565b9150614d7282614d31565b602082019050919050565b60006020820190508181036000830152614d9681614d5a565b9050919050565b7f4f6e6c79206f776e65722063616e20757064617465206361726420696d616765600082015250565b6000614dd3602083613464565b9150614dde82614d9d565b602082019050919050565b60006020820190508181036000830152614e0281614dc6565b9050919050565b7f4f776e657220616c726561647920657869737473000000000000000000000000600082015250565b6000614e3f601483613464565b9150614e4a82614e09565b602082019050919050565b60006020820190508181036000830152614e6e81614e32565b9050919050565b7f4e6f74206f776e65720000000000000000000000000000000000000000000000600082015250565b6000614eab600983613464565b9150614eb682614e75565b602082019050919050565b60006020820190508181036000830152614eda81614e9e565b9050919050565b7f436f6e7472696275746f72206e6f7420666f756e640000000000000000000000600082015250565b6000614f17601583613464565b9150614f2282614ee1565b602082019050919050565b60006020820190508181036000830152614f4681614f0a565b9050919050565b7f4e487b7100000000000000000000000000000000000000000000000000000000600052603160045260246000fdfea264697066735822122043673ad0b983a344aec262cb04047b73f65de8b00fc38c968aaba6e302e63db864736f6c634300081b0033",
  "linkReferences": {},
  "deployedLinkReferences": {}
}