{
  "_format": "hh-sol-artifact-1",
  "contractName": "CharityDonation",
  "sourceName": "contracts/CharityDonation.sol",
  "abi": [
    {
      "anonymous": false,
      "inputs": [
        {
          "indexed": false,
          "internalType": "uint256",
          "name": "campaignId",
          "type": "uint256"
        },
        {
          "indexed": false,
          "internalType": "string",
          "name": "title",
          "type": "string"
        },
        {
          "indexed": false,
          "internalType": "uint256",
          "name": "goal",
          "type": "uint256"
        },
        {
          "indexed": false,
          "internalType": "uint256",
          "name": "deadline",
          "type": "uint256"
        }
      ],
      "name": "CampaignAdded",
      "type": "event"
    },
    {
      "anonymous": false,
      "inputs": [
        {
          "indexed": false,
          "internalType": "uint256",
          "name": "campaignId",
          "type": "uint256"
        },
        {
          "indexed": false,
          "internalType": "address",
          "name": "contributor",
          "type": "address"
        },
        {
          "indexed": false,
          "internalType": "uint256",
          "name": "amount",
          "type": "uint256"
        }
      ],
      "name": "Funded",
      "type": "event"
    },
    {
      "anonymous": false,
      "inputs": [
        {
          "indexed": false,
          "internalType": "uint256",
          "name": "campaignId",
          "type": "uint256"
        },
        {
          "indexed": false,
          "internalType": "address",
          "name": "owner",
          "type": "address"
        },
        {
          "indexed": false,
          "internalType": "uint256",
          "name": "amount",
          "type": "uint256"
        }
      ],
      "name": "FundsTransferred",
      "type": "event"
    },
    {
      "anonymous": false,
      "inputs": [
        {
          "indexed": true,
          "internalType": "address",
          "name": "ownerAddress",
          "type": "address"
        },
        {
          "indexed": false,
          "internalType": "string",
          "name": "ownerName",
          "type": "string"
        }
      ],
      "name": "OwnerAdded",
      "type": "event"
    },
    {
      "anonymous": false,
      "inputs": [
        {
          "indexed": false,
          "internalType": "uint256",
          "name": "campaignId",
          "type": "uint256"
        },
        {
          "indexed": false,
          "internalType": "address",
          "name": "contributor",
          "type": "address"
        },
        {
          "indexed": false,
          "internalType": "uint256",
          "name": "amount",
          "type": "uint256"
        }
      ],
      "name": "RefundIssued",
      "type": "event"
    },
    {
      "anonymous": false,
      "inputs": [
        {
          "indexed": false,
          "internalType": "uint256",
          "name": "campaignId",
          "type": "uint256"
        },
        {
          "indexed": false,
          "internalType": "address",
          "name": "voter",
          "type": "address"
        }
      ],
      "name": "VoteCasted",
      "type": "event"
    },
    {
      "anonymous": false,
      "inputs": [
        {
          "indexed": false,
          "internalType": "uint256",
          "name": "campaignId",
          "type": "uint256"
        },
        {
          "indexed": false,
          "internalType": "string",
          "name": "description",
          "type": "string"
        }
      ],
      "name": "WithdrawalRequested",
      "type": "event"
    },
    {
      "inputs": [
        {
          "internalType": "address",
          "name": "o",
          "type": "address"
        },
        {
          "internalType": "string",
          "name": "cid",
          "type": "string"
        }
      ],
      "name": "addApprovedOwners",
      "outputs": [],
      "stateMutability": "nonpayable",
      "type": "function"
    },
    {
      "inputs": [
        {
          "internalType": "string",
          "name": "_title",
          "type": "string"
        },
        {
          "internalType": "string",
          "name": "_description",
          "type": "string"
        },
        {
          "internalType": "uint256",
          "name": "_goal",
          "type": "uint256"
        },
        {
          "internalType": "uint256",
          "name": "_days",
          "type": "uint256"
        },
        {
          "internalType": "uint256",
          "name": "_hours",
          "type": "uint256"
        },
        {
          "internalType": "uint256",
          "name": "_minutes",
          "type": "uint256"
        },
        {
          "internalType": "uint256",
          "name": "_minContribution",
          "type": "uint256"
        }
      ],
      "name": "addCampaign",
      "outputs": [],
      "stateMutability": "nonpayable",
      "type": "function"
    },
    {
      "inputs": [
        {
          "internalType": "string",
          "name": "_ownerName",
          "type": "string"
        }
      ],
      "name": "addOwner",
      "outputs": [],
      "stateMutability": "nonpayable",
      "type": "function"
    },
    {
      "inputs": [
        {
          "internalType": "uint256",
          "name": "campaignId",
          "type": "uint256"
        },
        {
          "internalType": "string",
          "name": "updateTitle",
          "type": "string"
        },
        {
          "internalType": "string",
          "name": "updateDescription",
          "type": "string"
        },
        {
          "internalType": "string[]",
          "name": "updateImages",
          "type": "string[]"
        }
      ],
      "name": "addUpdate",
      "outputs": [],
      "stateMutability": "nonpayable",
      "type": "function"
    },
    {
      "inputs": [
        {
          "internalType": "address",
          "name": "",
          "type": "address"
        }
      ],
      "name": "approvedOwners",
      "outputs": [
        {
          "internalType": "string",
          "name": "",
          "type": "string"
        }
      ],
      "stateMutability": "view",
      "type": "function"
    },
    {
      "inputs": [],
      "name": "campaignCount",
      "outputs": [
        {
          "internalType": "uint256",
          "name": "",
          "type": "uint256"
        }
      ],
      "stateMutability": "view",
      "type": "function"
    },
    {
      "inputs": [
        {
          "internalType": "uint256",
          "name": "",
          "type": "uint256"
        }
      ],
      "name": "campaigns",
      "outputs": [
        {
          "internalType": "address",
          "name": "owner",
          "type": "address"
        },
        {
          "internalType": "uint256",
          "name": "id",
          "type": "uint256"
        },
        {
          "internalType": "string",
          "name": "title",
          "type": "string"
        },
        {
          "internalType": "string",
          "name": "description",
          "type": "string"
        },
        {
          "internalType": "uint256",
          "name": "goal",
          "type": "uint256"
        },
        {
          "internalType": "uint256",
          "name": "deadline",
          "type": "uint256"
        },
        {
          "internalType": "uint256",
          "name": "minContribution",
          "type": "uint256"
        },
        {
          "internalType": "uint256",
          "name": "balance",
          "type": "uint256"
        },
        {
          "internalType": "uint256",
          "name": "noOfContributors",
          "type": "uint256"
        },
        {
          "internalType": "bool",
          "name": "exists",
          "type": "bool"
        },
        {
          "internalType": "uint256",
          "name": "votesInFavor",
          "type": "uint256"
        },
        {
          "components": [
            {
              "internalType": "string",
              "name": "reqMsg",
              "type": "string"
            },
            {
              "internalType": "bool",
              "name": "requested",
              "type": "bool"
            }
          ],
          "internalType": "struct CharityDonation.Request",
          "name": "request",
          "type": "tuple"
        }
      ],
      "stateMutability": "view",
      "type": "function"
    },
    {
      "inputs": [
        {
          "internalType": "uint256",
          "name": "",
          "type": "uint256"
        }
      ],
      "name": "cardImage",
      "outputs": [
        {
          "internalType": "string",
          "name": "",
          "type": "string"
        }
      ],
      "stateMutability": "view",
      "type": "function"
    },
    {
      "inputs": [
        {
          "internalType": "address",
          "name": "a",
          "type": "address"
        }
      ],
      "name": "checkIfAdmin",
      "outputs": [
        {
          "internalType": "bool",
          "name": "",
          "type": "bool"
        }
      ],
      "stateMutability": "view",
      "type": "function"
    },
    {
      "inputs": [
        {
          "internalType": "address",
          "name": "o",
          "type": "address"
        }
      ],
      "name": "checkIfApprovedOwner",
      "outputs": [
        {
          "internalType": "bool",
          "name": "",
          "type": "bool"
        }
      ],
      "stateMutability": "view",
      "type": "function"
    },
    {
      "inputs": [
        {
          "internalType": "uint256",
          "name": "campaignId",
          "type": "uint256"
        }
      ],
      "name": "exists",
      "outputs": [
        {
          "internalType": "bool",
          "name": "",
          "type": "bool"
        }
      ],
      "stateMutability": "view",
      "type": "function"
    },
    {
      "inputs": [
        {
          "internalType": "uint256",
          "name": "campaignId",
          "type": "uint256"
        }
      ],
      "name": "fund",
      "outputs": [],
      "stateMutability": "payable",
      "type": "function"
    },
    {
      "inputs": [],
      "name": "getAllApprovedOwners",
      "outputs": [
        {
          "internalType": "address[]",
          "name": "",
          "type": "address[]"
        },
        {
          "internalType": "string[]",
          "name": "",
          "type": "string[]"
        }
      ],
      "stateMutability": "view",
      "type": "function"
    },
    {
      "inputs": [
        {
          "internalType": "uint256",
          "name": "_id",
          "type": "uint256"
        }
      ],
      "name": "getCampaignBasicDetails",
      "outputs": [
        {
          "internalType": "address",
          "name": "owner",
          "type": "address"
        },
        {
          "internalType": "uint256",
          "name": "id",
          "type": "uint256"
        },
        {
          "internalType": "string",
          "name": "title",
          "type": "string"
        },
        {
          "internalType": "string",
          "name": "description",
          "type": "string"
        },
        {
          "internalType": "uint256",
          "name": "minContribution",
          "type": "uint256"
        },
        {
          "internalType": "uint256",
          "name": "deadline",
          "type": "uint256"
        }
      ],
      "stateMutability": "view",
      "type": "function"
    },
    {
      "inputs": [],
      "name": "getCampaignCount",
      "outputs": [
        {
          "internalType": "uint256",
          "name": "",
          "type": "uint256"
        }
      ],
      "stateMutability": "view",
      "type": "function"
    },
    {
      "inputs": [
        {
          "internalType": "uint256",
          "name": "_id",
          "type": "uint256"
        }
      ],
      "name": "getCampaignFinancialDetails",
      "outputs": [
        {
          "internalType": "uint256",
          "name": "goal",
          "type": "uint256"
        },
        {
          "internalType": "uint256",
          "name": "balance",
          "type": "uint256"
        },
        {
          "internalType": "uint256",
          "name": "noOfContributors",
          "type": "uint256"
        }
      ],
      "stateMutability": "view",
      "type": "function"
    },
    {
      "inputs": [
        {
          "internalType": "uint256",
          "name": "_id",
          "type": "uint256"
        }
      ],
      "name": "getCampaignVoteRequestDetails",
      "outputs": [
        {
          "internalType": "bool",
          "name": "requestStatus",
          "type": "bool"
        },
        {
          "internalType": "uint256",
          "name": "votesInFavor",
          "type": "uint256"
        }
      ],
      "stateMutability": "view",
      "type": "function"
    },
    {
      "inputs": [
        {
          "internalType": "uint256",
          "name": "campaignId",
          "type": "uint256"
        }
      ],
      "name": "getCardImage",
      "outputs": [
        {
          "internalType": "string",
          "name": "",
          "type": "string"
        }
      ],
      "stateMutability": "view",
      "type": "function"
    },
    {
      "inputs": [
        {
          "internalType": "address",
          "name": "ad",
          "type": "address"
        }
      ],
      "name": "getCid",
      "outputs": [
        {
          "internalType": "string",
          "name": "",
          "type": "string"
        }
      ],
      "stateMutability": "view",
      "type": "function"
    },
    {
      "inputs": [
        {
          "internalType": "uint256",
          "name": "campaignId",
          "type": "uint256"
        },
        {
          "internalType": "address",
          "name": "contributor",
          "type": "address"
        }
      ],
      "name": "getContributionForAddress",
      "outputs": [
        {
          "internalType": "uint256",
          "name": "",
          "type": "uint256"
        }
      ],
      "stateMutability": "view",
      "type": "function"
    },
    {
      "inputs": [
        {
          "internalType": "uint256",
          "name": "campaignId",
          "type": "uint256"
        }
      ],
      "name": "getContributorsForCampaign",
      "outputs": [
        {
          "internalType": "address[]",
          "name": "",
          "type": "address[]"
        }
      ],
      "stateMutability": "view",
      "type": "function"
    },
    {
      "inputs": [
        {
          "internalType": "uint256",
          "name": "campaignId",
          "type": "uint256"
        }
      ],
      "name": "getContributorsIfVoted",
      "outputs": [
        {
          "internalType": "bool",
          "name": "",
          "type": "bool"
        }
      ],
      "stateMutability": "view",
      "type": "function"
    },
    {
      "inputs": [
        {
          "internalType": "address",
          "name": "ownerAddress",
          "type": "address"
        }
      ],
      "name": "getOwner",
      "outputs": [
        {
          "internalType": "address",
          "name": "",
          "type": "address"
        },
        {
          "internalType": "string",
          "name": "",
          "type": "string"
        },
        {
          "internalType": "bool",
          "name": "",
          "type": "bool"
        }
      ],
      "stateMutability": "view",
      "type": "function"
    },
    {
      "inputs": [
        {
          "internalType": "uint256",
          "name": "campaignId",
          "type": "uint256"
        }
      ],
      "name": "getOwnerBalance",
      "outputs": [
        {
          "internalType": "uint256",
          "name": "",
          "type": "uint256"
        }
      ],
      "stateMutability": "view",
      "type": "function"
    },
    {
      "inputs": [
        {
          "internalType": "uint256",
          "name": "campaignId",
          "type": "uint256"
        }
      ],
      "name": "getUpdates",
      "outputs": [
        {
          "components": [
            {
              "internalType": "string",
              "name": "title",
              "type": "string"
            },
            {
              "internalType": "string",
              "name": "description",
              "type": "string"
            },
            {
              "internalType": "string[]",
              "name": "images",
              "type": "string[]"
            },
            {
              "internalType": "uint256",
              "name": "timestamp",
              "type": "uint256"
            }
          ],
          "internalType": "struct CharityDonation.Update[]",
          "name": "",
          "type": "tuple[]"
        }
      ],
      "stateMutability": "view",
      "type": "function"
    },
    {
      "inputs": [
        {
          "internalType": "uint256",
          "name": "campaignId",
          "type": "uint256"
        }
      ],
      "name": "isContributor",
      "outputs": [
        {
          "internalType": "bool",
          "name": "",
          "type": "bool"
        }
      ],
      "stateMutability": "view",
      "type": "function"
    },
    {
      "inputs": [
        {
          "internalType": "uint256",
          "name": "campaignId",
          "type": "uint256"
        },
        {
          "internalType": "uint256",
          "name": "dead",
          "type": "uint256"
        }
      ],
      "name": "isDeadlineReached",
      "outputs": [
        {
          "internalType": "bool",
          "name": "",
          "type": "bool"
        }
      ],
      "stateMutability": "view",
      "type": "function"
    },
    {
      "inputs": [
        {
          "internalType": "uint256",
          "name": "campaignId",
          "type": "uint256"
        }
      ],
      "name": "isExists",
      "outputs": [],
      "stateMutability": "nonpayable",
      "type": "function"
    },
    {
      "inputs": [
        {
          "internalType": "uint256",
          "name": "campaignId",
          "type": "uint256"
        }
      ],
      "name": "isStoredTimeExpired",
      "outputs": [
        {
          "internalType": "bool",
          "name": "",
          "type": "bool"
        }
      ],
      "stateMutability": "view",
      "type": "function"
    },
    {
      "inputs": [
        {
          "internalType": "uint256",
          "name": "campaignId",
          "type": "uint256"
        }
      ],
      "name": "isVotesInFavour",
      "outputs": [
        {
          "internalType": "bool",
          "name": "",
          "type": "bool"
        }
      ],
      "stateMutability": "view",
      "type": "function"
    },
    {
      "inputs": [
        {
          "internalType": "uint256",
          "name": "",
          "type": "uint256"
        }
      ],
      "name": "ownerArray",
      "outputs": [
        {
          "internalType": "address",
          "name": "",
          "type": "address"
        }
      ],
      "stateMutability": "view",
      "type": "function"
    },
    {
      "inputs": [
        {
          "internalType": "uint256",
          "name": "campaignId",
          "type": "uint256"
        }
      ],
      "name": "ownerWithdraw",
      "outputs": [],
      "stateMutability": "nonpayable",
      "type": "function"
    },
    {
      "inputs": [
        {
          "internalType": "address",
          "name": "",
          "type": "address"
        }
      ],
      "name": "owners",
      "outputs": [
        {
          "internalType": "address",
          "name": "owner",
          "type": "address"
        },
        {
          "internalType": "string",
          "name": "ownerName",
          "type": "string"
        },
        {
          "internalType": "bool",
          "name": "verified",
          "type": "bool"
        }
      ],
      "stateMutability": "view",
      "type": "function"
    },
    {
      "inputs": [
        {
          "internalType": "uint256",
          "name": "campaignId",
          "type": "uint256"
        }
      ],
      "name": "refundMyContribution",
      "outputs": [],
      "stateMutability": "nonpayable",
      "type": "function"
    },
    {
      "inputs": [
        {
          "internalType": "string",
          "name": "_description",
          "type": "string"
        },
        {
          "internalType": "uint256",
          "name": "campaignId",
          "type": "uint256"
        }
      ],
      "name": "requestWithdrawal",
      "outputs": [],
      "stateMutability": "nonpayable",
      "type": "function"
    },
    {
      "inputs": [
        {
          "internalType": "uint256",
          "name": "campaignId",
          "type": "uint256"
        },
        {
          "internalType": "string",
          "name": "imageUrl",
          "type": "string"
        }
      ],
      "name": "updateCardImage",
      "outputs": [],
      "stateMutability": "nonpayable",
      "type": "function"
    },
    {
      "inputs": [
        {
          "internalType": "uint256",
          "name": "",
          "type": "uint256"
        },
        {
          "internalType": "uint256",
          "name": "",
          "type": "uint256"
        }
      ],
      "name": "updates",
      "outputs": [
        {
          "internalType": "string",
          "name": "title",
          "type": "string"
        },
        {
          "internalType": "string",
          "name": "description",
          "type": "string"
        },
        {
          "internalType": "uint256",
          "name": "timestamp",
          "type": "uint256"
        }
      ],
      "stateMutability": "view",
      "type": "function"
    },
    {
      "inputs": [
        {
          "internalType": "uint256",
          "name": "campaignId",
          "type": "uint256"
        }
      ],
      "name": "voteForWithdrawal",
      "outputs": [],
      "stateMutability": "nonpayable",
      "type": "function"
    }
  ],
  "bytecode": "0x60806040526000600655348015601457600080fd5b50615281806100246000396000f3fe6080604052600436106102255760003560e01c80639e914d1f11610123578063ca1d209d116100ab578063e8d49e101161006f578063e8d49e101461093c578063f112658914610979578063f141bd60146109a2578063fa544161146109cb578063ff93478c14610a0a57610225565b8063ca1d209d14610827578063d341972314610843578063d9fa9c1a14610880578063e41dae1d146108bd578063e6b25dfc146108ff57610225565b8063b49b2fd8116100f2578063b49b2fd814610732578063b4fde1081461076f578063bb1b2ba214610798578063bc24c16b146107c1578063c0ffdba0146107ea57610225565b80639e914d1f14610651578063a4edee251461068e578063aa6d6394146106cb578063ab6849051461070957610225565b80634edc3e22116101b15780637274e30d116101755780637274e30d146105465780638ac0d213146105715780638b89ad89146105ae5780639b87c11f146105eb5780639d36788e1461062857610225565b80634edc3e22146104385780634f558e79146104645780635fc28579146104a1578063686cfb9e146104de5780636caa92181461051b57610225565b806318e48a0b116101f857806318e48a0b1461031957806333f707d11461035857806341c0ed5c1461038157806344a8c099146103be57806345f61112146103fb57610225565b8063022914a71461022a578063071f8a9814610269578063094fc03414610292578063141961bc146102d1575b600080fd5b34801561023657600080fd5b50610251600480360381019061024c9190613577565b610a33565b6040516102609392919061365e565b60405180910390f35b34801561027557600080fd5b50610290600480360381019061028b9190613807565b610b12565b005b34801561029e57600080fd5b506102b960048036038101906102b49190613863565b610d3b565b6040516102c89392919061389f565b60405180910390f35b3480156102dd57600080fd5b506102f860048036038101906102f39190613863565b610d92565b6040516103109c9b9a9998979695949392919061396c565b60405180910390f35b34801561032557600080fd5b50610340600480360381019061033b9190613a3b565b610fe6565b60405161034f93929190613a7b565b60405180910390f35b34801561036457600080fd5b5061037f600480360381019061037a9190613863565b61113d565b005b34801561038d57600080fd5b506103a860048036038101906103a39190613ac0565b611366565b6040516103b59190613b00565b60405180910390f35b3480156103ca57600080fd5b506103e560048036038101906103e09190613577565b6113c4565b6040516103f29190613b1b565b60405180910390f35b34801561040757600080fd5b50610422600480360381019061041d9190613863565b61141b565b60405161042f9190613bf4565b60405180910390f35b34801561044457600080fd5b5061044d6114bf565b60405161045b929190613cd8565b60405180910390f35b34801561047057600080fd5b5061048b60048036038101906104869190613863565b611741565b6040516104989190613b1b565b60405180910390f35b3480156104ad57600080fd5b506104c860048036038101906104c39190613863565b611773565b6040516104d59190613b00565b60405180910390f35b3480156104ea57600080fd5b5061050560048036038101906105009190613863565b611793565b6040516105129190613d0f565b60405180910390f35b34801561052757600080fd5b506105306117d2565b60405161053d9190613b00565b60405180910390f35b34801561055257600080fd5b5061055b6117dc565b6040516105689190613b00565b60405180910390f35b34801561057d57600080fd5b5061059860048036038101906105939190613577565b6117e2565b6040516105a59190613d2a565b60405180910390f35b3480156105ba57600080fd5b506105d560048036038101906105d09190613863565b611882565b6040516105e29190613d2a565b60405180910390f35b3480156105f757600080fd5b50610612600480360381019061060d9190613863565b611927565b60405161061f9190613b1b565b60405180910390f35b34801561063457600080fd5b5061064f600480360381019061064a9190613863565b611986565b005b34801561065d57600080fd5b5061067860048036038101906106739190613a3b565b6119b8565b6040516106859190613b1b565b60405180910390f35b34801561069a57600080fd5b506106b560048036038101906106b09190613863565b6119f1565b6040516106c29190613b1b565b60405180910390f35b3480156106d757600080fd5b506106f260048036038101906106ed9190613863565b611a28565b604051610700929190613d4c565b60405180910390f35b34801561071557600080fd5b50610730600480360381019061072b9190613d75565b611a72565b005b34801561073e57600080fd5b5061075960048036038101906107549190613863565b611b26565b6040516107669190613b1b565b60405180910390f35b34801561077b57600080fd5b5061079660048036038101906107919190613dd1565b611b48565b005b3480156107a457600080fd5b506107bf60048036038101906107ba9190613863565b611d7f565b005b3480156107cd57600080fd5b506107e860048036038101906107e39190613863565b611f5a565b005b3480156107f657600080fd5b50610811600480360381019061080c9190613863565b6120fa565b60405161081e9190614073565b60405180910390f35b610841600480360381019061083c9190613863565b612373565b005b34801561084f57600080fd5b5061086a60048036038101906108659190613577565b6125b6565b6040516108779190613d2a565b60405180910390f35b34801561088c57600080fd5b506108a760048036038101906108a29190613577565b612687565b6040516108b49190613b1b565b60405180910390f35b3480156108c957600080fd5b506108e460048036038101906108df9190613863565b6126d3565b6040516108f696959493929190614095565b60405180910390f35b34801561090b57600080fd5b5061092660048036038101906109219190613863565b6128b1565b6040516109339190613d2a565b60405180910390f35b34801561094857600080fd5b50610963600480360381019061095e9190613863565b612951565b6040516109709190613b1b565b60405180910390f35b34801561098557600080fd5b506109a0600480360381019061099b9190614104565b6129bb565b005b3480156109ae57600080fd5b506109c960048036038101906109c49190614160565b612ae7565b005b3480156109d757600080fd5b506109f260048036038101906109ed9190613577565b612dd2565b604051610a019392919061365e565b60405180910390f35b348015610a1657600080fd5b50610a316004803603810190610a2c919061428f565b612f44565b005b60006020528060005260406000206000915090508060000160009054906101000a900473ffffffffffffffffffffffffffffffffffffffff1690806001018054610a7c90614379565b80601f0160208091040260200160405190810160405280929190818152602001828054610aa890614379565b8015610af55780601f10610aca57610100808354040283529160200191610af5565b820191906000526020600020905b815481529060010190602001808311610ad857829003601f168201915b5050505050908060020160009054906101000a900460ff16905083565b806001600082815260200190815260200160002060000160009054906101000a900473ffffffffffffffffffffffffffffffffffffffff1673ffffffffffffffffffffffffffffffffffffffff163373ffffffffffffffffffffffffffffffffffffffff1614610bb7576040517f08c379a0000000000000000000000000000000000000000000000000000000008152600401610bae9061441c565b60405180910390fd5b60016000838152602001908152602001600020600e0160010160009054906101000a900460ff1615610c1e576040517f08c379a0000000000000000000000000000000000000000000000000000000008152600401610c1590614488565b60405180910390fd5b606460506001600085815260200190815260200160002060040154610c4391906144d7565b610c4d9190614548565b60016000848152602001908152602001600020600701541015610ca5576040517f08c379a0000000000000000000000000000000000000000000000000000000008152600401610c9c906145c5565b60405180910390fd5b8260016000848152602001908152602001600020600e016000019081610ccb9190614791565b506001806000848152602001908152602001600020600e0160010160006101000a81548160ff0219169083151502179055507fe21ee65d22ca73e62948637516eafe929496dca7c69123043c20b414526ca8d98284604051610d2e929190614863565b60405180910390a1505050565b60008060006001600085815260200190815260200160002060040154600160008681526020019081526020016000206007015460016000878152602001908152602001600020600801549250925092509193909250565b60016020528060005260406000206000915090508060000160009054906101000a900473ffffffffffffffffffffffffffffffffffffffff1690806001015490806002018054610de190614379565b80601f0160208091040260200160405190810160405280929190818152602001828054610e0d90614379565b8015610e5a5780601f10610e2f57610100808354040283529160200191610e5a565b820191906000526020600020905b815481529060010190602001808311610e3d57829003601f168201915b505050505090806003018054610e6f90614379565b80601f0160208091040260200160405190810160405280929190818152602001828054610e9b90614379565b8015610ee85780601f10610ebd57610100808354040283529160200191610ee8565b820191906000526020600020905b815481529060010190602001808311610ecb57829003601f168201915b5050505050908060040154908060050154908060060154908060070154908060080154908060090160009054906101000a900460ff169080600d01549080600e01604051806040016040529081600082018054610f4490614379565b80601f0160208091040260200160405190810160405280929190818152602001828054610f7090614379565b8015610fbd5780601f10610f9257610100808354040283529160200191610fbd565b820191906000526020600020905b815481529060010190602001808311610fa057829003601f168201915b505050505081526020016001820160009054906101000a900460ff16151515158152505090508c565b6003602052816000526040600020818154811061100257600080fd5b90600052602060002090600402016000915091505080600001805461102690614379565b80601f016020809104026020016040519081016040528092919081815260200182805461105290614379565b801561109f5780601f106110745761010080835404028352916020019161109f565b820191906000526020600020905b81548152906001019060200180831161108257829003601f168201915b5050505050908060010180546110b490614379565b80601f01602080910402602001604051908101604052809291908181526020018280546110e090614379565b801561112d5780601f106111025761010080835404028352916020019161112d565b820191906000526020600020905b81548152906001019060200180831161111057829003601f168201915b5050505050908060030154905083565b60006001600083815260200190815260200160002090508060000160009054906101000a900473ffffffffffffffffffffffffffffffffffffffff1673ffffffffffffffffffffffffffffffffffffffff163373ffffffffffffffffffffffffffffffffffffffff16146111e6576040517f08c379a00000000000000000000000000000000000000000000000000000000081526004016111dd906148df565b60405180910390fd5b806005015442101561122d576040517f08c379a00000000000000000000000000000000000000000000000000000000081526004016112249061494b565b60405180910390fd5b6002816008015461123e9190614548565b81600d015411611283576040517f08c379a000000000000000000000000000000000000000000000000000000000815260040161127a906149dd565b60405180910390fd5b600081600701549050600081116112cf576040517f08c379a00000000000000000000000000000000000000000000000000000000081526004016112c690614a49565b60405180910390fd5b6000826007018190555060008260090160006101000a81548160ff0219169083151502179055508160000160009054906101000a900473ffffffffffffffffffffffffffffffffffffffff1673ffffffffffffffffffffffffffffffffffffffff166108fc829081150290604051600060405180830381858888f19350505050158015611360573d6000803e3d6000fd5b50505050565b600060016000848152602001908152602001600020600a0160008373ffffffffffffffffffffffffffffffffffffffff1673ffffffffffffffffffffffffffffffffffffffff16815260200190815260200160002054905092915050565b600080600460008473ffffffffffffffffffffffffffffffffffffffff1673ffffffffffffffffffffffffffffffffffffffff168152602001908152602001600020805461141190614379565b9050119050919050565b606060016000838152602001908152602001600020600c018054806020026020016040519081016040528092919081815260200182805480156114b357602002820191906000526020600020905b8160009054906101000a900473ffffffffffffffffffffffffffffffffffffffff1673ffffffffffffffffffffffffffffffffffffffff1681526020019060010190808311611469575b50505050509050919050565b6060806000600580549050905060008167ffffffffffffffff8111156114e8576114e76136a6565b5b6040519080825280602002602001820160405280156115165781602001602082028036833780820191505090505b50905060008267ffffffffffffffff811115611535576115346136a6565b5b60405190808252806020026020018201604052801561156857816020015b60608152602001906001900390816115535790505b50905060005b83811015611733576005818154811061158a57611589614a69565b5b9060005260206000200160009054906101000a900473ffffffffffffffffffffffffffffffffffffffff168382815181106115c8576115c7614a69565b5b602002602001019073ffffffffffffffffffffffffffffffffffffffff16908173ffffffffffffffffffffffffffffffffffffffff1681525050600460006005838154811061161a57611619614a69565b5b9060005260206000200160009054906101000a900473ffffffffffffffffffffffffffffffffffffffff1673ffffffffffffffffffffffffffffffffffffffff1673ffffffffffffffffffffffffffffffffffffffff168152602001908152602001600020805461168a90614379565b80601f01602080910402602001604051908101604052809291908181526020018280546116b690614379565b80156117035780601f106116d857610100808354040283529160200191611703565b820191906000526020600020905b8154815290600101906020018083116116e657829003601f168201915b505050505082828151811061171b5761171a614a69565b5b6020026020010181905250808060010191505061156e565b508181945094505050509091565b6000806001600084815260200190815260200160002090508060090160009054906101000a900460ff16915050919050565b600060016000838152602001908152602001600020600701549050919050565b600581815481106117a357600080fd5b906000526020600020016000915054906101000a900473ffffffffffffffffffffffffffffffffffffffff1681565b6000600654905090565b60065481565b6004602052806000526040600020600091509050805461180190614379565b80601f016020809104026020016040519081016040528092919081815260200182805461182d90614379565b801561187a5780601f1061184f5761010080835404028352916020019161187a565b820191906000526020600020905b81548152906001019060200180831161185d57829003601f168201915b505050505081565b60606002600083815260200190815260200160002080546118a290614379565b80601f01602080910402602001604051908101604052809291908181526020018280546118ce90614379565b801561191b5780601f106118f05761010080835404028352916020019161191b565b820191906000526020600020905b8154815290600101906020018083116118fe57829003601f168201915b50505050509050919050565b60008060016000848152602001908152602001600020600a0160003373ffffffffffffffffffffffffffffffffffffffff1673ffffffffffffffffffffffffffffffffffffffff16815260200190815260200160002054119050919050565b60006001600083815260200190815260200160002060090160006101000a81548160ff02191690831515021790555050565b600080600160008581526020019081526020016000209050806005015483106119e55760019150506119eb565b60009150505b92915050565b60008060016000848152602001908152602001600020905060028160080154611a1a9190614548565b81600d015411915050919050565b60008060016000848152602001908152602001600020600e0160010160009054906101000a900460ff1660016000858152602001908152602001600020600d015491509150915091565b80600460008473ffffffffffffffffffffffffffffffffffffffff1673ffffffffffffffffffffffffffffffffffffffff1681526020019081526020016000209081611abe9190614791565b506005829080600181540180825580915050600190039060005260206000200160009091909190916101000a81548173ffffffffffffffffffffffffffffffffffffffff021916908373ffffffffffffffffffffffffffffffffffffffff1602179055505050565b6000426001600084815260200190815260200160002060050154109050919050565b6000603c83611b5791906144d7565b610e1085611b6591906144d7565b6201518087611b7491906144d7565b611b7e9190614a98565b611b889190614a98565b905060008111611bcd576040517f08c379a0000000000000000000000000000000000000000000000000000000008152600401611bc490614b3e565b60405180910390fd5b60008142611bdb9190614a98565b905060006001600060065481526020019081526020016000209050600654816001018190555089816002019081611c129190614791565b5088816003019081611c249190614791565b508781600401819055508181600501819055508381600601819055506000816007018190555060008160080181905550338160000160006101000a81548173ffffffffffffffffffffffffffffffffffffffff021916908373ffffffffffffffffffffffffffffffffffffffff16021790555060405180604001604052806040518060200160405280600081525081526020016000151581525081600e016000820151816000019081611cd79190614791565b5060208201518160010160006101000a81548160ff02191690831515021790555090505060018160090160006101000a81548160ff0219169083151502179055507fd375203c1b7c7b8b86a069706b2b59bf0267922e586ada570e5d9b55525bacf96006548b8a8460050154604051611d539493929190614b5e565b60405180910390a160066000815480929190611d6e90614baa565b919050555050505050505050505050565b6000600160008381526020019081526020016000209050600081600a0160003373ffffffffffffffffffffffffffffffffffffffff1673ffffffffffffffffffffffffffffffffffffffff1681526020019081526020016000205411611e1a576040517f08c379a0000000000000000000000000000000000000000000000000000000008152600401611e1190614c3e565b60405180910390fd5b80600b0160003373ffffffffffffffffffffffffffffffffffffffff1673ffffffffffffffffffffffffffffffffffffffff16815260200190815260200160002060009054906101000a900460ff1615611ea9576040517f08c379a0000000000000000000000000000000000000000000000000000000008152600401611ea090614caa565b60405180910390fd5b600181600b0160003373ffffffffffffffffffffffffffffffffffffffff1673ffffffffffffffffffffffffffffffffffffffff16815260200190815260200160002060006101000a81548160ff02191690831515021790555080600d016000815480929190611f1890614baa565b91905055507fd8d46ecf72f6103ff400e47d1b5fdfe248d4ca34a4acd39f63fbe903c8f7e7bd8233604051611f4e929190614cca565b60405180910390a15050565b6000600160008381526020019081526020016000209050600081600a0160003373ffffffffffffffffffffffffffffffffffffffff1673ffffffffffffffffffffffffffffffffffffffff16815260200190815260200160002054905060008111611ffa576040517f08c379a0000000000000000000000000000000000000000000000000000000008152600401611ff190614d65565b60405180910390fd5b612003836119f1565b612042576040517f08c379a000000000000000000000000000000000000000000000000000000000815260040161203990614dd1565b60405180910390fd5b3373ffffffffffffffffffffffffffffffffffffffff166108fc829081150290604051600060405180830381858888f19350505050158015612088573d6000803e3d6000fd5b508082600701600082825461209d9190614df1565b92505081905550600082600a0160003373ffffffffffffffffffffffffffffffffffffffff1673ffffffffffffffffffffffffffffffffffffffff168152602001908152602001600020819055506120f583336131b7565b505050565b606060036000838152602001908152602001600020805480602002602001604051908101604052809291908181526020016000905b82821015612368578382906000526020600020906004020160405180608001604052908160008201805461216290614379565b80601f016020809104026020016040519081016040528092919081815260200182805461218e90614379565b80156121db5780601f106121b0576101008083540402835291602001916121db565b820191906000526020600020905b8154815290600101906020018083116121be57829003601f168201915b505050505081526020016001820180546121f490614379565b80601f016020809104026020016040519081016040528092919081815260200182805461222090614379565b801561226d5780601f106122425761010080835404028352916020019161226d565b820191906000526020600020905b81548152906001019060200180831161225057829003601f168201915b5050505050815260200160028201805480602002602001604051908101604052809291908181526020016000905b828210156123475783829060005260206000200180546122ba90614379565b80601f01602080910402602001604051908101604052809291908181526020018280546122e690614379565b80156123335780601f1061230857610100808354040283529160200191612333565b820191906000526020600020905b81548152906001019060200180831161231657829003601f168201915b50505050508152602001906001019061229b565b5050505081526020016003820154815250508152602001906001019061212f565b505050509050919050565b60016000828152602001908152602001600020600601543410156123cc576040517f08c379a00000000000000000000000000000000000000000000000000000000081526004016123c390614e97565b60405180910390fd5b60016000828152602001908152602001600020600501544210612424576040517f08c379a000000000000000000000000000000000000000000000000000000000815260040161241b90614f03565b60405180910390fd5b6000600160008381526020019081526020016000209050600081600a0160003373ffffffffffffffffffffffffffffffffffffffff1673ffffffffffffffffffffffffffffffffffffffff16815260200190815260200160002054036125045780600c01339080600181540180825580915050600190039060005260206000200160009091909190916101000a81548173ffffffffffffffffffffffffffffffffffffffff021916908373ffffffffffffffffffffffffffffffffffffffff1602179055508060080160008154809291906124fe90614baa565b91905055505b3481600a0160003373ffffffffffffffffffffffffffffffffffffffff1673ffffffffffffffffffffffffffffffffffffffff16815260200190815260200160002060008282546125559190614a98565b92505081905550348160070160008282546125709190614a98565b925050819055507f38c48552690c96ec2872092ac1db6c19fb59f5a8c5b49bbf41ed4886d0ca69268233346040516125aa93929190614f23565b60405180910390a15050565b6060600460008373ffffffffffffffffffffffffffffffffffffffff1673ffffffffffffffffffffffffffffffffffffffff168152602001908152602001600020805461260290614379565b80601f016020809104026020016040519081016040528092919081815260200182805461262e90614379565b801561267b5780601f106126505761010080835404028352916020019161267b565b820191906000526020600020905b81548152906001019060200180831161265e57829003601f168201915b50505050509050919050565b60007370997970c51812dc3a010c7d01b50e0d17dc79c873ffffffffffffffffffffffffffffffffffffffff168273ffffffffffffffffffffffffffffffffffffffff16149050919050565b6000806060806000806001600088815260200190815260200160002060000160009054906101000a900473ffffffffffffffffffffffffffffffffffffffff166001600089815260200190815260200160002060010154600160008a8152602001908152602001600020600201600160008b8152602001908152602001600020600301600160008c815260200190815260200160002060060154600160008d81526020019081526020016000206005015483805461279090614379565b80601f01602080910402602001604051908101604052809291908181526020018280546127bc90614379565b80156128095780601f106127de57610100808354040283529160200191612809565b820191906000526020600020905b8154815290600101906020018083116127ec57829003601f168201915b5050505050935082805461281c90614379565b80601f016020809104026020016040519081016040528092919081815260200182805461284890614379565b80156128955780601f1061286a57610100808354040283529160200191612895565b820191906000526020600020905b81548152906001019060200180831161287857829003601f168201915b5050505050925095509550955095509550955091939550919395565b600260205280600052604060002060009150905080546128d090614379565b80601f01602080910402602001604051908101604052809291908181526020018280546128fc90614379565b80156129495780601f1061291e57610100808354040283529160200191612949565b820191906000526020600020905b81548152906001019060200180831161292c57829003601f168201915b505050505081565b600060016000838152602001908152602001600020600b0160003373ffffffffffffffffffffffffffffffffffffffff1673ffffffffffffffffffffffffffffffffffffffff16815260200190815260200160002060009054906101000a900460ff169050919050565b6001600083815260200190815260200160002060090160009054906101000a900460ff16612a1e576040517f08c379a0000000000000000000000000000000000000000000000000000000008152600401612a1590614fa6565b60405180910390fd5b6001600083815260200190815260200160002060000160009054906101000a900473ffffffffffffffffffffffffffffffffffffffff1673ffffffffffffffffffffffffffffffffffffffff163373ffffffffffffffffffffffffffffffffffffffff1614612ac2576040517f08c379a0000000000000000000000000000000000000000000000000000000008152600401612ab990615012565b60405180910390fd5b80600260008481526020019081526020016000209081612ae29190614791565b505050565b600073ffffffffffffffffffffffffffffffffffffffff166000803373ffffffffffffffffffffffffffffffffffffffff1673ffffffffffffffffffffffffffffffffffffffff16815260200190815260200160002060000160009054906101000a900473ffffffffffffffffffffffffffffffffffffffff1673ffffffffffffffffffffffffffffffffffffffff1614612bb7576040517f08c379a0000000000000000000000000000000000000000000000000000000008152600401612bae9061507e565b60405180910390fd5b336000803373ffffffffffffffffffffffffffffffffffffffff1673ffffffffffffffffffffffffffffffffffffffff16815260200190815260200160002060000160006101000a81548173ffffffffffffffffffffffffffffffffffffffff021916908373ffffffffffffffffffffffffffffffffffffffff160217905550806000803373ffffffffffffffffffffffffffffffffffffffff1673ffffffffffffffffffffffffffffffffffffffff1681526020019081526020016000206001019081612c859190614791565b5060016000803373ffffffffffffffffffffffffffffffffffffffff1673ffffffffffffffffffffffffffffffffffffffff16815260200190815260200160002060020160006101000a81548160ff0219169083151502179055506000803373ffffffffffffffffffffffffffffffffffffffff1673ffffffffffffffffffffffffffffffffffffffff16815260200190815260200160002060000160009054906101000a900473ffffffffffffffffffffffffffffffffffffffff1673ffffffffffffffffffffffffffffffffffffffff167f7adcb4720057d6b9b1d9dc7f206a6dc456794ecdbf145763cc55d76930c3ab866000803373ffffffffffffffffffffffffffffffffffffffff1673ffffffffffffffffffffffffffffffffffffffff168152602001908152602001600020600101604051612dc79190615122565b60405180910390a250565b600060606000806000808673ffffffffffffffffffffffffffffffffffffffff1673ffffffffffffffffffffffffffffffffffffffff1681526020019081526020016000206040518060600160405290816000820160009054906101000a900473ffffffffffffffffffffffffffffffffffffffff1673ffffffffffffffffffffffffffffffffffffffff1673ffffffffffffffffffffffffffffffffffffffff168152602001600182018054612e8890614379565b80601f0160208091040260200160405190810160405280929190818152602001828054612eb490614379565b8015612f015780601f10612ed657610100808354040283529160200191612f01565b820191906000526020600020905b815481529060010190602001808311612ee457829003601f168201915b505050505081526020016002820160009054906101000a900460ff1615151515815250509050806000015181602001518260400151935093509350509193909250565b836001600082815260200190815260200160002060000160009054906101000a900473ffffffffffffffffffffffffffffffffffffffff1673ffffffffffffffffffffffffffffffffffffffff163373ffffffffffffffffffffffffffffffffffffffff1614612fe9576040517f08c379a0000000000000000000000000000000000000000000000000000000008152600401612fe09061441c565b60405180910390fd5b6001600086815260200190815260200160002060090160009054906101000a900460ff1661304c576040517f08c379a000000000000000000000000000000000000000000000000000000000815260040161304390614fa6565b60405180910390fd5b6001600086815260200190815260200160002060000160009054906101000a900473ffffffffffffffffffffffffffffffffffffffff1673ffffffffffffffffffffffffffffffffffffffff163373ffffffffffffffffffffffffffffffffffffffff16146130f0576040517f08c379a00000000000000000000000000000000000000000000000000000000081526004016130e790615190565b60405180910390fd5b6130f8613403565b8481600001819052508381602001819052508281604001819052504281606001818152505060036000878152602001908152602001600020819080600181540180825580915050600190039060005260206000209060040201600090919091909150600082015181600001908161316f9190614791565b5060208201518160010190816131859190614791565b5060408201518160020190805190602001906131a292919061342b565b50606082015181600301555050505050505050565b60006001600084815260200190815260200160002090506000806000905060005b83600c0180549050811015613273578473ffffffffffffffffffffffffffffffffffffffff1684600c01828154811061321457613213614a69565b5b9060005260206000200160009054906101000a900473ffffffffffffffffffffffffffffffffffffffff1673ffffffffffffffffffffffffffffffffffffffff16036132665780925060019150613273565b80806001019150506131d8565b50806132b4576040517f08c379a00000000000000000000000000000000000000000000000000000000081526004016132ab906151fc565b60405180910390fd5b6000600184600c01805490506132ca9190614df1565b905083600c0181815481106132e2576132e1614a69565b5b9060005260206000200160009054906101000a900473ffffffffffffffffffffffffffffffffffffffff1684600c01848154811061332357613322614a69565b5b9060005260206000200160006101000a81548173ffffffffffffffffffffffffffffffffffffffff021916908373ffffffffffffffffffffffffffffffffffffffff16021790555083600c0180548061337f5761337e61521c565b5b6001900381819060005260206000200160006101000a81549073ffffffffffffffffffffffffffffffffffffffff02191690559055600084600a0160008773ffffffffffffffffffffffffffffffffffffffff1673ffffffffffffffffffffffffffffffffffffffff16815260200190815260200160002081905550505050505050565b6040518060800160405280606081526020016060815260200160608152602001600081525090565b828054828255906000526020600020908101928215613473579160200282015b828111156134725782518290816134629190614791565b509160200191906001019061344b565b5b5090506134809190613484565b5090565b5b808211156134a4576000818161349b91906134a8565b50600101613485565b5090565b5080546134b490614379565b6000825580601f106134c657506134e5565b601f0160209004906000526020600020908101906134e491906134e8565b5b50565b5b808211156135015760008160009055506001016134e9565b5090565b6000604051905090565b600080fd5b600080fd5b600073ffffffffffffffffffffffffffffffffffffffff82169050919050565b600061354482613519565b9050919050565b61355481613539565b811461355f57600080fd5b50565b6000813590506135718161354b565b92915050565b60006020828403121561358d5761358c61350f565b5b600061359b84828501613562565b91505092915050565b6135ad81613539565b82525050565b600081519050919050565b600082825260208201905092915050565b60005b838110156135ed5780820151818401526020810190506135d2565b60008484015250505050565b6000601f19601f8301169050919050565b6000613615826135b3565b61361f81856135be565b935061362f8185602086016135cf565b613638816135f9565b840191505092915050565b60008115159050919050565b61365881613643565b82525050565b600060608201905061367360008301866135a4565b8181036020830152613685818561360a565b9050613694604083018461364f565b949350505050565b600080fd5b600080fd5b7f4e487b7100000000000000000000000000000000000000000000000000000000600052604160045260246000fd5b6136de826135f9565b810181811067ffffffffffffffff821117156136fd576136fc6136a6565b5b80604052505050565b6000613710613505565b905061371c82826136d5565b919050565b600067ffffffffffffffff82111561373c5761373b6136a6565b5b613745826135f9565b9050602081019050919050565b82818337600083830152505050565b600061377461376f84613721565b613706565b9050828152602081018484840111156137905761378f6136a1565b5b61379b848285613752565b509392505050565b600082601f8301126137b8576137b761369c565b5b81356137c8848260208601613761565b91505092915050565b6000819050919050565b6137e4816137d1565b81146137ef57600080fd5b50565b600081359050613801816137db565b92915050565b6000806040838503121561381e5761381d61350f565b5b600083013567ffffffffffffffff81111561383c5761383b613514565b5b613848858286016137a3565b9250506020613859858286016137f2565b9150509250929050565b6000602082840312156138795761387861350f565b5b6000613887848285016137f2565b91505092915050565b613899816137d1565b82525050565b60006060820190506138b46000830186613890565b6138c16020830185613890565b6138ce6040830184613890565b949350505050565b600082825260208201905092915050565b60006138f2826135b3565b6138fc81856138d6565b935061390c8185602086016135cf565b613915816135f9565b840191505092915050565b61392981613643565b82525050565b6000604083016000830151848203600086015261394c82826138e7565b91505060208301516139616020860182613920565b508091505092915050565b600061018082019050613982600083018f6135a4565b61398f602083018e613890565b81810360408301526139a1818d61360a565b905081810360608301526139b5818c61360a565b90506139c4608083018b613890565b6139d160a083018a613890565b6139de60c0830189613890565b6139eb60e0830188613890565b6139f9610100830187613890565b613a0761012083018661364f565b613a15610140830185613890565b818103610160830152613a28818461392f565b90509d9c50505050505050505050505050565b60008060408385031215613a5257613a5161350f565b5b6000613a60858286016137f2565b9250506020613a71858286016137f2565b9150509250929050565b60006060820190508181036000830152613a95818661360a565b90508181036020830152613aa9818561360a565b9050613ab86040830184613890565b949350505050565b60008060408385031215613ad757613ad661350f565b5b6000613ae5858286016137f2565b9250506020613af685828601613562565b9150509250929050565b6000602082019050613b156000830184613890565b92915050565b6000602082019050613b30600083018461364f565b92915050565b600081519050919050565b600082825260208201905092915050565b6000819050602082019050919050565b613b6b81613539565b82525050565b6000613b7d8383613b62565b60208301905092915050565b6000602082019050919050565b6000613ba182613b36565b613bab8185613b41565b9350613bb683613b52565b8060005b83811015613be7578151613bce8882613b71565b9750613bd983613b89565b925050600181019050613bba565b5085935050505092915050565b60006020820190508181036000830152613c0e8184613b96565b905092915050565b600081519050919050565b600082825260208201905092915050565b6000819050602082019050919050565b6000613c4e83836138e7565b905092915050565b6000602082019050919050565b6000613c6e82613c16565b613c788185613c21565b935083602082028501613c8a85613c32565b8060005b85811015613cc65784840389528151613ca78582613c42565b9450613cb283613c56565b925060208a01995050600181019050613c8e565b50829750879550505050505092915050565b60006040820190508181036000830152613cf28185613b96565b90508181036020830152613d068184613c63565b90509392505050565b6000602082019050613d2460008301846135a4565b92915050565b60006020820190508181036000830152613d44818461360a565b905092915050565b6000604082019050613d61600083018561364f565b613d6e6020830184613890565b9392505050565b60008060408385031215613d8c57613d8b61350f565b5b6000613d9a85828601613562565b925050602083013567ffffffffffffffff811115613dbb57613dba613514565b5b613dc7858286016137a3565b9150509250929050565b600080600080600080600060e0888a031215613df057613def61350f565b5b600088013567ffffffffffffffff811115613e0e57613e0d613514565b5b613e1a8a828b016137a3565b975050602088013567ffffffffffffffff811115613e3b57613e3a613514565b5b613e478a828b016137a3565b9650506040613e588a828b016137f2565b9550506060613e698a828b016137f2565b9450506080613e7a8a828b016137f2565b93505060a0613e8b8a828b016137f2565b92505060c0613e9c8a828b016137f2565b91505092959891949750929550565b600081519050919050565b600082825260208201905092915050565b6000819050602082019050919050565b600082825260208201905092915050565b6000613ef382613c16565b613efd8185613ed7565b935083602082028501613f0f85613c32565b8060005b85811015613f4b5784840389528151613f2c8582613c42565b9450613f3783613c56565b925060208a01995050600181019050613f13565b50829750879550505050505092915050565b613f66816137d1565b82525050565b60006080830160008301518482036000860152613f8982826138e7565b91505060208301518482036020860152613fa382826138e7565b91505060408301518482036040860152613fbd8282613ee8565b9150506060830151613fd26060860182613f5d565b508091505092915050565b6000613fe98383613f6c565b905092915050565b6000602082019050919050565b600061400982613eab565b6140138185613eb6565b93508360208202850161402585613ec7565b8060005b8581101561406157848403895281516140428582613fdd565b945061404d83613ff1565b925060208a01995050600181019050614029565b50829750879550505050505092915050565b6000602082019050818103600083015261408d8184613ffe565b905092915050565b600060c0820190506140aa60008301896135a4565b6140b76020830188613890565b81810360408301526140c9818761360a565b905081810360608301526140dd818661360a565b90506140ec6080830185613890565b6140f960a0830184613890565b979650505050505050565b6000806040838503121561411b5761411a61350f565b5b6000614129858286016137f2565b925050602083013567ffffffffffffffff81111561414a57614149613514565b5b614156858286016137a3565b9150509250929050565b6000602082840312156141765761417561350f565b5b600082013567ffffffffffffffff81111561419457614193613514565b5b6141a0848285016137a3565b91505092915050565b600067ffffffffffffffff8211156141c4576141c36136a6565b5b602082029050602081019050919050565b600080fd5b60006141ed6141e8846141a9565b613706565b905080838252602082019050602084028301858111156142105761420f6141d5565b5b835b8181101561425757803567ffffffffffffffff8111156142355761423461369c565b5b80860161424289826137a3565b85526020850194505050602081019050614212565b5050509392505050565b600082601f8301126142765761427561369c565b5b81356142868482602086016141da565b91505092915050565b600080600080608085870312156142a9576142a861350f565b5b60006142b7878288016137f2565b945050602085013567ffffffffffffffff8111156142d8576142d7613514565b5b6142e4878288016137a3565b935050604085013567ffffffffffffffff81111561430557614304613514565b5b614311878288016137a3565b925050606085013567ffffffffffffffff81111561433257614331613514565b5b61433e87828801614261565b91505092959194509250565b7f4e487b7100000000000000000000000000000000000000000000000000000000600052602260045260246000fd5b6000600282049050600182168061439157607f821691505b6020821081036143a4576143a361434a565b5b50919050565b7f4f6e6c79206f776e65722063616e2063616c6c20746869732066756e6374696f60008201527f6e00000000000000000000000000000000000000000000000000000000000000602082015250565b60006144066021836135be565b9150614411826143aa565b604082019050919050565b60006020820190508181036000830152614435816143f9565b9050919050565b7f526571756573742068617320616c7265616479206265656e2063726561746564600082015250565b60006144726020836135be565b915061447d8261443c565b602082019050919050565b600060208201905081810360008301526144a181614465565b9050919050565b7f4e487b7100000000000000000000000000000000000000000000000000000000600052601160045260246000fd5b60006144e2826137d1565b91506144ed836137d1565b92508282026144fb816137d1565b91508282048414831517614512576145116144a8565b5b5092915050565b7f4e487b7100000000000000000000000000000000000000000000000000000000600052601260045260246000fd5b6000614553826137d1565b915061455e836137d1565b92508261456e5761456d614519565b5b828204905092915050565b7f476f616c20686173206e6f74206265656e207265616368656400000000000000600082015250565b60006145af6019836135be565b91506145ba82614579565b602082019050919050565b600060208201905081810360008301526145de816145a2565b9050919050565b60008190508160005260206000209050919050565b60006020601f8301049050919050565b600082821b905092915050565b6000600883026146477fffffffffffffffffffffffffffffffffffffffffffffffffffffffffffffffff8261460a565b614651868361460a565b95508019841693508086168417925050509392505050565b6000819050919050565b600061468e614689614684846137d1565b614669565b6137d1565b9050919050565b6000819050919050565b6146a883614673565b6146bc6146b482614695565b848454614617565b825550505050565b600090565b6146d16146c4565b6146dc81848461469f565b505050565b5b81811015614700576146f56000826146c9565b6001810190506146e2565b5050565b601f82111561474557614716816145e5565b61471f846145fa565b8101602085101561472e578190505b61474261473a856145fa565b8301826146e1565b50505b505050565b600082821c905092915050565b60006147686000198460080261474a565b1980831691505092915050565b60006147818383614757565b9150826002028217905092915050565b61479a826135b3565b67ffffffffffffffff8111156147b3576147b26136a6565b5b6147bd8254614379565b6147c8828285614704565b600060209050601f8311600181146147fb57600084156147e9578287015190505b6147f38582614775565b86555061485b565b601f198416614809866145e5565b60005b828110156148315784890151825560018201915060208501945060208101905061480c565b8683101561484e578489015161484a601f891682614757565b8355505b6001600288020188555050505b505050505050565b60006040820190506148786000830185613890565b818103602083015261488a818461360a565b90509392505050565b7f4f6e6c7920746865206f776e65722063616e2077697468647261770000000000600082015250565b60006148c9601b836135be565b91506148d482614893565b602082019050919050565b600060208201905081810360008301526148f8816148bc565b9050919050565b7f446561646c696e65206e6f742072656163686564000000000000000000000000600082015250565b60006149356014836135be565b9150614940826148ff565b602082019050919050565b6000602082019050818103600083015261496481614928565b9050919050565b7f566f74657320617265206c657373207468616e20353025206f6620636f6e747260008201527f696275746f727300000000000000000000000000000000000000000000000000602082015250565b60006149c76027836135be565b91506149d28261496b565b604082019050919050565b600060208201905081810360008301526149f6816149ba565b9050919050565b7f4e6f2066756e647320617661696c61626c650000000000000000000000000000600082015250565b6000614a336012836135be565b9150614a3e826149fd565b602082019050919050565b60006020820190508181036000830152614a6281614a26565b9050919050565b7f4e487b7100000000000000000000000000000000000000000000000000000000600052603260045260246000fd5b6000614aa3826137d1565b9150614aae836137d1565b9250828201905080821115614ac657614ac56144a8565b5b92915050565b7f546f74616c206475726174696f6e206d7573742062652067726561746572207460008201527f68616e207a65726f000000000000000000000000000000000000000000000000602082015250565b6000614b286028836135be565b9150614b3382614acc565b604082019050919050565b60006020820190508181036000830152614b5781614b1b565b9050919050565b6000608082019050614b736000830187613890565b8181036020830152614b85818661360a565b9050614b946040830185613890565b614ba16060830184613890565b95945050505050565b6000614bb5826137d1565b91507fffffffffffffffffffffffffffffffffffffffffffffffffffffffffffffffff8203614be757614be66144a8565b5b600182019050919050565b7f4f6e6c7920636f6e7472696275746f72732063616e20766f7465000000000000600082015250565b6000614c28601a836135be565b9150614c3382614bf2565b602082019050919050565b60006020820190508181036000830152614c5781614c1b565b9050919050565b7f416c726561647920766f74656400000000000000000000000000000000000000600082015250565b6000614c94600d836135be565b9150614c9f82614c5e565b602082019050919050565b60006020820190508181036000830152614cc381614c87565b9050919050565b6000604082019050614cdf6000830185613890565b614cec60208301846135a4565b9392505050565b7f596f752068617665206e6f7420636f6e747269627574656420746f207468697360008201527f2063616d706169676e0000000000000000000000000000000000000000000000602082015250565b6000614d4f6029836135be565b9150614d5a82614cf3565b604082019050919050565b60006020820190508181036000830152614d7e81614d42565b9050919050565b7f6172652061726520696e206661766f72206e6f20726566756e64000000000000600082015250565b6000614dbb601a836135be565b9150614dc682614d85565b602082019050919050565b60006020820190508181036000830152614dea81614dae565b9050919050565b6000614dfc826137d1565b9150614e07836137d1565b9250828203905081811115614e1f57614e1e6144a8565b5b92915050565b7f4d7573742066756e6420616d6f756e742067726561746572207468616e206d6960008201527f6e20636f6e747269627574696f6e000000000000000000000000000000000000602082015250565b6000614e81602e836135be565b9150614e8c82614e25565b604082019050919050565b60006020820190508181036000830152614eb081614e74565b9050919050565b7f43616d706169676e2068617320656e6465640000000000000000000000000000600082015250565b6000614eed6012836135be565b9150614ef882614eb7565b602082019050919050565b60006020820190508181036000830152614f1c81614ee0565b9050919050565b6000606082019050614f386000830186613890565b614f4560208301856135a4565b614f526040830184613890565b949350505050565b7f43616d706169676e20646f6573206e6f74206578697374000000000000000000600082015250565b6000614f906017836135be565b9150614f9b82614f5a565b602082019050919050565b60006020820190508181036000830152614fbf81614f83565b9050919050565b7f4f6e6c79206f776e65722063616e20757064617465206361726420696d616765600082015250565b6000614ffc6020836135be565b915061500782614fc6565b602082019050919050565b6000602082019050818103600083015261502b81614fef565b9050919050565b7f4f776e657220616c726561647920657869737473000000000000000000000000600082015250565b60006150686014836135be565b915061507382615032565b602082019050919050565b600060208201905081810360008301526150978161505b565b9050919050565b600081546150ab81614379565b6150b581866135be565b945060018216600081146150d057600181146150e657615119565b60ff198316865281151560200286019350615119565b6150ef856145e5565b60005b83811015615111578154818901526001820191506020810190506150f2565b808801955050505b50505092915050565b6000602082019050818103600083015261513c818461509e565b905092915050565b7f4e6f74206f776e65720000000000000000000000000000000000000000000000600082015250565b600061517a6009836135be565b915061518582615144565b602082019050919050565b600060208201905081810360008301526151a98161516d565b9050919050565b7f436f6e7472696275746f72206e6f7420666f756e640000000000000000000000600082015250565b60006151e66015836135be565b91506151f1826151b0565b602082019050919050565b60006020820190508181036000830152615215816151d9565b9050919050565b7f4e487b7100000000000000000000000000000000000000000000000000000000600052603160045260246000fdfea26469706673582212207c5897443d744f1e7819352074eab067b92f4e598fbcc542abd9ffe596fcb80564736f6c634300081b0033",
  "linkReferences": {},
  "deployedLinkReferences": {}
}