{
  "_format": "hh-sol-artifact-1",
  "contractName": "CharityDonation",
  "sourceName": "contracts/CharityDonation.sol",
  "abi": [
    {
      "anonymous": false,
      "inputs": [
        {
          "indexed": false,
          "internalType": "uint256",
          "name": "campaignId",
          "type": "uint256"
        },
        {
          "indexed": false,
          "internalType": "string",
          "name": "title",
          "type": "string"
        },
        {
          "indexed": false,
          "internalType": "uint256",
          "name": "goal",
          "type": "uint256"
        },
        {
          "indexed": false,
          "internalType": "uint256",
          "name": "deadline",
          "type": "uint256"
        }
      ],
      "name": "CampaignAdded",
      "type": "event"
    },
    {
      "anonymous": false,
      "inputs": [
        {
          "indexed": false,
          "internalType": "uint256",
          "name": "campaignId",
          "type": "uint256"
        },
        {
          "indexed": false,
          "internalType": "address",
          "name": "contributor",
          "type": "address"
        },
        {
          "indexed": false,
          "internalType": "uint256",
          "name": "amount",
          "type": "uint256"
        }
      ],
      "name": "Funded",
      "type": "event"
    },
    {
      "anonymous": false,
      "inputs": [
        {
          "indexed": false,
          "internalType": "uint256",
          "name": "campaignId",
          "type": "uint256"
        },
        {
          "indexed": false,
          "internalType": "address",
          "name": "owner",
          "type": "address"
        },
        {
          "indexed": false,
          "internalType": "uint256",
          "name": "amount",
          "type": "uint256"
        }
      ],
      "name": "FundsTransferred",
      "type": "event"
    },
    {
      "anonymous": false,
      "inputs": [
        {
          "indexed": true,
          "internalType": "address",
          "name": "ownerAddress",
          "type": "address"
        },
        {
          "indexed": false,
          "internalType": "string",
          "name": "ownerName",
          "type": "string"
        }
      ],
      "name": "OwnerAdded",
      "type": "event"
    },
    {
      "anonymous": false,
      "inputs": [
        {
          "indexed": false,
          "internalType": "uint256",
          "name": "campaignId",
          "type": "uint256"
        },
        {
          "indexed": false,
          "internalType": "address",
          "name": "contributor",
          "type": "address"
        },
        {
          "indexed": false,
          "internalType": "uint256",
          "name": "amount",
          "type": "uint256"
        }
      ],
      "name": "RefundIssued",
      "type": "event"
    },
    {
      "anonymous": false,
      "inputs": [
        {
          "indexed": false,
          "internalType": "uint256",
          "name": "campaignId",
          "type": "uint256"
        },
        {
          "indexed": false,
          "internalType": "address",
          "name": "voter",
          "type": "address"
        }
      ],
      "name": "VoteCasted",
      "type": "event"
    },
    {
      "anonymous": false,
      "inputs": [
        {
          "indexed": false,
          "internalType": "uint256",
          "name": "campaignId",
          "type": "uint256"
        },
        {
          "indexed": false,
          "internalType": "string",
          "name": "description",
          "type": "string"
        }
      ],
      "name": "WithdrawalRequested",
      "type": "event"
    },
    {
      "inputs": [
        {
          "internalType": "address",
          "name": "o",
          "type": "address"
        },
        {
          "internalType": "string",
          "name": "cid",
          "type": "string"
        }
      ],
      "name": "addApprovedOwners",
      "outputs": [],
      "stateMutability": "nonpayable",
      "type": "function"
    },
    {
      "inputs": [
        {
          "internalType": "string",
          "name": "_title",
          "type": "string"
        },
        {
          "internalType": "string",
          "name": "_description",
          "type": "string"
        },
        {
          "internalType": "uint256",
          "name": "_goal",
          "type": "uint256"
        },
        {
          "internalType": "uint256",
          "name": "_days",
          "type": "uint256"
        },
        {
          "internalType": "uint256",
          "name": "_hours",
          "type": "uint256"
        },
        {
          "internalType": "uint256",
          "name": "_minutes",
          "type": "uint256"
        },
        {
          "internalType": "uint256",
          "name": "_minContribution",
          "type": "uint256"
        }
      ],
      "name": "addCampaign",
      "outputs": [],
      "stateMutability": "nonpayable",
      "type": "function"
    },
    {
      "inputs": [
        {
          "internalType": "string",
          "name": "_ownerName",
          "type": "string"
        }
      ],
      "name": "addOwner",
      "outputs": [],
      "stateMutability": "nonpayable",
      "type": "function"
    },
    {
      "inputs": [
        {
          "internalType": "uint256",
          "name": "campaignId",
          "type": "uint256"
        },
        {
          "internalType": "string",
          "name": "updateTitle",
          "type": "string"
        },
        {
          "internalType": "string",
          "name": "updateDescription",
          "type": "string"
        },
        {
          "internalType": "string[]",
          "name": "updateImages",
          "type": "string[]"
        }
      ],
      "name": "addUpdate",
      "outputs": [],
      "stateMutability": "nonpayable",
      "type": "function"
    },
    {
      "inputs": [
        {
          "internalType": "address",
          "name": "",
          "type": "address"
        }
      ],
      "name": "approvedOwners",
      "outputs": [
        {
          "internalType": "string",
          "name": "",
          "type": "string"
        }
      ],
      "stateMutability": "view",
      "type": "function"
    },
    {
      "inputs": [],
      "name": "campaignCount",
      "outputs": [
        {
          "internalType": "uint256",
          "name": "",
          "type": "uint256"
        }
      ],
      "stateMutability": "view",
      "type": "function"
    },
    {
      "inputs": [
        {
          "internalType": "uint256",
          "name": "",
          "type": "uint256"
        }
      ],
      "name": "campaigns",
      "outputs": [
        {
          "internalType": "address",
          "name": "owner",
          "type": "address"
        },
        {
          "internalType": "uint256",
          "name": "id",
          "type": "uint256"
        },
        {
          "internalType": "string",
          "name": "title",
          "type": "string"
        },
        {
          "internalType": "string",
          "name": "description",
          "type": "string"
        },
        {
          "internalType": "uint256",
          "name": "goal",
          "type": "uint256"
        },
        {
          "internalType": "uint256",
          "name": "deadline",
          "type": "uint256"
        },
        {
          "internalType": "uint256",
          "name": "minContribution",
          "type": "uint256"
        },
        {
          "internalType": "uint256",
          "name": "balance",
          "type": "uint256"
        },
        {
          "internalType": "uint256",
          "name": "noOfContributors",
          "type": "uint256"
        },
        {
          "internalType": "bool",
          "name": "exists",
          "type": "bool"
        },
        {
          "internalType": "uint256",
          "name": "votesInFavor",
          "type": "uint256"
        },
        {
          "components": [
            {
              "internalType": "string",
              "name": "reqMsg",
              "type": "string"
            },
            {
              "internalType": "bool",
              "name": "requested",
              "type": "bool"
            }
          ],
          "internalType": "struct CharityDonation.Request",
          "name": "request",
          "type": "tuple"
        }
      ],
      "stateMutability": "view",
      "type": "function"
    },
    {
      "inputs": [
        {
          "internalType": "uint256",
          "name": "",
          "type": "uint256"
        }
      ],
      "name": "cardImage",
      "outputs": [
        {
          "internalType": "string",
          "name": "",
          "type": "string"
        }
      ],
      "stateMutability": "view",
      "type": "function"
    },
    {
      "inputs": [
        {
          "internalType": "address",
          "name": "a",
          "type": "address"
        }
      ],
      "name": "checkIfAdmin",
      "outputs": [
        {
          "internalType": "bool",
          "name": "",
          "type": "bool"
        }
      ],
      "stateMutability": "view",
      "type": "function"
    },
    {
      "inputs": [
        {
          "internalType": "address",
          "name": "o",
          "type": "address"
        }
      ],
      "name": "checkIfApprovedOwner",
      "outputs": [
        {
          "internalType": "bool",
          "name": "",
          "type": "bool"
        }
      ],
      "stateMutability": "view",
      "type": "function"
    },
    {
      "inputs": [
        {
          "internalType": "uint256",
          "name": "campaignId",
          "type": "uint256"
        }
      ],
      "name": "exists",
      "outputs": [
        {
          "internalType": "bool",
          "name": "",
          "type": "bool"
        }
      ],
      "stateMutability": "view",
      "type": "function"
    },
    {
      "inputs": [
        {
          "internalType": "uint256",
          "name": "campaignId",
          "type": "uint256"
        }
      ],
      "name": "fund",
      "outputs": [],
      "stateMutability": "payable",
      "type": "function"
    },
    {
      "inputs": [],
      "name": "getAllApprovedOwners",
      "outputs": [
        {
          "internalType": "address[]",
          "name": "",
          "type": "address[]"
        },
        {
          "internalType": "string[]",
          "name": "",
          "type": "string[]"
        }
      ],
      "stateMutability": "view",
      "type": "function"
    },
    {
      "inputs": [
        {
          "internalType": "uint256",
          "name": "_id",
          "type": "uint256"
        }
      ],
      "name": "getCampaignBasicDetails",
      "outputs": [
        {
          "internalType": "address",
          "name": "owner",
          "type": "address"
        },
        {
          "internalType": "uint256",
          "name": "id",
          "type": "uint256"
        },
        {
          "internalType": "string",
          "name": "title",
          "type": "string"
        },
        {
          "internalType": "string",
          "name": "description",
          "type": "string"
        },
        {
          "internalType": "uint256",
          "name": "minContribution",
          "type": "uint256"
        },
        {
          "internalType": "uint256",
          "name": "deadline",
          "type": "uint256"
        }
      ],
      "stateMutability": "view",
      "type": "function"
    },
    {
      "inputs": [],
      "name": "getCampaignCount",
      "outputs": [
        {
          "internalType": "uint256",
          "name": "",
          "type": "uint256"
        }
      ],
      "stateMutability": "view",
      "type": "function"
    },
    {
      "inputs": [
        {
          "internalType": "uint256",
          "name": "_id",
          "type": "uint256"
        }
      ],
      "name": "getCampaignFinancialDetails",
      "outputs": [
        {
          "internalType": "uint256",
          "name": "goal",
          "type": "uint256"
        },
        {
          "internalType": "uint256",
          "name": "balance",
          "type": "uint256"
        },
        {
          "internalType": "uint256",
          "name": "noOfContributors",
          "type": "uint256"
        }
      ],
      "stateMutability": "view",
      "type": "function"
    },
    {
      "inputs": [
        {
          "internalType": "uint256",
          "name": "_id",
          "type": "uint256"
        }
      ],
      "name": "getCampaignVoteRequestDetails",
      "outputs": [
        {
          "internalType": "bool",
          "name": "requestStatus",
          "type": "bool"
        },
        {
          "internalType": "uint256",
          "name": "votesInFavor",
          "type": "uint256"
        }
      ],
      "stateMutability": "view",
      "type": "function"
    },
    {
      "inputs": [
        {
          "internalType": "uint256",
          "name": "campaignId",
          "type": "uint256"
        }
      ],
      "name": "getCardImage",
      "outputs": [
        {
          "internalType": "string",
          "name": "",
          "type": "string"
        }
      ],
      "stateMutability": "view",
      "type": "function"
    },
    {
      "inputs": [
        {
          "internalType": "uint256",
          "name": "campaignId",
          "type": "uint256"
        },
        {
          "internalType": "address",
          "name": "contributor",
          "type": "address"
        }
      ],
      "name": "getContributionForAddress",
      "outputs": [
        {
          "internalType": "uint256",
          "name": "",
          "type": "uint256"
        }
      ],
      "stateMutability": "view",
      "type": "function"
    },
    {
      "inputs": [
        {
          "internalType": "uint256",
          "name": "campaignId",
          "type": "uint256"
        }
      ],
      "name": "getContributorsForCampaign",
      "outputs": [
        {
          "internalType": "address[]",
          "name": "",
          "type": "address[]"
        }
      ],
      "stateMutability": "view",
      "type": "function"
    },
    {
      "inputs": [
        {
          "internalType": "uint256",
          "name": "campaignId",
          "type": "uint256"
        }
      ],
      "name": "getContributorsIfVoted",
      "outputs": [
        {
          "internalType": "bool",
          "name": "",
          "type": "bool"
        }
      ],
      "stateMutability": "view",
      "type": "function"
    },
    {
      "inputs": [
        {
          "internalType": "address",
          "name": "ownerAddress",
          "type": "address"
        }
      ],
      "name": "getOwner",
      "outputs": [
        {
          "internalType": "address",
          "name": "",
          "type": "address"
        },
        {
          "internalType": "string",
          "name": "",
          "type": "string"
        },
        {
          "internalType": "bool",
          "name": "",
          "type": "bool"
        }
      ],
      "stateMutability": "view",
      "type": "function"
    },
    {
      "inputs": [
        {
          "internalType": "uint256",
          "name": "campaignId",
          "type": "uint256"
        }
      ],
      "name": "getOwnerBalance",
      "outputs": [
        {
          "internalType": "uint256",
          "name": "",
          "type": "uint256"
        }
      ],
      "stateMutability": "view",
      "type": "function"
    },
    {
      "inputs": [
        {
          "internalType": "uint256",
          "name": "campaignId",
          "type": "uint256"
        }
      ],
      "name": "getUpdates",
      "outputs": [
        {
          "components": [
            {
              "internalType": "string",
              "name": "title",
              "type": "string"
            },
            {
              "internalType": "string",
              "name": "description",
              "type": "string"
            },
            {
              "internalType": "string[]",
              "name": "images",
              "type": "string[]"
            },
            {
              "internalType": "uint256",
              "name": "timestamp",
              "type": "uint256"
            }
          ],
          "internalType": "struct CharityDonation.Update[]",
          "name": "",
          "type": "tuple[]"
        }
      ],
      "stateMutability": "view",
      "type": "function"
    },
    {
      "inputs": [
        {
          "internalType": "uint256",
          "name": "campaignId",
          "type": "uint256"
        }
      ],
      "name": "isContributor",
      "outputs": [
        {
          "internalType": "bool",
          "name": "",
          "type": "bool"
        }
      ],
      "stateMutability": "view",
      "type": "function"
    },
    {
      "inputs": [
        {
          "internalType": "uint256",
          "name": "campaignId",
          "type": "uint256"
        }
      ],
      "name": "isDeadlineReached",
      "outputs": [
        {
          "internalType": "bool",
          "name": "",
          "type": "bool"
        }
      ],
      "stateMutability": "view",
      "type": "function"
    },
    {
      "inputs": [
        {
          "internalType": "uint256",
          "name": "campaignId",
          "type": "uint256"
        }
      ],
      "name": "isStoredTimeExpired",
      "outputs": [
        {
          "internalType": "bool",
          "name": "",
          "type": "bool"
        }
      ],
      "stateMutability": "view",
      "type": "function"
    },
    {
      "inputs": [
        {
          "internalType": "uint256",
          "name": "campaignId",
          "type": "uint256"
        }
      ],
      "name": "isVotesInFavour",
      "outputs": [
        {
          "internalType": "bool",
          "name": "",
          "type": "bool"
        }
      ],
      "stateMutability": "view",
      "type": "function"
    },
    {
      "inputs": [
        {
          "internalType": "uint256",
          "name": "",
          "type": "uint256"
        }
      ],
      "name": "ownerArray",
      "outputs": [
        {
          "internalType": "address",
          "name": "",
          "type": "address"
        }
      ],
      "stateMutability": "view",
      "type": "function"
    },
    {
      "inputs": [
        {
          "internalType": "uint256",
          "name": "campaignId",
          "type": "uint256"
        }
      ],
      "name": "ownerWithdraw",
      "outputs": [],
      "stateMutability": "nonpayable",
      "type": "function"
    },
    {
      "inputs": [
        {
          "internalType": "address",
          "name": "",
          "type": "address"
        }
      ],
      "name": "owners",
      "outputs": [
        {
          "internalType": "address",
          "name": "owner",
          "type": "address"
        },
        {
          "internalType": "string",
          "name": "ownerName",
          "type": "string"
        },
        {
          "internalType": "bool",
          "name": "verified",
          "type": "bool"
        }
      ],
      "stateMutability": "view",
      "type": "function"
    },
    {
      "inputs": [
        {
          "internalType": "uint256",
          "name": "campaignId",
          "type": "uint256"
        }
      ],
      "name": "refundMyContribution",
      "outputs": [],
      "stateMutability": "nonpayable",
      "type": "function"
    },
    {
      "inputs": [
        {
          "internalType": "string",
          "name": "_description",
          "type": "string"
        },
        {
          "internalType": "uint256",
          "name": "campaignId",
          "type": "uint256"
        }
      ],
      "name": "requestWithdrawal",
      "outputs": [],
      "stateMutability": "nonpayable",
      "type": "function"
    },
    {
      "inputs": [
        {
          "internalType": "uint256",
          "name": "campaignId",
          "type": "uint256"
        },
        {
          "internalType": "string",
          "name": "imageUrl",
          "type": "string"
        }
      ],
      "name": "updateCardImage",
      "outputs": [],
      "stateMutability": "nonpayable",
      "type": "function"
    },
    {
      "inputs": [
        {
          "internalType": "uint256",
          "name": "",
          "type": "uint256"
        },
        {
          "internalType": "uint256",
          "name": "",
          "type": "uint256"
        }
      ],
      "name": "updates",
      "outputs": [
        {
          "internalType": "string",
          "name": "title",
          "type": "string"
        },
        {
          "internalType": "string",
          "name": "description",
          "type": "string"
        },
        {
          "internalType": "uint256",
          "name": "timestamp",
          "type": "uint256"
        }
      ],
      "stateMutability": "view",
      "type": "function"
    },
    {
      "inputs": [
        {
          "internalType": "uint256",
          "name": "campaignId",
          "type": "uint256"
        }
      ],
      "name": "voteForWithdrawal",
      "outputs": [],
      "stateMutability": "nonpayable",
      "type": "function"
    }
  ],
  "bytecode": "0x60806040526000600655348015601457600080fd5b506151b7806100246000396000f3fe60806040526004361061020f5760003560e01c80639b87c11f11610118578063ca1d209d116100a0578063e8d49e101161006f578063e8d49e10146108c0578063f1126589146108fd578063f141bd6014610926578063fa5441611461094f578063ff93478c1461098e5761020f565b8063ca1d209d146107e8578063d9fa9c1a14610804578063e41dae1d14610841578063e6b25dfc146108835761020f565b8063b49b2fd8116100e7578063b49b2fd8146106f3578063b4fde10814610730578063bb1b2ba214610759578063bc24c16b14610782578063c0ffdba0146107ab5761020f565b80639b87c11f14610612578063a4edee251461064f578063aa6d63941461068c578063ab684905146106ca5761020f565b806345f611121161019b578063686cfb9e1161016a578063686cfb9e146105055780636caa9218146105425780637274e30d1461056d5780638ac0d213146105985780638b89ad89146105d55761020f565b806345f61112146104225780634edc3e221461045f5780634f558e791461048b5780635fc28579146104c85761020f565b806316074bd8116101e257806316074bd81461030357806318e48a0b1461034057806333f707d11461037f57806341c0ed5c146103a857806344a8c099146103e55761020f565b8063022914a714610214578063071f8a9814610253578063094fc0341461027c578063141961bc146102bb575b600080fd5b34801561022057600080fd5b5061023b6004803603810190610236919061345e565b6109b7565b60405161024a93929190613545565b60405180910390f35b34801561025f57600080fd5b5061027a600480360381019061027591906136ee565b610a96565b005b34801561028857600080fd5b506102a3600480360381019061029e919061374a565b610cbf565b6040516102b293929190613786565b60405180910390f35b3480156102c757600080fd5b506102e260048036038101906102dd919061374a565b610d16565b6040516102fa9c9b9a99989796959493929190613853565b60405180910390f35b34801561030f57600080fd5b5061032a6004803603810190610325919061374a565b610f6a565b6040516103379190613922565b60405180910390f35b34801561034c57600080fd5b506103676004803603810190610362919061393d565b610fa2565b6040516103769392919061397d565b60405180910390f35b34801561038b57600080fd5b506103a660048036038101906103a1919061374a565b6110f9565b005b3480156103b457600080fd5b506103cf60048036038101906103ca91906139c2565b611322565b6040516103dc9190613a02565b60405180910390f35b3480156103f157600080fd5b5061040c6004803603810190610407919061345e565b611380565b6040516104199190613922565b60405180910390f35b34801561042e57600080fd5b506104496004803603810190610444919061374a565b6113d7565b6040516104569190613adb565b60405180910390f35b34801561046b57600080fd5b5061047461147b565b604051610482929190613bbf565b60405180910390f35b34801561049757600080fd5b506104b260048036038101906104ad919061374a565b6116fd565b6040516104bf9190613922565b60405180910390f35b3480156104d457600080fd5b506104ef60048036038101906104ea919061374a565b61172f565b6040516104fc9190613a02565b60405180910390f35b34801561051157600080fd5b5061052c6004803603810190610527919061374a565b61174f565b6040516105399190613bf6565b60405180910390f35b34801561054e57600080fd5b5061055761178e565b6040516105649190613a02565b60405180910390f35b34801561057957600080fd5b50610582611798565b60405161058f9190613a02565b60405180910390f35b3480156105a457600080fd5b506105bf60048036038101906105ba919061345e565b61179e565b6040516105cc9190613c11565b60405180910390f35b3480156105e157600080fd5b506105fc60048036038101906105f7919061374a565b61183e565b6040516106099190613c11565b60405180910390f35b34801561061e57600080fd5b506106396004803603810190610634919061374a565b6118e3565b6040516106469190613922565b60405180910390f35b34801561065b57600080fd5b506106766004803603810190610671919061374a565b611942565b6040516106839190613922565b60405180910390f35b34801561069857600080fd5b506106b360048036038101906106ae919061374a565b611979565b6040516106c1929190613c33565b60405180910390f35b3480156106d657600080fd5b506106f160048036038101906106ec9190613c5c565b6119c3565b005b3480156106ff57600080fd5b5061071a6004803603810190610715919061374a565b611a77565b6040516107279190613922565b60405180910390f35b34801561073c57600080fd5b5061075760048036038101906107529190613cb8565b611a99565b005b34801561076557600080fd5b50610780600480360381019061077b919061374a565b611cd0565b005b34801561078e57600080fd5b506107a960048036038101906107a4919061374a565b611eab565b005b3480156107b757600080fd5b506107d260048036038101906107cd919061374a565b612098565b6040516107df9190613f5a565b60405180910390f35b61080260048036038101906107fd919061374a565b612311565b005b34801561081057600080fd5b5061082b6004803603810190610826919061345e565b612554565b6040516108389190613922565b60405180910390f35b34801561084d57600080fd5b506108686004803603810190610863919061374a565b6125a0565b60405161087a96959493929190613f7c565b60405180910390f35b34801561088f57600080fd5b506108aa60048036038101906108a5919061374a565b61277e565b6040516108b79190613c11565b60405180910390f35b3480156108cc57600080fd5b506108e760048036038101906108e2919061374a565b61281e565b6040516108f49190613922565b60405180910390f35b34801561090957600080fd5b50610924600480360381019061091f9190613feb565b612888565b005b34801561093257600080fd5b5061094d60048036038101906109489190614047565b6129b4565b005b34801561095b57600080fd5b506109766004803603810190610971919061345e565b612c9f565b60405161098593929190613545565b60405180910390f35b34801561099a57600080fd5b506109b560048036038101906109b09190614176565b612e11565b005b60006020528060005260406000206000915090508060000160009054906101000a900473ffffffffffffffffffffffffffffffffffffffff1690806001018054610a0090614260565b80601f0160208091040260200160405190810160405280929190818152602001828054610a2c90614260565b8015610a795780601f10610a4e57610100808354040283529160200191610a79565b820191906000526020600020905b815481529060010190602001808311610a5c57829003601f168201915b5050505050908060020160009054906101000a900460ff16905083565b806001600082815260200190815260200160002060000160009054906101000a900473ffffffffffffffffffffffffffffffffffffffff1673ffffffffffffffffffffffffffffffffffffffff163373ffffffffffffffffffffffffffffffffffffffff1614610b3b576040517f08c379a0000000000000000000000000000000000000000000000000000000008152600401610b3290614303565b60405180910390fd5b60016000838152602001908152602001600020600e0160010160009054906101000a900460ff1615610ba2576040517f08c379a0000000000000000000000000000000000000000000000000000000008152600401610b999061436f565b60405180910390fd5b606460506001600085815260200190815260200160002060040154610bc791906143be565b610bd1919061442f565b60016000848152602001908152602001600020600701541015610c29576040517f08c379a0000000000000000000000000000000000000000000000000000000008152600401610c20906144ac565b60405180910390fd5b8260016000848152602001908152602001600020600e016000019081610c4f9190614678565b506001806000848152602001908152602001600020600e0160010160006101000a81548160ff0219169083151502179055507fe21ee65d22ca73e62948637516eafe929496dca7c69123043c20b414526ca8d98284604051610cb292919061474a565b60405180910390a1505050565b60008060006001600085815260200190815260200160002060040154600160008681526020019081526020016000206007015460016000878152602001908152602001600020600801549250925092509193909250565b60016020528060005260406000206000915090508060000160009054906101000a900473ffffffffffffffffffffffffffffffffffffffff1690806001015490806002018054610d6590614260565b80601f0160208091040260200160405190810160405280929190818152602001828054610d9190614260565b8015610dde5780601f10610db357610100808354040283529160200191610dde565b820191906000526020600020905b815481529060010190602001808311610dc157829003601f168201915b505050505090806003018054610df390614260565b80601f0160208091040260200160405190810160405280929190818152602001828054610e1f90614260565b8015610e6c5780601f10610e4157610100808354040283529160200191610e6c565b820191906000526020600020905b815481529060010190602001808311610e4f57829003601f168201915b5050505050908060040154908060050154908060060154908060070154908060080154908060090160009054906101000a900460ff169080600d01549080600e01604051806040016040529081600082018054610ec890614260565b80601f0160208091040260200160405190810160405280929190818152602001828054610ef490614260565b8015610f415780601f10610f1657610100808354040283529160200191610f41565b820191906000526020600020905b815481529060010190602001808311610f2457829003601f168201915b505050505081526020016001820160009054906101000a900460ff16151515158152505090508c565b60008060016000848152602001908152602001600020905080600501544210610f97576001915050610f9d565b60009150505b919050565b60036020528160005260406000208181548110610fbe57600080fd5b906000526020600020906004020160009150915050806000018054610fe290614260565b80601f016020809104026020016040519081016040528092919081815260200182805461100e90614260565b801561105b5780601f106110305761010080835404028352916020019161105b565b820191906000526020600020905b81548152906001019060200180831161103e57829003601f168201915b50505050509080600101805461107090614260565b80601f016020809104026020016040519081016040528092919081815260200182805461109c90614260565b80156110e95780601f106110be576101008083540402835291602001916110e9565b820191906000526020600020905b8154815290600101906020018083116110cc57829003601f168201915b5050505050908060030154905083565b60006001600083815260200190815260200160002090508060000160009054906101000a900473ffffffffffffffffffffffffffffffffffffffff1673ffffffffffffffffffffffffffffffffffffffff163373ffffffffffffffffffffffffffffffffffffffff16146111a2576040517f08c379a0000000000000000000000000000000000000000000000000000000008152600401611199906147c6565b60405180910390fd5b80600501544210156111e9576040517f08c379a00000000000000000000000000000000000000000000000000000000081526004016111e090614832565b60405180910390fd5b600281600801546111fa919061442f565b81600d01541161123f576040517f08c379a0000000000000000000000000000000000000000000000000000000008152600401611236906148c4565b60405180910390fd5b6000816007015490506000811161128b576040517f08c379a000000000000000000000000000000000000000000000000000000000815260040161128290614930565b60405180910390fd5b6000826007018190555060008260090160006101000a81548160ff0219169083151502179055508160000160009054906101000a900473ffffffffffffffffffffffffffffffffffffffff1673ffffffffffffffffffffffffffffffffffffffff166108fc829081150290604051600060405180830381858888f1935050505015801561131c573d6000803e3d6000fd5b50505050565b600060016000848152602001908152602001600020600a0160008373ffffffffffffffffffffffffffffffffffffffff1673ffffffffffffffffffffffffffffffffffffffff16815260200190815260200160002054905092915050565b600080600460008473ffffffffffffffffffffffffffffffffffffffff1673ffffffffffffffffffffffffffffffffffffffff16815260200190815260200160002080546113cd90614260565b9050119050919050565b606060016000838152602001908152602001600020600c0180548060200260200160405190810160405280929190818152602001828054801561146f57602002820191906000526020600020905b8160009054906101000a900473ffffffffffffffffffffffffffffffffffffffff1673ffffffffffffffffffffffffffffffffffffffff1681526020019060010190808311611425575b50505050509050919050565b6060806000600580549050905060008167ffffffffffffffff8111156114a4576114a361358d565b5b6040519080825280602002602001820160405280156114d25781602001602082028036833780820191505090505b50905060008267ffffffffffffffff8111156114f1576114f061358d565b5b60405190808252806020026020018201604052801561152457816020015b606081526020019060019003908161150f5790505b50905060005b838110156116ef576005818154811061154657611545614950565b5b9060005260206000200160009054906101000a900473ffffffffffffffffffffffffffffffffffffffff1683828151811061158457611583614950565b5b602002602001019073ffffffffffffffffffffffffffffffffffffffff16908173ffffffffffffffffffffffffffffffffffffffff168152505060046000600583815481106115d6576115d5614950565b5b9060005260206000200160009054906101000a900473ffffffffffffffffffffffffffffffffffffffff1673ffffffffffffffffffffffffffffffffffffffff1673ffffffffffffffffffffffffffffffffffffffff168152602001908152602001600020805461164690614260565b80601f016020809104026020016040519081016040528092919081815260200182805461167290614260565b80156116bf5780601f10611694576101008083540402835291602001916116bf565b820191906000526020600020905b8154815290600101906020018083116116a257829003601f168201915b50505050508282815181106116d7576116d6614950565b5b6020026020010181905250808060010191505061152a565b508181945094505050509091565b6000806001600084815260200190815260200160002090508060090160009054906101000a900460ff16915050919050565b600060016000838152602001908152602001600020600701549050919050565b6005818154811061175f57600080fd5b906000526020600020016000915054906101000a900473ffffffffffffffffffffffffffffffffffffffff1681565b6000600654905090565b60065481565b600460205280600052604060002060009150905080546117bd90614260565b80601f01602080910402602001604051908101604052809291908181526020018280546117e990614260565b80156118365780601f1061180b57610100808354040283529160200191611836565b820191906000526020600020905b81548152906001019060200180831161181957829003601f168201915b505050505081565b606060026000838152602001908152602001600020805461185e90614260565b80601f016020809104026020016040519081016040528092919081815260200182805461188a90614260565b80156118d75780601f106118ac576101008083540402835291602001916118d7565b820191906000526020600020905b8154815290600101906020018083116118ba57829003601f168201915b50505050509050919050565b60008060016000848152602001908152602001600020600a0160003373ffffffffffffffffffffffffffffffffffffffff1673ffffffffffffffffffffffffffffffffffffffff16815260200190815260200160002054119050919050565b6000806001600084815260200190815260200160002090506002816008015461196b919061442f565b81600d015411915050919050565b60008060016000848152602001908152602001600020600e0160010160009054906101000a900460ff1660016000858152602001908152602001600020600d015491509150915091565b80600460008473ffffffffffffffffffffffffffffffffffffffff1673ffffffffffffffffffffffffffffffffffffffff1681526020019081526020016000209081611a0f9190614678565b506005829080600181540180825580915050600190039060005260206000200160009091909190916101000a81548173ffffffffffffffffffffffffffffffffffffffff021916908373ffffffffffffffffffffffffffffffffffffffff1602179055505050565b6000426001600084815260200190815260200160002060050154109050919050565b6000603c83611aa891906143be565b610e1085611ab691906143be565b6201518087611ac591906143be565b611acf919061497f565b611ad9919061497f565b905060008111611b1e576040517f08c379a0000000000000000000000000000000000000000000000000000000008152600401611b1590614a25565b60405180910390fd5b60008142611b2c919061497f565b905060006001600060065481526020019081526020016000209050600654816001018190555089816002019081611b639190614678565b5088816003019081611b759190614678565b508781600401819055508181600501819055508381600601819055506000816007018190555060008160080181905550338160000160006101000a81548173ffffffffffffffffffffffffffffffffffffffff021916908373ffffffffffffffffffffffffffffffffffffffff16021790555060405180604001604052806040518060200160405280600081525081526020016000151581525081600e016000820151816000019081611c289190614678565b5060208201518160010160006101000a81548160ff02191690831515021790555090505060018160090160006101000a81548160ff0219169083151502179055507fd375203c1b7c7b8b86a069706b2b59bf0267922e586ada570e5d9b55525bacf96006548b8a8460050154604051611ca49493929190614a45565b60405180910390a160066000815480929190611cbf90614a91565b919050555050505050505050505050565b6000600160008381526020019081526020016000209050600081600a0160003373ffffffffffffffffffffffffffffffffffffffff1673ffffffffffffffffffffffffffffffffffffffff1681526020019081526020016000205411611d6b576040517f08c379a0000000000000000000000000000000000000000000000000000000008152600401611d6290614b25565b60405180910390fd5b80600b0160003373ffffffffffffffffffffffffffffffffffffffff1673ffffffffffffffffffffffffffffffffffffffff16815260200190815260200160002060009054906101000a900460ff1615611dfa576040517f08c379a0000000000000000000000000000000000000000000000000000000008152600401611df190614b91565b60405180910390fd5b600181600b0160003373ffffffffffffffffffffffffffffffffffffffff1673ffffffffffffffffffffffffffffffffffffffff16815260200190815260200160002060006101000a81548160ff02191690831515021790555080600d016000815480929190611e6990614a91565b91905055507fd8d46ecf72f6103ff400e47d1b5fdfe248d4ca34a4acd39f63fbe903c8f7e7bd8233604051611e9f929190614bb1565b60405180910390a15050565b6000600160008381526020019081526020016000209050600081600a0160003373ffffffffffffffffffffffffffffffffffffffff1673ffffffffffffffffffffffffffffffffffffffff16815260200190815260200160002054905060008111611f4b576040517f08c379a0000000000000000000000000000000000000000000000000000000008152600401611f4290614c4c565b60405180910390fd5b6000151582600b0160003373ffffffffffffffffffffffffffffffffffffffff1673ffffffffffffffffffffffffffffffffffffffff16815260200190815260200160002060009054906101000a900460ff16151514611fe0576040517f08c379a0000000000000000000000000000000000000000000000000000000008152600401611fd790614cde565b60405180910390fd5b3373ffffffffffffffffffffffffffffffffffffffff166108fc829081150290604051600060405180830381858888f19350505050158015612026573d6000803e3d6000fd5b508082600701600082825461203b9190614cfe565b92505081905550600082600a0160003373ffffffffffffffffffffffffffffffffffffffff1673ffffffffffffffffffffffffffffffffffffffff168152602001908152602001600020819055506120938333613084565b505050565b606060036000838152602001908152602001600020805480602002602001604051908101604052809291908181526020016000905b82821015612306578382906000526020600020906004020160405180608001604052908160008201805461210090614260565b80601f016020809104026020016040519081016040528092919081815260200182805461212c90614260565b80156121795780601f1061214e57610100808354040283529160200191612179565b820191906000526020600020905b81548152906001019060200180831161215c57829003601f168201915b5050505050815260200160018201805461219290614260565b80601f01602080910402602001604051908101604052809291908181526020018280546121be90614260565b801561220b5780601f106121e05761010080835404028352916020019161220b565b820191906000526020600020905b8154815290600101906020018083116121ee57829003601f168201915b5050505050815260200160028201805480602002602001604051908101604052809291908181526020016000905b828210156122e557838290600052602060002001805461225890614260565b80601f016020809104026020016040519081016040528092919081815260200182805461228490614260565b80156122d15780601f106122a6576101008083540402835291602001916122d1565b820191906000526020600020905b8154815290600101906020018083116122b457829003601f168201915b505050505081526020019060010190612239565b505050508152602001600382015481525050815260200190600101906120cd565b505050509050919050565b600160008281526020019081526020016000206006015434101561236a576040517f08c379a000000000000000000000000000000000000000000000000000000000815260040161236190614da4565b60405180910390fd5b600160008281526020019081526020016000206005015442106123c2576040517f08c379a00000000000000000000000000000000000000000000000000000000081526004016123b990614e10565b60405180910390fd5b6000600160008381526020019081526020016000209050600081600a0160003373ffffffffffffffffffffffffffffffffffffffff1673ffffffffffffffffffffffffffffffffffffffff16815260200190815260200160002054036124a25780600c01339080600181540180825580915050600190039060005260206000200160009091909190916101000a81548173ffffffffffffffffffffffffffffffffffffffff021916908373ffffffffffffffffffffffffffffffffffffffff16021790555080600801600081548092919061249c90614a91565b91905055505b3481600a0160003373ffffffffffffffffffffffffffffffffffffffff1673ffffffffffffffffffffffffffffffffffffffff16815260200190815260200160002060008282546124f3919061497f565b925050819055503481600701600082825461250e919061497f565b925050819055507f38c48552690c96ec2872092ac1db6c19fb59f5a8c5b49bbf41ed4886d0ca692682333460405161254893929190614e30565b60405180910390a15050565b60007370997970c51812dc3a010c7d01b50e0d17dc79c873ffffffffffffffffffffffffffffffffffffffff168273ffffffffffffffffffffffffffffffffffffffff16149050919050565b6000806060806000806001600088815260200190815260200160002060000160009054906101000a900473ffffffffffffffffffffffffffffffffffffffff166001600089815260200190815260200160002060010154600160008a8152602001908152602001600020600201600160008b8152602001908152602001600020600301600160008c815260200190815260200160002060060154600160008d81526020019081526020016000206005015483805461265d90614260565b80601f016020809104026020016040519081016040528092919081815260200182805461268990614260565b80156126d65780601f106126ab576101008083540402835291602001916126d6565b820191906000526020600020905b8154815290600101906020018083116126b957829003601f168201915b505050505093508280546126e990614260565b80601f016020809104026020016040519081016040528092919081815260200182805461271590614260565b80156127625780601f1061273757610100808354040283529160200191612762565b820191906000526020600020905b81548152906001019060200180831161274557829003601f168201915b5050505050925095509550955095509550955091939550919395565b6002602052806000526040600020600091509050805461279d90614260565b80601f01602080910402602001604051908101604052809291908181526020018280546127c990614260565b80156128165780601f106127eb57610100808354040283529160200191612816565b820191906000526020600020905b8154815290600101906020018083116127f957829003601f168201915b505050505081565b600060016000838152602001908152602001600020600b0160003373ffffffffffffffffffffffffffffffffffffffff1673ffffffffffffffffffffffffffffffffffffffff16815260200190815260200160002060009054906101000a900460ff169050919050565b6001600083815260200190815260200160002060090160009054906101000a900460ff166128eb576040517f08c379a00000000000000000000000000000000000000000000000000000000081526004016128e290614eb3565b60405180910390fd5b6001600083815260200190815260200160002060000160009054906101000a900473ffffffffffffffffffffffffffffffffffffffff1673ffffffffffffffffffffffffffffffffffffffff163373ffffffffffffffffffffffffffffffffffffffff161461298f576040517f08c379a000000000000000000000000000000000000000000000000000000000815260040161298690614f1f565b60405180910390fd5b806002600084815260200190815260200160002090816129af9190614678565b505050565b600073ffffffffffffffffffffffffffffffffffffffff166000803373ffffffffffffffffffffffffffffffffffffffff1673ffffffffffffffffffffffffffffffffffffffff16815260200190815260200160002060000160009054906101000a900473ffffffffffffffffffffffffffffffffffffffff1673ffffffffffffffffffffffffffffffffffffffff1614612a84576040517f08c379a0000000000000000000000000000000000000000000000000000000008152600401612a7b90614f8b565b60405180910390fd5b336000803373ffffffffffffffffffffffffffffffffffffffff1673ffffffffffffffffffffffffffffffffffffffff16815260200190815260200160002060000160006101000a81548173ffffffffffffffffffffffffffffffffffffffff021916908373ffffffffffffffffffffffffffffffffffffffff160217905550806000803373ffffffffffffffffffffffffffffffffffffffff1673ffffffffffffffffffffffffffffffffffffffff1681526020019081526020016000206001019081612b529190614678565b5060016000803373ffffffffffffffffffffffffffffffffffffffff1673ffffffffffffffffffffffffffffffffffffffff16815260200190815260200160002060020160006101000a81548160ff0219169083151502179055506000803373ffffffffffffffffffffffffffffffffffffffff1673ffffffffffffffffffffffffffffffffffffffff16815260200190815260200160002060000160009054906101000a900473ffffffffffffffffffffffffffffffffffffffff1673ffffffffffffffffffffffffffffffffffffffff167f7adcb4720057d6b9b1d9dc7f206a6dc456794ecdbf145763cc55d76930c3ab866000803373ffffffffffffffffffffffffffffffffffffffff1673ffffffffffffffffffffffffffffffffffffffff168152602001908152602001600020600101604051612c94919061502f565b60405180910390a250565b600060606000806000808673ffffffffffffffffffffffffffffffffffffffff1673ffffffffffffffffffffffffffffffffffffffff1681526020019081526020016000206040518060600160405290816000820160009054906101000a900473ffffffffffffffffffffffffffffffffffffffff1673ffffffffffffffffffffffffffffffffffffffff1673ffffffffffffffffffffffffffffffffffffffff168152602001600182018054612d5590614260565b80601f0160208091040260200160405190810160405280929190818152602001828054612d8190614260565b8015612dce5780601f10612da357610100808354040283529160200191612dce565b820191906000526020600020905b815481529060010190602001808311612db157829003601f168201915b505050505081526020016002820160009054906101000a900460ff1615151515815250509050806000015181602001518260400151935093509350509193909250565b836001600082815260200190815260200160002060000160009054906101000a900473ffffffffffffffffffffffffffffffffffffffff1673ffffffffffffffffffffffffffffffffffffffff163373ffffffffffffffffffffffffffffffffffffffff1614612eb6576040517f08c379a0000000000000000000000000000000000000000000000000000000008152600401612ead90614303565b60405180910390fd5b6001600086815260200190815260200160002060090160009054906101000a900460ff16612f19576040517f08c379a0000000000000000000000000000000000000000000000000000000008152600401612f1090614eb3565b60405180910390fd5b6001600086815260200190815260200160002060000160009054906101000a900473ffffffffffffffffffffffffffffffffffffffff1673ffffffffffffffffffffffffffffffffffffffff163373ffffffffffffffffffffffffffffffffffffffff1614612fbd576040517f08c379a0000000000000000000000000000000000000000000000000000000008152600401612fb49061509d565b60405180910390fd5b612fc56132ea565b8481600001819052508381602001819052508281604001819052504281606001818152505060036000878152602001908152602001600020819080600181540180825580915050600190039060005260206000209060040201600090919091909150600082015181600001908161303c9190614678565b5060208201518160010190816130529190614678565b50604082015181600201908051906020019061306f929190613312565b50606082015181600301555050505050505050565b60006001600084815260200190815260200160002090506000806000905060005b83600c0180549050811015613140578473ffffffffffffffffffffffffffffffffffffffff1684600c0182815481106130e1576130e0614950565b5b9060005260206000200160009054906101000a900473ffffffffffffffffffffffffffffffffffffffff1673ffffffffffffffffffffffffffffffffffffffff16036131335780925060019150613140565b80806001019150506130a5565b5080613181576040517f08c379a000000000000000000000000000000000000000000000000000000000815260040161317890615109565b60405180910390fd5b6000600184600c01805490506131979190614cfe565b905083600c0181815481106131af576131ae614950565b5b9060005260206000200160009054906101000a900473ffffffffffffffffffffffffffffffffffffffff1684600c0184815481106131f0576131ef614950565b5b9060005260206000200160006101000a81548173ffffffffffffffffffffffffffffffffffffffff021916908373ffffffffffffffffffffffffffffffffffffffff16021790555083600c0180548061324c5761324b615129565b5b6001900381819060005260206000200160006101000a81549073ffffffffffffffffffffffffffffffffffffffff02191690559055600084600a0160008773ffffffffffffffffffffffffffffffffffffffff1673ffffffffffffffffffffffffffffffffffffffff168152602001908152602001600020819055508360080160008154809291906132dd90615158565b9190505550505050505050565b6040518060800160405280606081526020016060815260200160608152602001600081525090565b82805482825590600052602060002090810192821561335a579160200282015b828111156133595782518290816133499190614678565b5091602001919060010190613332565b5b509050613367919061336b565b5090565b5b8082111561338b5760008181613382919061338f565b5060010161336c565b5090565b50805461339b90614260565b6000825580601f106133ad57506133cc565b601f0160209004906000526020600020908101906133cb91906133cf565b5b50565b5b808211156133e85760008160009055506001016133d0565b5090565b6000604051905090565b600080fd5b600080fd5b600073ffffffffffffffffffffffffffffffffffffffff82169050919050565b600061342b82613400565b9050919050565b61343b81613420565b811461344657600080fd5b50565b60008135905061345881613432565b92915050565b600060208284031215613474576134736133f6565b5b600061348284828501613449565b91505092915050565b61349481613420565b82525050565b600081519050919050565b600082825260208201905092915050565b60005b838110156134d45780820151818401526020810190506134b9565b60008484015250505050565b6000601f19601f8301169050919050565b60006134fc8261349a565b61350681856134a5565b93506135168185602086016134b6565b61351f816134e0565b840191505092915050565b60008115159050919050565b61353f8161352a565b82525050565b600060608201905061355a600083018661348b565b818103602083015261356c81856134f1565b905061357b6040830184613536565b949350505050565b600080fd5b600080fd5b7f4e487b7100000000000000000000000000000000000000000000000000000000600052604160045260246000fd5b6135c5826134e0565b810181811067ffffffffffffffff821117156135e4576135e361358d565b5b80604052505050565b60006135f76133ec565b905061360382826135bc565b919050565b600067ffffffffffffffff8211156136235761362261358d565b5b61362c826134e0565b9050602081019050919050565b82818337600083830152505050565b600061365b61365684613608565b6135ed565b90508281526020810184848401111561367757613676613588565b5b613682848285613639565b509392505050565b600082601f83011261369f5761369e613583565b5b81356136af848260208601613648565b91505092915050565b6000819050919050565b6136cb816136b8565b81146136d657600080fd5b50565b6000813590506136e8816136c2565b92915050565b60008060408385031215613705576137046133f6565b5b600083013567ffffffffffffffff811115613723576137226133fb565b5b61372f8582860161368a565b9250506020613740858286016136d9565b9150509250929050565b6000602082840312156137605761375f6133f6565b5b600061376e848285016136d9565b91505092915050565b613780816136b8565b82525050565b600060608201905061379b6000830186613777565b6137a86020830185613777565b6137b56040830184613777565b949350505050565b600082825260208201905092915050565b60006137d98261349a565b6137e381856137bd565b93506137f38185602086016134b6565b6137fc816134e0565b840191505092915050565b6138108161352a565b82525050565b6000604083016000830151848203600086015261383382826137ce565b91505060208301516138486020860182613807565b508091505092915050565b600061018082019050613869600083018f61348b565b613876602083018e613777565b8181036040830152613888818d6134f1565b9050818103606083015261389c818c6134f1565b90506138ab608083018b613777565b6138b860a083018a613777565b6138c560c0830189613777565b6138d260e0830188613777565b6138e0610100830187613777565b6138ee610120830186613536565b6138fc610140830185613777565b81810361016083015261390f8184613816565b90509d9c50505050505050505050505050565b60006020820190506139376000830184613536565b92915050565b60008060408385031215613954576139536133f6565b5b6000613962858286016136d9565b9250506020613973858286016136d9565b9150509250929050565b6000606082019050818103600083015261399781866134f1565b905081810360208301526139ab81856134f1565b90506139ba6040830184613777565b949350505050565b600080604083850312156139d9576139d86133f6565b5b60006139e7858286016136d9565b92505060206139f885828601613449565b9150509250929050565b6000602082019050613a176000830184613777565b92915050565b600081519050919050565b600082825260208201905092915050565b6000819050602082019050919050565b613a5281613420565b82525050565b6000613a648383613a49565b60208301905092915050565b6000602082019050919050565b6000613a8882613a1d565b613a928185613a28565b9350613a9d83613a39565b8060005b83811015613ace578151613ab58882613a58565b9750613ac083613a70565b925050600181019050613aa1565b5085935050505092915050565b60006020820190508181036000830152613af58184613a7d565b905092915050565b600081519050919050565b600082825260208201905092915050565b6000819050602082019050919050565b6000613b3583836137ce565b905092915050565b6000602082019050919050565b6000613b5582613afd565b613b5f8185613b08565b935083602082028501613b7185613b19565b8060005b85811015613bad5784840389528151613b8e8582613b29565b9450613b9983613b3d565b925060208a01995050600181019050613b75565b50829750879550505050505092915050565b60006040820190508181036000830152613bd98185613a7d565b90508181036020830152613bed8184613b4a565b90509392505050565b6000602082019050613c0b600083018461348b565b92915050565b60006020820190508181036000830152613c2b81846134f1565b905092915050565b6000604082019050613c486000830185613536565b613c556020830184613777565b9392505050565b60008060408385031215613c7357613c726133f6565b5b6000613c8185828601613449565b925050602083013567ffffffffffffffff811115613ca257613ca16133fb565b5b613cae8582860161368a565b9150509250929050565b600080600080600080600060e0888a031215613cd757613cd66133f6565b5b600088013567ffffffffffffffff811115613cf557613cf46133fb565b5b613d018a828b0161368a565b975050602088013567ffffffffffffffff811115613d2257613d216133fb565b5b613d2e8a828b0161368a565b9650506040613d3f8a828b016136d9565b9550506060613d508a828b016136d9565b9450506080613d618a828b016136d9565b93505060a0613d728a828b016136d9565b92505060c0613d838a828b016136d9565b91505092959891949750929550565b600081519050919050565b600082825260208201905092915050565b6000819050602082019050919050565b600082825260208201905092915050565b6000613dda82613afd565b613de48185613dbe565b935083602082028501613df685613b19565b8060005b85811015613e325784840389528151613e138582613b29565b9450613e1e83613b3d565b925060208a01995050600181019050613dfa565b50829750879550505050505092915050565b613e4d816136b8565b82525050565b60006080830160008301518482036000860152613e7082826137ce565b91505060208301518482036020860152613e8a82826137ce565b91505060408301518482036040860152613ea48282613dcf565b9150506060830151613eb96060860182613e44565b508091505092915050565b6000613ed08383613e53565b905092915050565b6000602082019050919050565b6000613ef082613d92565b613efa8185613d9d565b935083602082028501613f0c85613dae565b8060005b85811015613f485784840389528151613f298582613ec4565b9450613f3483613ed8565b925060208a01995050600181019050613f10565b50829750879550505050505092915050565b60006020820190508181036000830152613f748184613ee5565b905092915050565b600060c082019050613f91600083018961348b565b613f9e6020830188613777565b8181036040830152613fb081876134f1565b90508181036060830152613fc481866134f1565b9050613fd36080830185613777565b613fe060a0830184613777565b979650505050505050565b60008060408385031215614002576140016133f6565b5b6000614010858286016136d9565b925050602083013567ffffffffffffffff811115614031576140306133fb565b5b61403d8582860161368a565b9150509250929050565b60006020828403121561405d5761405c6133f6565b5b600082013567ffffffffffffffff81111561407b5761407a6133fb565b5b6140878482850161368a565b91505092915050565b600067ffffffffffffffff8211156140ab576140aa61358d565b5b602082029050602081019050919050565b600080fd5b60006140d46140cf84614090565b6135ed565b905080838252602082019050602084028301858111156140f7576140f66140bc565b5b835b8181101561413e57803567ffffffffffffffff81111561411c5761411b613583565b5b808601614129898261368a565b855260208501945050506020810190506140f9565b5050509392505050565b600082601f83011261415d5761415c613583565b5b813561416d8482602086016140c1565b91505092915050565b600080600080608085870312156141905761418f6133f6565b5b600061419e878288016136d9565b945050602085013567ffffffffffffffff8111156141bf576141be6133fb565b5b6141cb8782880161368a565b935050604085013567ffffffffffffffff8111156141ec576141eb6133fb565b5b6141f88782880161368a565b925050606085013567ffffffffffffffff811115614219576142186133fb565b5b61422587828801614148565b91505092959194509250565b7f4e487b7100000000000000000000000000000000000000000000000000000000600052602260045260246000fd5b6000600282049050600182168061427857607f821691505b60208210810361428b5761428a614231565b5b50919050565b7f4f6e6c79206f776e65722063616e2063616c6c20746869732066756e6374696f60008201527f6e00000000000000000000000000000000000000000000000000000000000000602082015250565b60006142ed6021836134a5565b91506142f882614291565b604082019050919050565b6000602082019050818103600083015261431c816142e0565b9050919050565b7f526571756573742068617320616c7265616479206265656e2063726561746564600082015250565b60006143596020836134a5565b915061436482614323565b602082019050919050565b600060208201905081810360008301526143888161434c565b9050919050565b7f4e487b7100000000000000000000000000000000000000000000000000000000600052601160045260246000fd5b60006143c9826136b8565b91506143d4836136b8565b92508282026143e2816136b8565b915082820484148315176143f9576143f861438f565b5b5092915050565b7f4e487b7100000000000000000000000000000000000000000000000000000000600052601260045260246000fd5b600061443a826136b8565b9150614445836136b8565b92508261445557614454614400565b5b828204905092915050565b7f476f616c20686173206e6f74206265656e207265616368656400000000000000600082015250565b60006144966019836134a5565b91506144a182614460565b602082019050919050565b600060208201905081810360008301526144c581614489565b9050919050565b60008190508160005260206000209050919050565b60006020601f8301049050919050565b600082821b905092915050565b60006008830261452e7fffffffffffffffffffffffffffffffffffffffffffffffffffffffffffffffff826144f1565b61453886836144f1565b95508019841693508086168417925050509392505050565b6000819050919050565b600061457561457061456b846136b8565b614550565b6136b8565b9050919050565b6000819050919050565b61458f8361455a565b6145a361459b8261457c565b8484546144fe565b825550505050565b600090565b6145b86145ab565b6145c3818484614586565b505050565b5b818110156145e7576145dc6000826145b0565b6001810190506145c9565b5050565b601f82111561462c576145fd816144cc565b614606846144e1565b81016020851015614615578190505b614629614621856144e1565b8301826145c8565b50505b505050565b600082821c905092915050565b600061464f60001984600802614631565b1980831691505092915050565b6000614668838361463e565b9150826002028217905092915050565b6146818261349a565b67ffffffffffffffff81111561469a5761469961358d565b5b6146a48254614260565b6146af8282856145eb565b600060209050601f8311600181146146e257600084156146d0578287015190505b6146da858261465c565b865550614742565b601f1984166146f0866144cc565b60005b82811015614718578489015182556001820191506020850194506020810190506146f3565b868310156147355784890151614731601f89168261463e565b8355505b6001600288020188555050505b505050505050565b600060408201905061475f6000830185613777565b818103602083015261477181846134f1565b90509392505050565b7f4f6e6c7920746865206f776e65722063616e2077697468647261770000000000600082015250565b60006147b0601b836134a5565b91506147bb8261477a565b602082019050919050565b600060208201905081810360008301526147df816147a3565b9050919050565b7f446561646c696e65206e6f742072656163686564000000000000000000000000600082015250565b600061481c6014836134a5565b9150614827826147e6565b602082019050919050565b6000602082019050818103600083015261484b8161480f565b9050919050565b7f566f74657320617265206c657373207468616e20353025206f6620636f6e747260008201527f696275746f727300000000000000000000000000000000000000000000000000602082015250565b60006148ae6027836134a5565b91506148b982614852565b604082019050919050565b600060208201905081810360008301526148dd816148a1565b9050919050565b7f4e6f2066756e647320617661696c61626c650000000000000000000000000000600082015250565b600061491a6012836134a5565b9150614925826148e4565b602082019050919050565b600060208201905081810360008301526149498161490d565b9050919050565b7f4e487b7100000000000000000000000000000000000000000000000000000000600052603260045260246000fd5b600061498a826136b8565b9150614995836136b8565b92508282019050808211156149ad576149ac61438f565b5b92915050565b7f546f74616c206475726174696f6e206d7573742062652067726561746572207460008201527f68616e207a65726f000000000000000000000000000000000000000000000000602082015250565b6000614a0f6028836134a5565b9150614a1a826149b3565b604082019050919050565b60006020820190508181036000830152614a3e81614a02565b9050919050565b6000608082019050614a5a6000830187613777565b8181036020830152614a6c81866134f1565b9050614a7b6040830185613777565b614a886060830184613777565b95945050505050565b6000614a9c826136b8565b91507fffffffffffffffffffffffffffffffffffffffffffffffffffffffffffffffff8203614ace57614acd61438f565b5b600182019050919050565b7f4f6e6c7920636f6e7472696275746f72732063616e20766f7465000000000000600082015250565b6000614b0f601a836134a5565b9150614b1a82614ad9565b602082019050919050565b60006020820190508181036000830152614b3e81614b02565b9050919050565b7f416c726561647920766f74656400000000000000000000000000000000000000600082015250565b6000614b7b600d836134a5565b9150614b8682614b45565b602082019050919050565b60006020820190508181036000830152614baa81614b6e565b9050919050565b6000604082019050614bc66000830185613777565b614bd3602083018461348b565b9392505050565b7f596f752068617665206e6f7420636f6e747269627574656420746f207468697360008201527f2063616d706169676e0000000000000000000000000000000000000000000000602082015250565b6000614c366029836134a5565b9150614c4182614bda565b604082019050919050565b60006020820190508181036000830152614c6581614c29565b9050919050565b7f596f75206861766520616c726561647920766f7465642c206e6f20726566756e60008201527f6400000000000000000000000000000000000000000000000000000000000000602082015250565b6000614cc86021836134a5565b9150614cd382614c6c565b604082019050919050565b60006020820190508181036000830152614cf781614cbb565b9050919050565b6000614d09826136b8565b9150614d14836136b8565b9250828203905081811115614d2c57614d2b61438f565b5b92915050565b7f4d7573742066756e6420616d6f756e742067726561746572207468616e206d6960008201527f6e20636f6e747269627574696f6e000000000000000000000000000000000000602082015250565b6000614d8e602e836134a5565b9150614d9982614d32565b604082019050919050565b60006020820190508181036000830152614dbd81614d81565b9050919050565b7f43616d706169676e2068617320656e6465640000000000000000000000000000600082015250565b6000614dfa6012836134a5565b9150614e0582614dc4565b602082019050919050565b60006020820190508181036000830152614e2981614ded565b9050919050565b6000606082019050614e456000830186613777565b614e52602083018561348b565b614e5f6040830184613777565b949350505050565b7f43616d706169676e20646f6573206e6f74206578697374000000000000000000600082015250565b6000614e9d6017836134a5565b9150614ea882614e67565b602082019050919050565b60006020820190508181036000830152614ecc81614e90565b9050919050565b7f4f6e6c79206f776e65722063616e20757064617465206361726420696d616765600082015250565b6000614f096020836134a5565b9150614f1482614ed3565b602082019050919050565b60006020820190508181036000830152614f3881614efc565b9050919050565b7f4f776e657220616c726561647920657869737473000000000000000000000000600082015250565b6000614f756014836134a5565b9150614f8082614f3f565b602082019050919050565b60006020820190508181036000830152614fa481614f68565b9050919050565b60008154614fb881614260565b614fc281866134a5565b94506001821660008114614fdd5760018114614ff357615026565b60ff198316865281151560200286019350615026565b614ffc856144cc565b60005b8381101561501e57815481890152600182019150602081019050614fff565b808801955050505b50505092915050565b600060208201905081810360008301526150498184614fab565b905092915050565b7f4e6f74206f776e65720000000000000000000000000000000000000000000000600082015250565b60006150876009836134a5565b915061509282615051565b602082019050919050565b600060208201905081810360008301526150b68161507a565b9050919050565b7f436f6e7472696275746f72206e6f7420666f756e640000000000000000000000600082015250565b60006150f36015836134a5565b91506150fe826150bd565b602082019050919050565b60006020820190508181036000830152615122816150e6565b9050919050565b7f4e487b7100000000000000000000000000000000000000000000000000000000600052603160045260246000fd5b6000615163826136b8565b9150600082036151765761517561438f565b5b60018203905091905056fea2646970667358221220c9875978e5dd30473d1bed869224fc8a101cf3c02071cb52ddc54ecda0e223a564736f6c634300081b0033",
  "linkReferences": {},
  "deployedLinkReferences": {}
}