{
  "_format": "hh-sol-artifact-1",
  "contractName": "CharityDonation",
  "sourceName": "contracts/CharityDonation.sol",
  "abi": [
    {
      "anonymous": false,
      "inputs": [
        {
          "indexed": false,
          "internalType": "uint256",
          "name": "campaignId",
          "type": "uint256"
        },
        {
          "indexed": false,
          "internalType": "string",
          "name": "title",
          "type": "string"
        },
        {
          "indexed": false,
          "internalType": "uint256",
          "name": "goal",
          "type": "uint256"
        },
        {
          "indexed": false,
          "internalType": "uint256",
          "name": "deadline",
          "type": "uint256"
        }
      ],
      "name": "CampaignAdded",
      "type": "event"
    },
    {
      "anonymous": false,
      "inputs": [
        {
          "indexed": false,
          "internalType": "uint256",
          "name": "campaignId",
          "type": "uint256"
        },
        {
          "indexed": false,
          "internalType": "address",
          "name": "contributor",
          "type": "address"
        },
        {
          "indexed": false,
          "internalType": "uint256",
          "name": "amount",
          "type": "uint256"
        }
      ],
      "name": "Funded",
      "type": "event"
    },
    {
      "anonymous": false,
      "inputs": [
        {
          "indexed": false,
          "internalType": "uint256",
          "name": "campaignId",
          "type": "uint256"
        },
        {
          "indexed": false,
          "internalType": "address",
          "name": "owner",
          "type": "address"
        },
        {
          "indexed": false,
          "internalType": "uint256",
          "name": "amount",
          "type": "uint256"
        }
      ],
      "name": "FundsTransferred",
      "type": "event"
    },
    {
      "anonymous": false,
      "inputs": [
        {
          "indexed": true,
          "internalType": "address",
          "name": "ownerAddress",
          "type": "address"
        },
        {
          "indexed": false,
          "internalType": "string",
          "name": "ownerName",
          "type": "string"
        }
      ],
      "name": "OwnerAdded",
      "type": "event"
    },
    {
      "anonymous": false,
      "inputs": [
        {
          "indexed": false,
          "internalType": "uint256",
          "name": "campaignId",
          "type": "uint256"
        },
        {
          "indexed": false,
          "internalType": "address",
          "name": "contributor",
          "type": "address"
        },
        {
          "indexed": false,
          "internalType": "uint256",
          "name": "amount",
          "type": "uint256"
        }
      ],
      "name": "RefundIssued",
      "type": "event"
    },
    {
      "anonymous": false,
      "inputs": [
        {
          "indexed": false,
          "internalType": "uint256",
          "name": "campaignId",
          "type": "uint256"
        },
        {
          "indexed": false,
          "internalType": "address",
          "name": "voter",
          "type": "address"
        }
      ],
      "name": "VoteCasted",
      "type": "event"
    },
    {
      "anonymous": false,
      "inputs": [
        {
          "indexed": false,
          "internalType": "uint256",
          "name": "campaignId",
          "type": "uint256"
        },
        {
          "indexed": false,
          "internalType": "string",
          "name": "description",
          "type": "string"
        }
      ],
      "name": "WithdrawalRequested",
      "type": "event"
    },
    {
      "inputs": [
        {
          "internalType": "string",
          "name": "_title",
          "type": "string"
        },
        {
          "internalType": "string",
          "name": "_description",
          "type": "string"
        },
        {
          "internalType": "uint256",
          "name": "_goal",
          "type": "uint256"
        },
        {
          "internalType": "uint256",
          "name": "_days",
          "type": "uint256"
        },
        {
          "internalType": "uint256",
          "name": "_hours",
          "type": "uint256"
        },
        {
          "internalType": "uint256",
          "name": "_minutes",
          "type": "uint256"
        },
        {
          "internalType": "uint256",
          "name": "_minContribution",
          "type": "uint256"
        }
      ],
      "name": "addCampaign",
      "outputs": [],
      "stateMutability": "nonpayable",
      "type": "function"
    },
    {
      "inputs": [
        {
          "internalType": "string",
          "name": "_ownerName",
          "type": "string"
        }
      ],
      "name": "addOwner",
      "outputs": [],
      "stateMutability": "nonpayable",
      "type": "function"
    },
    {
      "inputs": [
        {
          "internalType": "uint256",
          "name": "campaignId",
          "type": "uint256"
        },
        {
          "internalType": "string",
          "name": "updateTitle",
          "type": "string"
        },
        {
          "internalType": "string",
          "name": "updateDescription",
          "type": "string"
        },
        {
          "internalType": "string[]",
          "name": "updateImages",
          "type": "string[]"
        }
      ],
      "name": "addUpdate",
      "outputs": [],
      "stateMutability": "nonpayable",
      "type": "function"
    },
    {
      "inputs": [],
      "name": "campaignCount",
      "outputs": [
        {
          "internalType": "uint256",
          "name": "",
          "type": "uint256"
        }
      ],
      "stateMutability": "view",
      "type": "function"
    },
    {
      "inputs": [
        {
          "internalType": "uint256",
          "name": "",
          "type": "uint256"
        }
      ],
      "name": "campaigns",
      "outputs": [
        {
          "internalType": "address",
          "name": "owner",
          "type": "address"
        },
        {
          "internalType": "uint256",
          "name": "id",
          "type": "uint256"
        },
        {
          "internalType": "string",
          "name": "title",
          "type": "string"
        },
        {
          "internalType": "string",
          "name": "description",
          "type": "string"
        },
        {
          "internalType": "uint256",
          "name": "goal",
          "type": "uint256"
        },
        {
          "internalType": "uint256",
          "name": "deadline",
          "type": "uint256"
        },
        {
          "internalType": "uint256",
          "name": "minContribution",
          "type": "uint256"
        },
        {
          "internalType": "uint256",
          "name": "balance",
          "type": "uint256"
        },
        {
          "internalType": "uint256",
          "name": "noOfContributors",
          "type": "uint256"
        },
        {
          "internalType": "bool",
          "name": "exists",
          "type": "bool"
        },
        {
          "internalType": "uint256",
          "name": "votesInFavor",
          "type": "uint256"
        },
        {
          "components": [
            {
              "internalType": "string",
              "name": "reqMsg",
              "type": "string"
            },
            {
              "internalType": "bool",
              "name": "requested",
              "type": "bool"
            }
          ],
          "internalType": "struct CharityDonation.Request",
          "name": "request",
          "type": "tuple"
        }
      ],
      "stateMutability": "view",
      "type": "function"
    },
    {
      "inputs": [
        {
          "internalType": "uint256",
          "name": "",
          "type": "uint256"
        }
      ],
      "name": "cardImage",
      "outputs": [
        {
          "internalType": "string",
          "name": "",
          "type": "string"
        }
      ],
      "stateMutability": "view",
      "type": "function"
    },
    {
      "inputs": [
        {
          "internalType": "uint256",
          "name": "campaignId",
          "type": "uint256"
        }
      ],
      "name": "exists",
      "outputs": [
        {
          "internalType": "bool",
          "name": "",
          "type": "bool"
        }
      ],
      "stateMutability": "view",
      "type": "function"
    },
    {
      "inputs": [
        {
          "internalType": "uint256",
          "name": "campaignId",
          "type": "uint256"
        }
      ],
      "name": "fund",
      "outputs": [],
      "stateMutability": "payable",
      "type": "function"
    },
    {
      "inputs": [
        {
          "internalType": "uint256",
          "name": "_id",
          "type": "uint256"
        }
      ],
      "name": "getCampaignBasicDetails",
      "outputs": [
        {
          "internalType": "address",
          "name": "owner",
          "type": "address"
        },
        {
          "internalType": "uint256",
          "name": "id",
          "type": "uint256"
        },
        {
          "internalType": "string",
          "name": "title",
          "type": "string"
        },
        {
          "internalType": "string",
          "name": "description",
          "type": "string"
        },
        {
          "internalType": "uint256",
          "name": "minContribution",
          "type": "uint256"
        },
        {
          "internalType": "uint256",
          "name": "deadline",
          "type": "uint256"
        }
      ],
      "stateMutability": "view",
      "type": "function"
    },
    {
      "inputs": [],
      "name": "getCampaignCount",
      "outputs": [
        {
          "internalType": "uint256",
          "name": "",
          "type": "uint256"
        }
      ],
      "stateMutability": "view",
      "type": "function"
    },
    {
      "inputs": [
        {
          "internalType": "uint256",
          "name": "_id",
          "type": "uint256"
        }
      ],
      "name": "getCampaignFinancialDetails",
      "outputs": [
        {
          "internalType": "uint256",
          "name": "goal",
          "type": "uint256"
        },
        {
          "internalType": "uint256",
          "name": "balance",
          "type": "uint256"
        },
        {
          "internalType": "uint256",
          "name": "noOfContributors",
          "type": "uint256"
        }
      ],
      "stateMutability": "view",
      "type": "function"
    },
    {
      "inputs": [
        {
          "internalType": "uint256",
          "name": "_id",
          "type": "uint256"
        }
      ],
      "name": "getCampaignVoteRequestDetails",
      "outputs": [
        {
          "internalType": "bool",
          "name": "requestStatus",
          "type": "bool"
        },
        {
          "internalType": "uint256",
          "name": "votesInFavor",
          "type": "uint256"
        }
      ],
      "stateMutability": "view",
      "type": "function"
    },
    {
      "inputs": [
        {
          "internalType": "uint256",
          "name": "campaignId",
          "type": "uint256"
        }
      ],
      "name": "getCardImage",
      "outputs": [
        {
          "internalType": "string",
          "name": "",
          "type": "string"
        }
      ],
      "stateMutability": "view",
      "type": "function"
    },
    {
      "inputs": [
        {
          "internalType": "uint256",
          "name": "campaignId",
          "type": "uint256"
        },
        {
          "internalType": "address",
          "name": "contributor",
          "type": "address"
        }
      ],
      "name": "getContributionForAddress",
      "outputs": [
        {
          "internalType": "uint256",
          "name": "",
          "type": "uint256"
        }
      ],
      "stateMutability": "view",
      "type": "function"
    },
    {
      "inputs": [
        {
          "internalType": "uint256",
          "name": "campaignId",
          "type": "uint256"
        }
      ],
      "name": "getContributorsForCampaign",
      "outputs": [
        {
          "internalType": "address[]",
          "name": "",
          "type": "address[]"
        }
      ],
      "stateMutability": "view",
      "type": "function"
    },
    {
      "inputs": [
        {
          "internalType": "uint256",
          "name": "campaignId",
          "type": "uint256"
        }
      ],
      "name": "getContributorsIfVoted",
      "outputs": [
        {
          "internalType": "bool",
          "name": "",
          "type": "bool"
        }
      ],
      "stateMutability": "view",
      "type": "function"
    },
    {
      "inputs": [
        {
          "internalType": "address",
          "name": "ownerAddress",
          "type": "address"
        }
      ],
      "name": "getOwner",
      "outputs": [
        {
          "internalType": "address",
          "name": "",
          "type": "address"
        },
        {
          "internalType": "string",
          "name": "",
          "type": "string"
        },
        {
          "internalType": "bool",
          "name": "",
          "type": "bool"
        }
      ],
      "stateMutability": "view",
      "type": "function"
    },
    {
      "inputs": [
        {
          "internalType": "uint256",
          "name": "campaignId",
          "type": "uint256"
        }
      ],
      "name": "getOwnerBalance",
      "outputs": [
        {
          "internalType": "uint256",
          "name": "",
          "type": "uint256"
        }
      ],
      "stateMutability": "view",
      "type": "function"
    },
    {
      "inputs": [
        {
          "internalType": "uint256",
          "name": "campaignId",
          "type": "uint256"
        }
      ],
      "name": "getUpdates",
      "outputs": [
        {
          "components": [
            {
              "internalType": "string",
              "name": "title",
              "type": "string"
            },
            {
              "internalType": "string",
              "name": "description",
              "type": "string"
            },
            {
              "internalType": "string[]",
              "name": "images",
              "type": "string[]"
            },
            {
              "internalType": "uint256",
              "name": "timestamp",
              "type": "uint256"
            }
          ],
          "internalType": "struct CharityDonation.Update[]",
          "name": "",
          "type": "tuple[]"
        }
      ],
      "stateMutability": "view",
      "type": "function"
    },
    {
      "inputs": [
        {
          "internalType": "uint256",
          "name": "campaignId",
          "type": "uint256"
        }
      ],
      "name": "isContributor",
      "outputs": [
        {
          "internalType": "bool",
          "name": "",
          "type": "bool"
        }
      ],
      "stateMutability": "view",
      "type": "function"
    },
    {
      "inputs": [
        {
          "internalType": "uint256",
          "name": "campaignId",
          "type": "uint256"
        }
      ],
      "name": "isDeadlineReached",
      "outputs": [
        {
          "internalType": "bool",
          "name": "",
          "type": "bool"
        }
      ],
      "stateMutability": "view",
      "type": "function"
    },
    {
      "inputs": [
        {
          "internalType": "uint256",
          "name": "campaignId",
          "type": "uint256"
        }
      ],
      "name": "isStoredTimeExpired",
      "outputs": [
        {
          "internalType": "bool",
          "name": "",
          "type": "bool"
        }
      ],
      "stateMutability": "view",
      "type": "function"
    },
    {
      "inputs": [
        {
          "internalType": "uint256",
          "name": "campaignId",
          "type": "uint256"
        }
      ],
      "name": "isVotesInFavour",
      "outputs": [
        {
          "internalType": "bool",
          "name": "",
          "type": "bool"
        }
      ],
      "stateMutability": "view",
      "type": "function"
    },
    {
      "inputs": [
        {
          "internalType": "uint256",
          "name": "campaignId",
          "type": "uint256"
        }
      ],
      "name": "ownerWithdraw",
      "outputs": [],
      "stateMutability": "nonpayable",
      "type": "function"
    },
    {
      "inputs": [
        {
          "internalType": "address",
          "name": "",
          "type": "address"
        }
      ],
      "name": "owners",
      "outputs": [
        {
          "internalType": "address",
          "name": "owner",
          "type": "address"
        },
        {
          "internalType": "string",
          "name": "ownerName",
          "type": "string"
        },
        {
          "internalType": "bool",
          "name": "verified",
          "type": "bool"
        }
      ],
      "stateMutability": "view",
      "type": "function"
    },
    {
      "inputs": [
        {
          "internalType": "uint256",
          "name": "campaignId",
          "type": "uint256"
        }
      ],
      "name": "refundMyContribution",
      "outputs": [],
      "stateMutability": "nonpayable",
      "type": "function"
    },
    {
      "inputs": [
        {
          "internalType": "string",
          "name": "_description",
          "type": "string"
        },
        {
          "internalType": "uint256",
          "name": "campaignId",
          "type": "uint256"
        }
      ],
      "name": "requestWithdrawal",
      "outputs": [],
      "stateMutability": "nonpayable",
      "type": "function"
    },
    {
      "inputs": [
        {
          "internalType": "uint256",
          "name": "campaignId",
          "type": "uint256"
        },
        {
          "internalType": "string",
          "name": "imageUrl",
          "type": "string"
        }
      ],
      "name": "updateCardImage",
      "outputs": [],
      "stateMutability": "nonpayable",
      "type": "function"
    },
    {
      "inputs": [
        {
          "internalType": "uint256",
          "name": "",
          "type": "uint256"
        },
        {
          "internalType": "uint256",
          "name": "",
          "type": "uint256"
        }
      ],
      "name": "updates",
      "outputs": [
        {
          "internalType": "string",
          "name": "title",
          "type": "string"
        },
        {
          "internalType": "string",
          "name": "description",
          "type": "string"
        },
        {
          "internalType": "uint256",
          "name": "timestamp",
          "type": "uint256"
        }
      ],
      "stateMutability": "view",
      "type": "function"
    },
    {
      "inputs": [
        {
          "internalType": "uint256",
          "name": "campaignId",
          "type": "uint256"
        }
      ],
      "name": "voteForWithdrawal",
      "outputs": [],
      "stateMutability": "nonpayable",
      "type": "function"
    }
  ],
  "bytecode": "0x60806040526000600455348015601457600080fd5b50614a40806100246000396000f3fe6080604052600436106101cd5760003560e01c8063a4edee25116100f7578063ca1d209d11610095578063f112658911610064578063f112658914610772578063f141bd601461079b578063fa544161146107c4578063ff93478c14610803576101cd565b8063ca1d209d1461069a578063e41dae1d146106b6578063e6b25dfc146106f8578063e8d49e1014610735576101cd565b8063b4fde108116100d1578063b4fde108146105e2578063bb1b2ba21461060b578063bc24c16b14610634578063c0ffdba01461065d576101cd565b8063a4edee251461052a578063aa6d639414610567578063b49b2fd8146105a5576101cd565b806341c0ed5c1161016f5780636caa92181161013e5780636caa92181461045a5780637274e30d146104855780638b89ad89146104b05780639b87c11f146104ed576101cd565b806341c0ed5c1461036657806345f61112146103a35780634f558e79146103e05780635fc285791461041d576101cd565b8063141961bc116101ab578063141961bc1461027957806316074bd8146102c157806318e48a0b146102fe57806333f707d11461033d576101cd565b8063022914a7146101d2578063071f8a9814610211578063094fc0341461023a575b600080fd5b3480156101de57600080fd5b506101f960048036038101906101f49190612e1b565b61082c565b60405161020893929190612f02565b60405180910390f35b34801561021d57600080fd5b50610238600480360381019061023391906130ab565b61090b565b005b34801561024657600080fd5b50610261600480360381019061025c9190613107565b610b34565b60405161027093929190613143565b60405180910390f35b34801561028557600080fd5b506102a0600480360381019061029b9190613107565b610b8b565b6040516102b89c9b9a99989796959493929190613210565b60405180910390f35b3480156102cd57600080fd5b506102e860048036038101906102e39190613107565b610ddf565b6040516102f591906132df565b60405180910390f35b34801561030a57600080fd5b50610325600480360381019061032091906132fa565b610e17565b6040516103349392919061333a565b60405180910390f35b34801561034957600080fd5b50610364600480360381019061035f9190613107565b610f6e565b005b34801561037257600080fd5b5061038d6004803603810190610388919061337f565b611197565b60405161039a91906133bf565b60405180910390f35b3480156103af57600080fd5b506103ca60048036038101906103c59190613107565b6111f5565b6040516103d79190613498565b60405180910390f35b3480156103ec57600080fd5b5061040760048036038101906104029190613107565b611299565b60405161041491906132df565b60405180910390f35b34801561042957600080fd5b50610444600480360381019061043f9190613107565b6112cb565b60405161045191906133bf565b60405180910390f35b34801561046657600080fd5b5061046f6112eb565b60405161047c91906133bf565b60405180910390f35b34801561049157600080fd5b5061049a6112f5565b6040516104a791906133bf565b60405180910390f35b3480156104bc57600080fd5b506104d760048036038101906104d29190613107565b6112fb565b6040516104e491906134ba565b60405180910390f35b3480156104f957600080fd5b50610514600480360381019061050f9190613107565b6113a0565b60405161052191906132df565b60405180910390f35b34801561053657600080fd5b50610551600480360381019061054c9190613107565b6113ff565b60405161055e91906132df565b60405180910390f35b34801561057357600080fd5b5061058e60048036038101906105899190613107565b611436565b60405161059c9291906134dc565b60405180910390f35b3480156105b157600080fd5b506105cc60048036038101906105c79190613107565b611480565b6040516105d991906132df565b60405180910390f35b3480156105ee57600080fd5b5061060960048036038101906106049190613505565b6114a2565b005b34801561061757600080fd5b50610632600480360381019061062d9190613107565b6116d9565b005b34801561064057600080fd5b5061065b60048036038101906106569190613107565b6118b4565b005b34801561066957600080fd5b50610684600480360381019061067f9190613107565b611aa1565b60405161069191906137e3565b60405180910390f35b6106b460048036038101906106af9190613107565b611d1a565b005b3480156106c257600080fd5b506106dd60048036038101906106d89190613107565b611f5d565b6040516106ef96959493929190613805565b60405180910390f35b34801561070457600080fd5b5061071f600480360381019061071a9190613107565b61213b565b60405161072c91906134ba565b60405180910390f35b34801561074157600080fd5b5061075c60048036038101906107579190613107565b6121db565b60405161076991906132df565b60405180910390f35b34801561077e57600080fd5b5061079960048036038101906107949190613874565b612245565b005b3480156107a757600080fd5b506107c260048036038101906107bd91906138d0565b612371565b005b3480156107d057600080fd5b506107eb60048036038101906107e69190612e1b565b61265c565b6040516107fa93929190612f02565b60405180910390f35b34801561080f57600080fd5b5061082a600480360381019061082591906139ff565b6127ce565b005b60006020528060005260406000206000915090508060000160009054906101000a900473ffffffffffffffffffffffffffffffffffffffff169080600101805461087590613ae9565b80601f01602080910402602001604051908101604052809291908181526020018280546108a190613ae9565b80156108ee5780601f106108c3576101008083540402835291602001916108ee565b820191906000526020600020905b8154815290600101906020018083116108d157829003601f168201915b5050505050908060020160009054906101000a900460ff16905083565b806001600082815260200190815260200160002060000160009054906101000a900473ffffffffffffffffffffffffffffffffffffffff1673ffffffffffffffffffffffffffffffffffffffff163373ffffffffffffffffffffffffffffffffffffffff16146109b0576040517f08c379a00000000000000000000000000000000000000000000000000000000081526004016109a790613b8c565b60405180910390fd5b60016000838152602001908152602001600020600e0160010160009054906101000a900460ff1615610a17576040517f08c379a0000000000000000000000000000000000000000000000000000000008152600401610a0e90613bf8565b60405180910390fd5b606460506001600085815260200190815260200160002060040154610a3c9190613c47565b610a469190613cb8565b60016000848152602001908152602001600020600701541015610a9e576040517f08c379a0000000000000000000000000000000000000000000000000000000008152600401610a9590613d35565b60405180910390fd5b8260016000848152602001908152602001600020600e016000019081610ac49190613f01565b506001806000848152602001908152602001600020600e0160010160006101000a81548160ff0219169083151502179055507fe21ee65d22ca73e62948637516eafe929496dca7c69123043c20b414526ca8d98284604051610b27929190613fd3565b60405180910390a1505050565b60008060006001600085815260200190815260200160002060040154600160008681526020019081526020016000206007015460016000878152602001908152602001600020600801549250925092509193909250565b60016020528060005260406000206000915090508060000160009054906101000a900473ffffffffffffffffffffffffffffffffffffffff1690806001015490806002018054610bda90613ae9565b80601f0160208091040260200160405190810160405280929190818152602001828054610c0690613ae9565b8015610c535780601f10610c2857610100808354040283529160200191610c53565b820191906000526020600020905b815481529060010190602001808311610c3657829003601f168201915b505050505090806003018054610c6890613ae9565b80601f0160208091040260200160405190810160405280929190818152602001828054610c9490613ae9565b8015610ce15780601f10610cb657610100808354040283529160200191610ce1565b820191906000526020600020905b815481529060010190602001808311610cc457829003601f168201915b5050505050908060040154908060050154908060060154908060070154908060080154908060090160009054906101000a900460ff169080600d01549080600e01604051806040016040529081600082018054610d3d90613ae9565b80601f0160208091040260200160405190810160405280929190818152602001828054610d6990613ae9565b8015610db65780601f10610d8b57610100808354040283529160200191610db6565b820191906000526020600020905b815481529060010190602001808311610d9957829003601f168201915b505050505081526020016001820160009054906101000a900460ff16151515158152505090508c565b60008060016000848152602001908152602001600020905080600501544210610e0c576001915050610e12565b60009150505b919050565b60036020528160005260406000208181548110610e3357600080fd5b906000526020600020906004020160009150915050806000018054610e5790613ae9565b80601f0160208091040260200160405190810160405280929190818152602001828054610e8390613ae9565b8015610ed05780601f10610ea557610100808354040283529160200191610ed0565b820191906000526020600020905b815481529060010190602001808311610eb357829003601f168201915b505050505090806001018054610ee590613ae9565b80601f0160208091040260200160405190810160405280929190818152602001828054610f1190613ae9565b8015610f5e5780601f10610f3357610100808354040283529160200191610f5e565b820191906000526020600020905b815481529060010190602001808311610f4157829003601f168201915b5050505050908060030154905083565b60006001600083815260200190815260200160002090508060000160009054906101000a900473ffffffffffffffffffffffffffffffffffffffff1673ffffffffffffffffffffffffffffffffffffffff163373ffffffffffffffffffffffffffffffffffffffff1614611017576040517f08c379a000000000000000000000000000000000000000000000000000000000815260040161100e9061404f565b60405180910390fd5b806005015442101561105e576040517f08c379a0000000000000000000000000000000000000000000000000000000008152600401611055906140bb565b60405180910390fd5b6002816008015461106f9190613cb8565b81600d0154116110b4576040517f08c379a00000000000000000000000000000000000000000000000000000000081526004016110ab9061414d565b60405180910390fd5b60008160070154905060008111611100576040517f08c379a00000000000000000000000000000000000000000000000000000000081526004016110f7906141b9565b60405180910390fd5b6000826007018190555060008260090160006101000a81548160ff0219169083151502179055508160000160009054906101000a900473ffffffffffffffffffffffffffffffffffffffff1673ffffffffffffffffffffffffffffffffffffffff166108fc829081150290604051600060405180830381858888f19350505050158015611191573d6000803e3d6000fd5b50505050565b600060016000848152602001908152602001600020600a0160008373ffffffffffffffffffffffffffffffffffffffff1673ffffffffffffffffffffffffffffffffffffffff16815260200190815260200160002054905092915050565b606060016000838152602001908152602001600020600c0180548060200260200160405190810160405280929190818152602001828054801561128d57602002820191906000526020600020905b8160009054906101000a900473ffffffffffffffffffffffffffffffffffffffff1673ffffffffffffffffffffffffffffffffffffffff1681526020019060010190808311611243575b50505050509050919050565b6000806001600084815260200190815260200160002090508060090160009054906101000a900460ff16915050919050565b600060016000838152602001908152602001600020600701549050919050565b6000600454905090565b60045481565b606060026000838152602001908152602001600020805461131b90613ae9565b80601f016020809104026020016040519081016040528092919081815260200182805461134790613ae9565b80156113945780601f1061136957610100808354040283529160200191611394565b820191906000526020600020905b81548152906001019060200180831161137757829003601f168201915b50505050509050919050565b60008060016000848152602001908152602001600020600a0160003373ffffffffffffffffffffffffffffffffffffffff1673ffffffffffffffffffffffffffffffffffffffff16815260200190815260200160002054119050919050565b600080600160008481526020019081526020016000209050600281600801546114289190613cb8565b81600d015411915050919050565b60008060016000848152602001908152602001600020600e0160010160009054906101000a900460ff1660016000858152602001908152602001600020600d015491509150915091565b6000426001600084815260200190815260200160002060050154109050919050565b6000603c836114b19190613c47565b610e10856114bf9190613c47565b62015180876114ce9190613c47565b6114d891906141d9565b6114e291906141d9565b905060008111611527576040517f08c379a000000000000000000000000000000000000000000000000000000000815260040161151e9061427f565b60405180910390fd5b6000814261153591906141d9565b90506000600160006004548152602001908152602001600020905060045481600101819055508981600201908161156c9190613f01565b508881600301908161157e9190613f01565b508781600401819055508181600501819055508381600601819055506000816007018190555060008160080181905550338160000160006101000a81548173ffffffffffffffffffffffffffffffffffffffff021916908373ffffffffffffffffffffffffffffffffffffffff16021790555060405180604001604052806040518060200160405280600081525081526020016000151581525081600e0160008201518160000190816116319190613f01565b5060208201518160010160006101000a81548160ff02191690831515021790555090505060018160090160006101000a81548160ff0219169083151502179055507fd375203c1b7c7b8b86a069706b2b59bf0267922e586ada570e5d9b55525bacf96004548b8a84600501546040516116ad949392919061429f565b60405180910390a1600460008154809291906116c8906142eb565b919050555050505050505050505050565b6000600160008381526020019081526020016000209050600081600a0160003373ffffffffffffffffffffffffffffffffffffffff1673ffffffffffffffffffffffffffffffffffffffff1681526020019081526020016000205411611774576040517f08c379a000000000000000000000000000000000000000000000000000000000815260040161176b9061437f565b60405180910390fd5b80600b0160003373ffffffffffffffffffffffffffffffffffffffff1673ffffffffffffffffffffffffffffffffffffffff16815260200190815260200160002060009054906101000a900460ff1615611803576040517f08c379a00000000000000000000000000000000000000000000000000000000081526004016117fa906143eb565b60405180910390fd5b600181600b0160003373ffffffffffffffffffffffffffffffffffffffff1673ffffffffffffffffffffffffffffffffffffffff16815260200190815260200160002060006101000a81548160ff02191690831515021790555080600d016000815480929190611872906142eb565b91905055507fd8d46ecf72f6103ff400e47d1b5fdfe248d4ca34a4acd39f63fbe903c8f7e7bd82336040516118a892919061440b565b60405180910390a15050565b6000600160008381526020019081526020016000209050600081600a0160003373ffffffffffffffffffffffffffffffffffffffff1673ffffffffffffffffffffffffffffffffffffffff16815260200190815260200160002054905060008111611954576040517f08c379a000000000000000000000000000000000000000000000000000000000815260040161194b906144a6565b60405180910390fd5b6000151582600b0160003373ffffffffffffffffffffffffffffffffffffffff1673ffffffffffffffffffffffffffffffffffffffff16815260200190815260200160002060009054906101000a900460ff161515146119e9576040517f08c379a00000000000000000000000000000000000000000000000000000000081526004016119e090614538565b60405180910390fd5b3373ffffffffffffffffffffffffffffffffffffffff166108fc829081150290604051600060405180830381858888f19350505050158015611a2f573d6000803e3d6000fd5b5080826007016000828254611a449190614558565b92505081905550600082600a0160003373ffffffffffffffffffffffffffffffffffffffff1673ffffffffffffffffffffffffffffffffffffffff16815260200190815260200160002081905550611a9c8333612a41565b505050565b606060036000838152602001908152602001600020805480602002602001604051908101604052809291908181526020016000905b82821015611d0f5783829060005260206000209060040201604051806080016040529081600082018054611b0990613ae9565b80601f0160208091040260200160405190810160405280929190818152602001828054611b3590613ae9565b8015611b825780601f10611b5757610100808354040283529160200191611b82565b820191906000526020600020905b815481529060010190602001808311611b6557829003601f168201915b50505050508152602001600182018054611b9b90613ae9565b80601f0160208091040260200160405190810160405280929190818152602001828054611bc790613ae9565b8015611c145780601f10611be957610100808354040283529160200191611c14565b820191906000526020600020905b815481529060010190602001808311611bf757829003601f168201915b5050505050815260200160028201805480602002602001604051908101604052809291908181526020016000905b82821015611cee578382906000526020600020018054611c6190613ae9565b80601f0160208091040260200160405190810160405280929190818152602001828054611c8d90613ae9565b8015611cda5780601f10611caf57610100808354040283529160200191611cda565b820191906000526020600020905b815481529060010190602001808311611cbd57829003601f168201915b505050505081526020019060010190611c42565b50505050815260200160038201548152505081526020019060010190611ad6565b505050509050919050565b6001600082815260200190815260200160002060060154341015611d73576040517f08c379a0000000000000000000000000000000000000000000000000000000008152600401611d6a906145fe565b60405180910390fd5b60016000828152602001908152602001600020600501544210611dcb576040517f08c379a0000000000000000000000000000000000000000000000000000000008152600401611dc29061466a565b60405180910390fd5b6000600160008381526020019081526020016000209050600081600a0160003373ffffffffffffffffffffffffffffffffffffffff1673ffffffffffffffffffffffffffffffffffffffff1681526020019081526020016000205403611eab5780600c01339080600181540180825580915050600190039060005260206000200160009091909190916101000a81548173ffffffffffffffffffffffffffffffffffffffff021916908373ffffffffffffffffffffffffffffffffffffffff160217905550806008016000815480929190611ea5906142eb565b91905055505b3481600a0160003373ffffffffffffffffffffffffffffffffffffffff1673ffffffffffffffffffffffffffffffffffffffff1681526020019081526020016000206000828254611efc91906141d9565b9250508190555034816007016000828254611f1791906141d9565b925050819055507f38c48552690c96ec2872092ac1db6c19fb59f5a8c5b49bbf41ed4886d0ca6926823334604051611f519392919061468a565b60405180910390a15050565b6000806060806000806001600088815260200190815260200160002060000160009054906101000a900473ffffffffffffffffffffffffffffffffffffffff166001600089815260200190815260200160002060010154600160008a8152602001908152602001600020600201600160008b8152602001908152602001600020600301600160008c815260200190815260200160002060060154600160008d81526020019081526020016000206005015483805461201a90613ae9565b80601f016020809104026020016040519081016040528092919081815260200182805461204690613ae9565b80156120935780601f1061206857610100808354040283529160200191612093565b820191906000526020600020905b81548152906001019060200180831161207657829003601f168201915b505050505093508280546120a690613ae9565b80601f01602080910402602001604051908101604052809291908181526020018280546120d290613ae9565b801561211f5780601f106120f45761010080835404028352916020019161211f565b820191906000526020600020905b81548152906001019060200180831161210257829003601f168201915b5050505050925095509550955095509550955091939550919395565b6002602052806000526040600020600091509050805461215a90613ae9565b80601f016020809104026020016040519081016040528092919081815260200182805461218690613ae9565b80156121d35780601f106121a8576101008083540402835291602001916121d3565b820191906000526020600020905b8154815290600101906020018083116121b657829003601f168201915b505050505081565b600060016000838152602001908152602001600020600b0160003373ffffffffffffffffffffffffffffffffffffffff1673ffffffffffffffffffffffffffffffffffffffff16815260200190815260200160002060009054906101000a900460ff169050919050565b6001600083815260200190815260200160002060090160009054906101000a900460ff166122a8576040517f08c379a000000000000000000000000000000000000000000000000000000000815260040161229f9061470d565b60405180910390fd5b6001600083815260200190815260200160002060000160009054906101000a900473ffffffffffffffffffffffffffffffffffffffff1673ffffffffffffffffffffffffffffffffffffffff163373ffffffffffffffffffffffffffffffffffffffff161461234c576040517f08c379a000000000000000000000000000000000000000000000000000000000815260040161234390614779565b60405180910390fd5b8060026000848152602001908152602001600020908161236c9190613f01565b505050565b600073ffffffffffffffffffffffffffffffffffffffff166000803373ffffffffffffffffffffffffffffffffffffffff1673ffffffffffffffffffffffffffffffffffffffff16815260200190815260200160002060000160009054906101000a900473ffffffffffffffffffffffffffffffffffffffff1673ffffffffffffffffffffffffffffffffffffffff1614612441576040517f08c379a0000000000000000000000000000000000000000000000000000000008152600401612438906147e5565b60405180910390fd5b336000803373ffffffffffffffffffffffffffffffffffffffff1673ffffffffffffffffffffffffffffffffffffffff16815260200190815260200160002060000160006101000a81548173ffffffffffffffffffffffffffffffffffffffff021916908373ffffffffffffffffffffffffffffffffffffffff160217905550806000803373ffffffffffffffffffffffffffffffffffffffff1673ffffffffffffffffffffffffffffffffffffffff168152602001908152602001600020600101908161250f9190613f01565b5060016000803373ffffffffffffffffffffffffffffffffffffffff1673ffffffffffffffffffffffffffffffffffffffff16815260200190815260200160002060020160006101000a81548160ff0219169083151502179055506000803373ffffffffffffffffffffffffffffffffffffffff1673ffffffffffffffffffffffffffffffffffffffff16815260200190815260200160002060000160009054906101000a900473ffffffffffffffffffffffffffffffffffffffff1673ffffffffffffffffffffffffffffffffffffffff167f7adcb4720057d6b9b1d9dc7f206a6dc456794ecdbf145763cc55d76930c3ab866000803373ffffffffffffffffffffffffffffffffffffffff1673ffffffffffffffffffffffffffffffffffffffff1681526020019081526020016000206001016040516126519190614889565b60405180910390a250565b600060606000806000808673ffffffffffffffffffffffffffffffffffffffff1673ffffffffffffffffffffffffffffffffffffffff1681526020019081526020016000206040518060600160405290816000820160009054906101000a900473ffffffffffffffffffffffffffffffffffffffff1673ffffffffffffffffffffffffffffffffffffffff1673ffffffffffffffffffffffffffffffffffffffff16815260200160018201805461271290613ae9565b80601f016020809104026020016040519081016040528092919081815260200182805461273e90613ae9565b801561278b5780601f106127605761010080835404028352916020019161278b565b820191906000526020600020905b81548152906001019060200180831161276e57829003601f168201915b505050505081526020016002820160009054906101000a900460ff1615151515815250509050806000015181602001518260400151935093509350509193909250565b836001600082815260200190815260200160002060000160009054906101000a900473ffffffffffffffffffffffffffffffffffffffff1673ffffffffffffffffffffffffffffffffffffffff163373ffffffffffffffffffffffffffffffffffffffff1614612873576040517f08c379a000000000000000000000000000000000000000000000000000000000815260040161286a90613b8c565b60405180910390fd5b6001600086815260200190815260200160002060090160009054906101000a900460ff166128d6576040517f08c379a00000000000000000000000000000000000000000000000000000000081526004016128cd9061470d565b60405180910390fd5b6001600086815260200190815260200160002060000160009054906101000a900473ffffffffffffffffffffffffffffffffffffffff1673ffffffffffffffffffffffffffffffffffffffff163373ffffffffffffffffffffffffffffffffffffffff161461297a576040517f08c379a0000000000000000000000000000000000000000000000000000000008152600401612971906148f7565b60405180910390fd5b612982612ca7565b848160000181905250838160200181905250828160400181905250428160600181815250506003600087815260200190815260200160002081908060018154018082558091505060019003906000526020600020906004020160009091909190915060008201518160000190816129f99190613f01565b506020820151816001019081612a0f9190613f01565b506040820151816002019080519060200190612a2c929190612ccf565b50606082015181600301555050505050505050565b60006001600084815260200190815260200160002090506000806000905060005b83600c0180549050811015612afd578473ffffffffffffffffffffffffffffffffffffffff1684600c018281548110612a9e57612a9d614917565b5b9060005260206000200160009054906101000a900473ffffffffffffffffffffffffffffffffffffffff1673ffffffffffffffffffffffffffffffffffffffff1603612af05780925060019150612afd565b8080600101915050612a62565b5080612b3e576040517f08c379a0000000000000000000000000000000000000000000000000000000008152600401612b3590614992565b60405180910390fd5b6000600184600c0180549050612b549190614558565b905083600c018181548110612b6c57612b6b614917565b5b9060005260206000200160009054906101000a900473ffffffffffffffffffffffffffffffffffffffff1684600c018481548110612bad57612bac614917565b5b9060005260206000200160006101000a81548173ffffffffffffffffffffffffffffffffffffffff021916908373ffffffffffffffffffffffffffffffffffffffff16021790555083600c01805480612c0957612c086149b2565b5b6001900381819060005260206000200160006101000a81549073ffffffffffffffffffffffffffffffffffffffff02191690559055600084600a0160008773ffffffffffffffffffffffffffffffffffffffff1673ffffffffffffffffffffffffffffffffffffffff16815260200190815260200160002081905550836008016000815480929190612c9a906149e1565b9190505550505050505050565b6040518060800160405280606081526020016060815260200160608152602001600081525090565b828054828255906000526020600020908101928215612d17579160200282015b82811115612d16578251829081612d069190613f01565b5091602001919060010190612cef565b5b509050612d249190612d28565b5090565b5b80821115612d485760008181612d3f9190612d4c565b50600101612d29565b5090565b508054612d5890613ae9565b6000825580601f10612d6a5750612d89565b601f016020900490600052602060002090810190612d889190612d8c565b5b50565b5b80821115612da5576000816000905550600101612d8d565b5090565b6000604051905090565b600080fd5b600080fd5b600073ffffffffffffffffffffffffffffffffffffffff82169050919050565b6000612de882612dbd565b9050919050565b612df881612ddd565b8114612e0357600080fd5b50565b600081359050612e1581612def565b92915050565b600060208284031215612e3157612e30612db3565b5b6000612e3f84828501612e06565b91505092915050565b612e5181612ddd565b82525050565b600081519050919050565b600082825260208201905092915050565b60005b83811015612e91578082015181840152602081019050612e76565b60008484015250505050565b6000601f19601f8301169050919050565b6000612eb982612e57565b612ec38185612e62565b9350612ed3818560208601612e73565b612edc81612e9d565b840191505092915050565b60008115159050919050565b612efc81612ee7565b82525050565b6000606082019050612f176000830186612e48565b8181036020830152612f298185612eae565b9050612f386040830184612ef3565b949350505050565b600080fd5b600080fd5b7f4e487b7100000000000000000000000000000000000000000000000000000000600052604160045260246000fd5b612f8282612e9d565b810181811067ffffffffffffffff82111715612fa157612fa0612f4a565b5b80604052505050565b6000612fb4612da9565b9050612fc08282612f79565b919050565b600067ffffffffffffffff821115612fe057612fdf612f4a565b5b612fe982612e9d565b9050602081019050919050565b82818337600083830152505050565b600061301861301384612fc5565b612faa565b90508281526020810184848401111561303457613033612f45565b5b61303f848285612ff6565b509392505050565b600082601f83011261305c5761305b612f40565b5b813561306c848260208601613005565b91505092915050565b6000819050919050565b61308881613075565b811461309357600080fd5b50565b6000813590506130a58161307f565b92915050565b600080604083850312156130c2576130c1612db3565b5b600083013567ffffffffffffffff8111156130e0576130df612db8565b5b6130ec85828601613047565b92505060206130fd85828601613096565b9150509250929050565b60006020828403121561311d5761311c612db3565b5b600061312b84828501613096565b91505092915050565b61313d81613075565b82525050565b60006060820190506131586000830186613134565b6131656020830185613134565b6131726040830184613134565b949350505050565b600082825260208201905092915050565b600061319682612e57565b6131a0818561317a565b93506131b0818560208601612e73565b6131b981612e9d565b840191505092915050565b6131cd81612ee7565b82525050565b600060408301600083015184820360008601526131f0828261318b565b915050602083015161320560208601826131c4565b508091505092915050565b600061018082019050613226600083018f612e48565b613233602083018e613134565b8181036040830152613245818d612eae565b90508181036060830152613259818c612eae565b9050613268608083018b613134565b61327560a083018a613134565b61328260c0830189613134565b61328f60e0830188613134565b61329d610100830187613134565b6132ab610120830186612ef3565b6132b9610140830185613134565b8181036101608301526132cc81846131d3565b90509d9c50505050505050505050505050565b60006020820190506132f46000830184612ef3565b92915050565b6000806040838503121561331157613310612db3565b5b600061331f85828601613096565b925050602061333085828601613096565b9150509250929050565b600060608201905081810360008301526133548186612eae565b905081810360208301526133688185612eae565b90506133776040830184613134565b949350505050565b6000806040838503121561339657613395612db3565b5b60006133a485828601613096565b92505060206133b585828601612e06565b9150509250929050565b60006020820190506133d46000830184613134565b92915050565b600081519050919050565b600082825260208201905092915050565b6000819050602082019050919050565b61340f81612ddd565b82525050565b60006134218383613406565b60208301905092915050565b6000602082019050919050565b6000613445826133da565b61344f81856133e5565b935061345a836133f6565b8060005b8381101561348b5781516134728882613415565b975061347d8361342d565b92505060018101905061345e565b5085935050505092915050565b600060208201905081810360008301526134b2818461343a565b905092915050565b600060208201905081810360008301526134d48184612eae565b905092915050565b60006040820190506134f16000830185612ef3565b6134fe6020830184613134565b9392505050565b600080600080600080600060e0888a03121561352457613523612db3565b5b600088013567ffffffffffffffff81111561354257613541612db8565b5b61354e8a828b01613047565b975050602088013567ffffffffffffffff81111561356f5761356e612db8565b5b61357b8a828b01613047565b965050604061358c8a828b01613096565b955050606061359d8a828b01613096565b94505060806135ae8a828b01613096565b93505060a06135bf8a828b01613096565b92505060c06135d08a828b01613096565b91505092959891949750929550565b600081519050919050565b600082825260208201905092915050565b6000819050602082019050919050565b600081519050919050565b600082825260208201905092915050565b6000819050602082019050919050565b6000613643838361318b565b905092915050565b6000602082019050919050565b60006136638261360b565b61366d8185613616565b93508360208202850161367f85613627565b8060005b858110156136bb578484038952815161369c8582613637565b94506136a78361364b565b925060208a01995050600181019050613683565b50829750879550505050505092915050565b6136d681613075565b82525050565b600060808301600083015184820360008601526136f9828261318b565b91505060208301518482036020860152613713828261318b565b9150506040830151848203604086015261372d8282613658565b915050606083015161374260608601826136cd565b508091505092915050565b600061375983836136dc565b905092915050565b6000602082019050919050565b6000613779826135df565b61378381856135ea565b935083602082028501613795856135fb565b8060005b858110156137d157848403895281516137b2858261374d565b94506137bd83613761565b925060208a01995050600181019050613799565b50829750879550505050505092915050565b600060208201905081810360008301526137fd818461376e565b905092915050565b600060c08201905061381a6000830189612e48565b6138276020830188613134565b81810360408301526138398187612eae565b9050818103606083015261384d8186612eae565b905061385c6080830185613134565b61386960a0830184613134565b979650505050505050565b6000806040838503121561388b5761388a612db3565b5b600061389985828601613096565b925050602083013567ffffffffffffffff8111156138ba576138b9612db8565b5b6138c685828601613047565b9150509250929050565b6000602082840312156138e6576138e5612db3565b5b600082013567ffffffffffffffff81111561390457613903612db8565b5b61391084828501613047565b91505092915050565b600067ffffffffffffffff82111561393457613933612f4a565b5b602082029050602081019050919050565b600080fd5b600061395d61395884613919565b612faa565b905080838252602082019050602084028301858111156139805761397f613945565b5b835b818110156139c757803567ffffffffffffffff8111156139a5576139a4612f40565b5b8086016139b28982613047565b85526020850194505050602081019050613982565b5050509392505050565b600082601f8301126139e6576139e5612f40565b5b81356139f684826020860161394a565b91505092915050565b60008060008060808587031215613a1957613a18612db3565b5b6000613a2787828801613096565b945050602085013567ffffffffffffffff811115613a4857613a47612db8565b5b613a5487828801613047565b935050604085013567ffffffffffffffff811115613a7557613a74612db8565b5b613a8187828801613047565b925050606085013567ffffffffffffffff811115613aa257613aa1612db8565b5b613aae878288016139d1565b91505092959194509250565b7f4e487b7100000000000000000000000000000000000000000000000000000000600052602260045260246000fd5b60006002820490506001821680613b0157607f821691505b602082108103613b1457613b13613aba565b5b50919050565b7f4f6e6c79206f776e65722063616e2063616c6c20746869732066756e6374696f60008201527f6e00000000000000000000000000000000000000000000000000000000000000602082015250565b6000613b76602183612e62565b9150613b8182613b1a565b604082019050919050565b60006020820190508181036000830152613ba581613b69565b9050919050565b7f526571756573742068617320616c7265616479206265656e2063726561746564600082015250565b6000613be2602083612e62565b9150613bed82613bac565b602082019050919050565b60006020820190508181036000830152613c1181613bd5565b9050919050565b7f4e487b7100000000000000000000000000000000000000000000000000000000600052601160045260246000fd5b6000613c5282613075565b9150613c5d83613075565b9250828202613c6b81613075565b91508282048414831517613c8257613c81613c18565b5b5092915050565b7f4e487b7100000000000000000000000000000000000000000000000000000000600052601260045260246000fd5b6000613cc382613075565b9150613cce83613075565b925082613cde57613cdd613c89565b5b828204905092915050565b7f476f616c20686173206e6f74206265656e207265616368656400000000000000600082015250565b6000613d1f601983612e62565b9150613d2a82613ce9565b602082019050919050565b60006020820190508181036000830152613d4e81613d12565b9050919050565b60008190508160005260206000209050919050565b60006020601f8301049050919050565b600082821b905092915050565b600060088302613db77fffffffffffffffffffffffffffffffffffffffffffffffffffffffffffffffff82613d7a565b613dc18683613d7a565b95508019841693508086168417925050509392505050565b6000819050919050565b6000613dfe613df9613df484613075565b613dd9565b613075565b9050919050565b6000819050919050565b613e1883613de3565b613e2c613e2482613e05565b848454613d87565b825550505050565b600090565b613e41613e34565b613e4c818484613e0f565b505050565b5b81811015613e7057613e65600082613e39565b600181019050613e52565b5050565b601f821115613eb557613e8681613d55565b613e8f84613d6a565b81016020851015613e9e578190505b613eb2613eaa85613d6a565b830182613e51565b50505b505050565b600082821c905092915050565b6000613ed860001984600802613eba565b1980831691505092915050565b6000613ef18383613ec7565b9150826002028217905092915050565b613f0a82612e57565b67ffffffffffffffff811115613f2357613f22612f4a565b5b613f2d8254613ae9565b613f38828285613e74565b600060209050601f831160018114613f6b5760008415613f59578287015190505b613f638582613ee5565b865550613fcb565b601f198416613f7986613d55565b60005b82811015613fa157848901518255600182019150602085019450602081019050613f7c565b86831015613fbe5784890151613fba601f891682613ec7565b8355505b6001600288020188555050505b505050505050565b6000604082019050613fe86000830185613134565b8181036020830152613ffa8184612eae565b90509392505050565b7f4f6e6c7920746865206f776e65722063616e2077697468647261770000000000600082015250565b6000614039601b83612e62565b915061404482614003565b602082019050919050565b600060208201905081810360008301526140688161402c565b9050919050565b7f446561646c696e65206e6f742072656163686564000000000000000000000000600082015250565b60006140a5601483612e62565b91506140b08261406f565b602082019050919050565b600060208201905081810360008301526140d481614098565b9050919050565b7f566f74657320617265206c657373207468616e20353025206f6620636f6e747260008201527f696275746f727300000000000000000000000000000000000000000000000000602082015250565b6000614137602783612e62565b9150614142826140db565b604082019050919050565b600060208201905081810360008301526141668161412a565b9050919050565b7f4e6f2066756e647320617661696c61626c650000000000000000000000000000600082015250565b60006141a3601283612e62565b91506141ae8261416d565b602082019050919050565b600060208201905081810360008301526141d281614196565b9050919050565b60006141e482613075565b91506141ef83613075565b925082820190508082111561420757614206613c18565b5b92915050565b7f546f74616c206475726174696f6e206d7573742062652067726561746572207460008201527f68616e207a65726f000000000000000000000000000000000000000000000000602082015250565b6000614269602883612e62565b91506142748261420d565b604082019050919050565b600060208201905081810360008301526142988161425c565b9050919050565b60006080820190506142b46000830187613134565b81810360208301526142c68186612eae565b90506142d56040830185613134565b6142e26060830184613134565b95945050505050565b60006142f682613075565b91507fffffffffffffffffffffffffffffffffffffffffffffffffffffffffffffffff820361432857614327613c18565b5b600182019050919050565b7f4f6e6c7920636f6e7472696275746f72732063616e20766f7465000000000000600082015250565b6000614369601a83612e62565b915061437482614333565b602082019050919050565b600060208201905081810360008301526143988161435c565b9050919050565b7f416c726561647920766f74656400000000000000000000000000000000000000600082015250565b60006143d5600d83612e62565b91506143e08261439f565b602082019050919050565b60006020820190508181036000830152614404816143c8565b9050919050565b60006040820190506144206000830185613134565b61442d6020830184612e48565b9392505050565b7f596f752068617665206e6f7420636f6e747269627574656420746f207468697360008201527f2063616d706169676e0000000000000000000000000000000000000000000000602082015250565b6000614490602983612e62565b915061449b82614434565b604082019050919050565b600060208201905081810360008301526144bf81614483565b9050919050565b7f596f75206861766520616c726561647920766f7465642c206e6f20726566756e60008201527f6400000000000000000000000000000000000000000000000000000000000000602082015250565b6000614522602183612e62565b915061452d826144c6565b604082019050919050565b6000602082019050818103600083015261455181614515565b9050919050565b600061456382613075565b915061456e83613075565b925082820390508181111561458657614585613c18565b5b92915050565b7f4d7573742066756e6420616d6f756e742067726561746572207468616e206d6960008201527f6e20636f6e747269627574696f6e000000000000000000000000000000000000602082015250565b60006145e8602e83612e62565b91506145f38261458c565b604082019050919050565b60006020820190508181036000830152614617816145db565b9050919050565b7f43616d706169676e2068617320656e6465640000000000000000000000000000600082015250565b6000614654601283612e62565b915061465f8261461e565b602082019050919050565b6000602082019050818103600083015261468381614647565b9050919050565b600060608201905061469f6000830186613134565b6146ac6020830185612e48565b6146b96040830184613134565b949350505050565b7f43616d706169676e20646f6573206e6f74206578697374000000000000000000600082015250565b60006146f7601783612e62565b9150614702826146c1565b602082019050919050565b60006020820190508181036000830152614726816146ea565b9050919050565b7f4f6e6c79206f776e65722063616e20757064617465206361726420696d616765600082015250565b6000614763602083612e62565b915061476e8261472d565b602082019050919050565b6000602082019050818103600083015261479281614756565b9050919050565b7f4f776e657220616c726561647920657869737473000000000000000000000000600082015250565b60006147cf601483612e62565b91506147da82614799565b602082019050919050565b600060208201905081810360008301526147fe816147c2565b9050919050565b6000815461481281613ae9565b61481c8186612e62565b94506001821660008114614837576001811461484d57614880565b60ff198316865281151560200286019350614880565b61485685613d55565b60005b8381101561487857815481890152600182019150602081019050614859565b808801955050505b50505092915050565b600060208201905081810360008301526148a38184614805565b905092915050565b7f4e6f74206f776e65720000000000000000000000000000000000000000000000600082015250565b60006148e1600983612e62565b91506148ec826148ab565b602082019050919050565b60006020820190508181036000830152614910816148d4565b9050919050565b7f4e487b7100000000000000000000000000000000000000000000000000000000600052603260045260246000fd5b7f436f6e7472696275746f72206e6f7420666f756e640000000000000000000000600082015250565b600061497c601583612e62565b915061498782614946565b602082019050919050565b600060208201905081810360008301526149ab8161496f565b9050919050565b7f4e487b7100000000000000000000000000000000000000000000000000000000600052603160045260246000fd5b60006149ec82613075565b9150600082036149ff576149fe613c18565b5b60018203905091905056fea26469706673582212203592dbc106293d8593e3b849d4b13cbd23466155d47b224510bfb864c9120d6f64736f6c634300081b0033",
  "linkReferences": {},
  "deployedLinkReferences": {}
}