{
  "_format": "hh-sol-artifact-1",
  "contractName": "CharityDonation",
  "sourceName": "contracts/CharityDonation.sol",
  "abi": [
    {
      "anonymous": false,
      "inputs": [
        {
          "indexed": false,
          "internalType": "uint256",
          "name": "campaignId",
          "type": "uint256"
        },
        {
          "indexed": false,
          "internalType": "string",
          "name": "title",
          "type": "string"
        },
        {
          "indexed": false,
          "internalType": "uint256",
          "name": "goal",
          "type": "uint256"
        },
        {
          "indexed": false,
          "internalType": "uint256",
          "name": "deadline",
          "type": "uint256"
        }
      ],
      "name": "CampaignAdded",
      "type": "event"
    },
    {
      "anonymous": false,
      "inputs": [
        {
          "indexed": false,
          "internalType": "uint256",
          "name": "campaignId",
          "type": "uint256"
        },
        {
          "indexed": false,
          "internalType": "address",
          "name": "contributor",
          "type": "address"
        },
        {
          "indexed": false,
          "internalType": "uint256",
          "name": "amount",
          "type": "uint256"
        }
      ],
      "name": "Funded",
      "type": "event"
    },
    {
      "anonymous": false,
      "inputs": [
        {
          "indexed": false,
          "internalType": "uint256",
          "name": "campaignId",
          "type": "uint256"
        },
        {
          "indexed": false,
          "internalType": "address",
          "name": "owner",
          "type": "address"
        },
        {
          "indexed": false,
          "internalType": "uint256",
          "name": "amount",
          "type": "uint256"
        }
      ],
      "name": "FundsTransferred",
      "type": "event"
    },
    {
      "anonymous": false,
      "inputs": [
        {
          "indexed": true,
          "internalType": "address",
          "name": "ownerAddress",
          "type": "address"
        },
        {
          "indexed": false,
          "internalType": "string",
          "name": "ownerName",
          "type": "string"
        }
      ],
      "name": "OwnerAdded",
      "type": "event"
    },
    {
      "anonymous": false,
      "inputs": [
        {
          "indexed": false,
          "internalType": "uint256",
          "name": "campaignId",
          "type": "uint256"
        },
        {
          "indexed": false,
          "internalType": "address",
          "name": "contributor",
          "type": "address"
        },
        {
          "indexed": false,
          "internalType": "uint256",
          "name": "amount",
          "type": "uint256"
        }
      ],
      "name": "RefundIssued",
      "type": "event"
    },
    {
      "anonymous": false,
      "inputs": [
        {
          "indexed": false,
          "internalType": "uint256",
          "name": "campaignId",
          "type": "uint256"
        },
        {
          "indexed": false,
          "internalType": "address",
          "name": "voter",
          "type": "address"
        }
      ],
      "name": "VoteCasted",
      "type": "event"
    },
    {
      "anonymous": false,
      "inputs": [
        {
          "indexed": false,
          "internalType": "uint256",
          "name": "campaignId",
          "type": "uint256"
        },
        {
          "indexed": false,
          "internalType": "string",
          "name": "description",
          "type": "string"
        }
      ],
      "name": "WithdrawalRequested",
      "type": "event"
    },
    {
      "inputs": [
        {
          "internalType": "string",
          "name": "_title",
          "type": "string"
        },
        {
          "internalType": "string",
          "name": "_description",
          "type": "string"
        },
        {
          "internalType": "uint256",
          "name": "_goal",
          "type": "uint256"
        },
        {
          "internalType": "uint256",
          "name": "_deadline",
          "type": "uint256"
        },
        {
          "internalType": "uint256",
          "name": "_minContribution",
          "type": "uint256"
        }
      ],
      "name": "addCampaign",
      "outputs": [],
      "stateMutability": "nonpayable",
      "type": "function"
    },
    {
      "inputs": [
        {
          "internalType": "string",
          "name": "_ownerName",
          "type": "string"
        }
      ],
      "name": "addOwner",
      "outputs": [],
      "stateMutability": "nonpayable",
      "type": "function"
    },
    {
      "inputs": [],
      "name": "campaignCount",
      "outputs": [
        {
          "internalType": "uint256",
          "name": "",
          "type": "uint256"
        }
      ],
      "stateMutability": "view",
      "type": "function"
    },
    {
      "inputs": [
        {
          "internalType": "uint256",
          "name": "",
          "type": "uint256"
        }
      ],
      "name": "campaigns",
      "outputs": [
        {
          "internalType": "address",
          "name": "owner",
          "type": "address"
        },
        {
          "internalType": "uint256",
          "name": "id",
          "type": "uint256"
        },
        {
          "internalType": "string",
          "name": "title",
          "type": "string"
        },
        {
          "internalType": "string",
          "name": "description",
          "type": "string"
        },
        {
          "internalType": "uint256",
          "name": "goal",
          "type": "uint256"
        },
        {
          "internalType": "uint256",
          "name": "deadline",
          "type": "uint256"
        },
        {
          "internalType": "uint256",
          "name": "minContribution",
          "type": "uint256"
        },
        {
          "internalType": "uint256",
          "name": "balance",
          "type": "uint256"
        },
        {
          "internalType": "uint256",
          "name": "noOfContributors",
          "type": "uint256"
        },
        {
          "internalType": "bool",
          "name": "exists",
          "type": "bool"
        },
        {
          "components": [
            {
              "internalType": "string",
              "name": "reqMsg",
              "type": "string"
            },
            {
              "internalType": "bool",
              "name": "requested",
              "type": "bool"
            }
          ],
          "internalType": "struct CharityDonation.Request",
          "name": "request",
          "type": "tuple"
        },
        {
          "internalType": "uint256",
          "name": "votesInFavor",
          "type": "uint256"
        }
      ],
      "stateMutability": "view",
      "type": "function"
    },
    {
      "inputs": [
        {
          "internalType": "uint256",
          "name": "campaignId",
          "type": "uint256"
        }
      ],
      "name": "fund",
      "outputs": [],
      "stateMutability": "payable",
      "type": "function"
    },
    {
      "inputs": [
        {
          "internalType": "uint256",
          "name": "campaignId",
          "type": "uint256"
        }
      ],
      "name": "getCampaignBalance",
      "outputs": [
        {
          "internalType": "uint256",
          "name": "",
          "type": "uint256"
        }
      ],
      "stateMutability": "view",
      "type": "function"
    },
    {
      "inputs": [
        {
          "internalType": "uint256",
          "name": "_id",
          "type": "uint256"
        }
      ],
      "name": "getCampaignBasicDetails",
      "outputs": [
        {
          "internalType": "address",
          "name": "owner",
          "type": "address"
        },
        {
          "internalType": "uint256",
          "name": "id",
          "type": "uint256"
        },
        {
          "internalType": "string",
          "name": "title",
          "type": "string"
        },
        {
          "internalType": "string",
          "name": "description",
          "type": "string"
        },
        {
          "internalType": "uint256",
          "name": "minContribution",
          "type": "uint256"
        }
      ],
      "stateMutability": "view",
      "type": "function"
    },
    {
      "inputs": [],
      "name": "getCampaignCount",
      "outputs": [
        {
          "internalType": "uint256",
          "name": "",
          "type": "uint256"
        }
      ],
      "stateMutability": "view",
      "type": "function"
    },
    {
      "inputs": [
        {
          "internalType": "uint256",
          "name": "_id",
          "type": "uint256"
        }
      ],
      "name": "getCampaignFinancialDetails",
      "outputs": [
        {
          "internalType": "uint256",
          "name": "goal",
          "type": "uint256"
        },
        {
          "internalType": "uint256",
          "name": "balance",
          "type": "uint256"
        },
        {
          "internalType": "uint256",
          "name": "noOfContributors",
          "type": "uint256"
        }
      ],
      "stateMutability": "view",
      "type": "function"
    },
    {
      "inputs": [
        {
          "internalType": "uint256",
          "name": "_id",
          "type": "uint256"
        }
      ],
      "name": "getCampaignVoteRequestDetails",
      "outputs": [
        {
          "internalType": "bool",
          "name": "requestStatus",
          "type": "bool"
        },
        {
          "internalType": "uint256",
          "name": "votesInFavor",
          "type": "uint256"
        }
      ],
      "stateMutability": "view",
      "type": "function"
    },
    {
      "inputs": [
        {
          "internalType": "uint256",
          "name": "campaignId",
          "type": "uint256"
        },
        {
          "internalType": "address",
          "name": "contributor",
          "type": "address"
        }
      ],
      "name": "getContributionForAddress",
      "outputs": [
        {
          "internalType": "uint256",
          "name": "",
          "type": "uint256"
        }
      ],
      "stateMutability": "view",
      "type": "function"
    },
    {
      "inputs": [
        {
          "internalType": "uint256",
          "name": "campaignId",
          "type": "uint256"
        }
      ],
      "name": "getContributorsForCampaign",
      "outputs": [
        {
          "internalType": "address[]",
          "name": "",
          "type": "address[]"
        }
      ],
      "stateMutability": "view",
      "type": "function"
    },
    {
      "inputs": [
        {
          "internalType": "uint256",
          "name": "campaignId",
          "type": "uint256"
        }
      ],
      "name": "getNumberOfContributors",
      "outputs": [
        {
          "internalType": "uint256",
          "name": "",
          "type": "uint256"
        }
      ],
      "stateMutability": "view",
      "type": "function"
    },
    {
      "inputs": [
        {
          "internalType": "address",
          "name": "ownerAddress",
          "type": "address"
        }
      ],
      "name": "getOwner",
      "outputs": [
        {
          "internalType": "address",
          "name": "",
          "type": "address"
        },
        {
          "internalType": "string",
          "name": "",
          "type": "string"
        },
        {
          "internalType": "bool",
          "name": "",
          "type": "bool"
        }
      ],
      "stateMutability": "view",
      "type": "function"
    },
    {
      "inputs": [
        {
          "internalType": "uint256",
          "name": "campaignId",
          "type": "uint256"
        }
      ],
      "name": "getOwnerBalance",
      "outputs": [
        {
          "internalType": "uint256",
          "name": "",
          "type": "uint256"
        }
      ],
      "stateMutability": "view",
      "type": "function"
    },
    {
      "inputs": [
        {
          "internalType": "uint256",
          "name": "campaignId",
          "type": "uint256"
        }
      ],
      "name": "getVotesInFavor",
      "outputs": [
        {
          "internalType": "uint256",
          "name": "",
          "type": "uint256"
        }
      ],
      "stateMutability": "view",
      "type": "function"
    },
    {
      "inputs": [
        {
          "internalType": "address",
          "name": "",
          "type": "address"
        }
      ],
      "name": "owners",
      "outputs": [
        {
          "internalType": "address",
          "name": "owner",
          "type": "address"
        },
        {
          "internalType": "string",
          "name": "ownerName",
          "type": "string"
        },
        {
          "internalType": "bool",
          "name": "verified",
          "type": "bool"
        }
      ],
      "stateMutability": "view",
      "type": "function"
    },
    {
      "inputs": [
        {
          "internalType": "uint256",
          "name": "campaignId",
          "type": "uint256"
        }
      ],
      "name": "processCampaignOutcome",
      "outputs": [],
      "stateMutability": "nonpayable",
      "type": "function"
    },
    {
      "inputs": [
        {
          "internalType": "string",
          "name": "_description",
          "type": "string"
        },
        {
          "internalType": "uint256",
          "name": "campaignId",
          "type": "uint256"
        }
      ],
      "name": "requestWithdrawal",
      "outputs": [],
      "stateMutability": "nonpayable",
      "type": "function"
    },
    {
      "inputs": [
        {
          "internalType": "uint256",
          "name": "campaignId",
          "type": "uint256"
        }
      ],
      "name": "voteForWithdrawal",
      "outputs": [],
      "stateMutability": "nonpayable",
      "type": "function"
    }
  ],
  "bytecode": "0x60806040526000600255348015601457600080fd5b50613170806100246000396000f3fe60806040526004361061011f5760003560e01c80636caa9218116100a0578063ca1d209d11610064578063ca1d209d14610453578063e41dae1d1461046f578063eb044b97146104b0578063f141bd60146104ed578063fa544161146105165761011f565b80636caa92181461036d5780637274e30d14610398578063974d2638146103c3578063aa6d6394146103ec578063bb1b2ba21461042a5761011f565b8063256cc0a7116100e7578063256cc0a7146102505780633b077b901461027957806341c0ed5c146102b657806345f61112146102f35780635fc28579146103305761011f565b8063022914a714610124578063071f8a9814610163578063094fc0341461018c5780630fbee319146101cb578063141961bc14610208575b600080fd5b34801561013057600080fd5b5061014b60048036038101906101469190611e57565b610555565b60405161015a93929190611f3e565b60405180910390f35b34801561016f57600080fd5b5061018a600480360381019061018591906120e7565b610634565b005b34801561019857600080fd5b506101b360048036038101906101ae9190612143565b610845565b6040516101c29392919061217f565b60405180910390f35b3480156101d757600080fd5b506101f260048036038101906101ed9190612143565b6108ff565b6040516101ff91906121b6565b60405180910390f35b34801561021457600080fd5b5061022f600480360381019061022a9190612143565b61091f565b6040516102479c9b9a99989796959493929190612267565b60405180910390f35b34801561025c57600080fd5b5061027760048036038101906102729190612143565b610b73565b005b34801561028557600080fd5b506102a0600480360381019061029b9190612143565b610cfa565b6040516102ad91906121b6565b60405180910390f35b3480156102c257600080fd5b506102dd60048036038101906102d89190612336565b610d1a565b6040516102ea91906121b6565b60405180910390f35b3480156102ff57600080fd5b5061031a60048036038101906103159190612143565b610d78565b6040516103279190612434565b60405180910390f35b34801561033c57600080fd5b5061035760048036038101906103529190612143565b610e1c565b60405161036491906121b6565b60405180910390f35b34801561037957600080fd5b50610382610e73565b60405161038f91906121b6565b60405180910390f35b3480156103a457600080fd5b506103ad610e7d565b6040516103ba91906121b6565b60405180910390f35b3480156103cf57600080fd5b506103ea60048036038101906103e59190612456565b610e83565b005b3480156103f857600080fd5b50610413600480360381019061040e9190612143565b61107d565b604051610421929190612509565b60405180910390f35b34801561043657600080fd5b50610451600480360381019061044c9190612143565b61112a565b005b61046d60048036038101906104689190612143565b611359565b005b34801561047b57600080fd5b5061049660048036038101906104919190612143565b61159c565b6040516104a7959493929190612532565b60405180910390f35b3480156104bc57600080fd5b506104d760048036038101906104d29190612143565b6117c3565b6040516104e491906121b6565b60405180910390f35b3480156104f957600080fd5b50610514600480360381019061050f9190612593565b6117e3565b005b34801561052257600080fd5b5061053d60048036038101906105389190611e57565b611ace565b60405161054c93929190611f3e565b60405180910390f35b60006020528060005260406000206000915090508060000160009054906101000a900473ffffffffffffffffffffffffffffffffffffffff169080600101805461059e9061260b565b80601f01602080910402602001604051908101604052809291908181526020018280546105ca9061260b565b80156106175780601f106105ec57610100808354040283529160200191610617565b820191906000526020600020905b8154815290600101906020018083116105fa57829003601f168201915b5050505050908060020160009054906101000a900460ff16905083565b806001600082815260200190815260200160002060000160009054906101000a900473ffffffffffffffffffffffffffffffffffffffff1673ffffffffffffffffffffffffffffffffffffffff163373ffffffffffffffffffffffffffffffffffffffff16146106d9576040517f08c379a00000000000000000000000000000000000000000000000000000000081526004016106d0906126ae565b60405180910390fd5b60016000838152602001908152602001600020600a0160010160009054906101000a900460ff1615610740576040517f08c379a00000000000000000000000000000000000000000000000000000000081526004016107379061271a565b60405180910390fd5b6001600083815260200190815260200160002060040154600160008481526020019081526020016000206007015410156107af576040517f08c379a00000000000000000000000000000000000000000000000000000000081526004016107a690612786565b60405180910390fd5b8260016000848152602001908152602001600020600a0160000190816107d59190612952565b506001806000848152602001908152602001600020600a0160010160006101000a81548160ff0219169083151502179055507fe21ee65d22ca73e62948637516eafe929496dca7c69123043c20b414526ca8d98284604051610838929190612a24565b60405180910390a1505050565b60008060006001600085815260200190815260200160002060090160009054906101000a900460ff166108ad576040517f08c379a00000000000000000000000000000000000000000000000000000000081526004016108a490612aa0565b60405180910390fd5b6001600085815260200190815260200160002060040154600160008681526020019081526020016000206007015460016000878152602001908152602001600020600801549250925092509193909250565b600060016000838152602001908152602001600020600801549050919050565b60016020528060005260406000206000915090508060000160009054906101000a900473ffffffffffffffffffffffffffffffffffffffff169080600101549080600201805461096e9061260b565b80601f016020809104026020016040519081016040528092919081815260200182805461099a9061260b565b80156109e75780601f106109bc576101008083540402835291602001916109e7565b820191906000526020600020905b8154815290600101906020018083116109ca57829003601f168201915b5050505050908060030180546109fc9061260b565b80601f0160208091040260200160405190810160405280929190818152602001828054610a289061260b565b8015610a755780601f10610a4a57610100808354040283529160200191610a75565b820191906000526020600020905b815481529060010190602001808311610a5857829003601f168201915b5050505050908060040154908060050154908060060154908060070154908060080154908060090160009054906101000a900460ff169080600a01604051806040016040529081600082018054610acb9061260b565b80601f0160208091040260200160405190810160405280929190818152602001828054610af79061260b565b8015610b445780601f10610b1957610100808354040283529160200191610b44565b820191906000526020600020905b815481529060010190602001808311610b2757829003601f168201915b505050505081526020016001820160009054906101000a900460ff1615151515815250509080600f015490508c565b6000600160008381526020019081526020016000209050600081600801549050600082600f015490508260040154836007015410158015610bbf5750600282610bbc9190612b1e565b81115b15610cea5760008360070154905060008111610c10576040517f08c379a0000000000000000000000000000000000000000000000000000000008152600401610c0790612b9b565b60405180910390fd5b8360000160009054906101000a900473ffffffffffffffffffffffffffffffffffffffff1673ffffffffffffffffffffffffffffffffffffffff166108fc829081150290604051600060405180830381858888f19350505050158015610c7a573d6000803e3d6000fd5b50600084600701819055507fe90ae330e5aefc2a73ddff0dd88bcaf8f4a0629d6553a2a85b22cac3d5f4a19e858560000160009054906101000a900473ffffffffffffffffffffffffffffffffffffffff1683604051610cdc93929190612bbb565b60405180910390a150610cf4565b610cf384611c40565b5b50505050565b600060016000838152602001908152602001600020600f01549050919050565b600060016000848152602001908152602001600020600c0160008373ffffffffffffffffffffffffffffffffffffffff1673ffffffffffffffffffffffffffffffffffffffff16815260200190815260200160002054905092915050565b606060016000838152602001908152602001600020600e01805480602002602001604051908101604052809291908181526020018280548015610e1057602002820191906000526020600020905b8160009054906101000a900473ffffffffffffffffffffffffffffffffffffffff1673ffffffffffffffffffffffffffffffffffffffff1681526020019060010190808311610dc6575b50505050509050919050565b60006001600083815260200190815260200160002060000160009054906101000a900473ffffffffffffffffffffffffffffffffffffffff1673ffffffffffffffffffffffffffffffffffffffff16319050919050565b6000600254905090565b60025481565b60008211610ec6576040517f08c379a0000000000000000000000000000000000000000000000000000000008152600401610ebd90612c64565b60405180910390fd5b60006001600060025481526020019081526020016000209050600254816001018190555085816002019081610efb9190612952565b5084816003019081610f0d9190612952565b508381600401819055506201518083610f269190612c84565b42610f319190612cc6565b81600501819055508181600601819055506000816007018190555060008160080181905550338160000160006101000a81548173ffffffffffffffffffffffffffffffffffffffff021916908373ffffffffffffffffffffffffffffffffffffffff16021790555060405180604001604052806040518060200160405280600081525081526020016000151581525081600a016000820151816000019081610fd99190612952565b5060208201518160010160006101000a81548160ff02191690831515021790555090505060018160090160006101000a81548160ff0219169083151502179055507fd375203c1b7c7b8b86a069706b2b59bf0267922e586ada570e5d9b55525bacf9600254878684600501546040516110559493929190612cfa565b60405180910390a16002600081548092919061107090612d46565b9190505550505050505050565b6000806001600084815260200190815260200160002060090160009054906101000a900460ff166110e3576040517f08c379a00000000000000000000000000000000000000000000000000000000081526004016110da90612aa0565b60405180910390fd5b60016000848152602001908152602001600020600a0160010160009054906101000a900460ff1660016000858152602001908152602001600020600f015491509150915091565b600060016000838152602001908152602001600020905080600a0160010160009054906101000a900460ff16611195576040517f08c379a000000000000000000000000000000000000000000000000000000000815260040161118c90612dda565b60405180910390fd5b600081600c0160003373ffffffffffffffffffffffffffffffffffffffff1673ffffffffffffffffffffffffffffffffffffffff1681526020019081526020016000205411611219576040517f08c379a000000000000000000000000000000000000000000000000000000000815260040161121090612e46565b60405180910390fd5b80600d0160003373ffffffffffffffffffffffffffffffffffffffff1673ffffffffffffffffffffffffffffffffffffffff16815260200190815260200160002060009054906101000a900460ff16156112a8576040517f08c379a000000000000000000000000000000000000000000000000000000000815260040161129f90612eb2565b60405180910390fd5b600181600d0160003373ffffffffffffffffffffffffffffffffffffffff1673ffffffffffffffffffffffffffffffffffffffff16815260200190815260200160002060006101000a81548160ff02191690831515021790555080600f01600081548092919061131790612d46565b91905055507fd8d46ecf72f6103ff400e47d1b5fdfe248d4ca34a4acd39f63fbe903c8f7e7bd823360405161134d929190612ed2565b60405180910390a15050565b60016000828152602001908152602001600020600601543410156113b2576040517f08c379a00000000000000000000000000000000000000000000000000000000081526004016113a990612f6d565b60405180910390fd5b6001600082815260200190815260200160002060050154421061140a576040517f08c379a000000000000000000000000000000000000000000000000000000000815260040161140190612fd9565b60405180910390fd5b6000600160008381526020019081526020016000209050600081600c0160003373ffffffffffffffffffffffffffffffffffffffff1673ffffffffffffffffffffffffffffffffffffffff16815260200190815260200160002054036114ea5780600e01339080600181540180825580915050600190039060005260206000200160009091909190916101000a81548173ffffffffffffffffffffffffffffffffffffffff021916908373ffffffffffffffffffffffffffffffffffffffff1602179055508060080160008154809291906114e490612d46565b91905055505b3481600c0160003373ffffffffffffffffffffffffffffffffffffffff1673ffffffffffffffffffffffffffffffffffffffff168152602001908152602001600020600082825461153b9190612cc6565b92505081905550348160070160008282546115569190612cc6565b925050819055507f38c48552690c96ec2872092ac1db6c19fb59f5a8c5b49bbf41ed4886d0ca692682333460405161159093929190612bbb565b60405180910390a15050565b60008060608060006001600087815260200190815260200160002060090160009054906101000a900460ff16611607576040517f08c379a00000000000000000000000000000000000000000000000000000000081526004016115fe90612aa0565b60405180910390fd5b6001600087815260200190815260200160002060000160009054906101000a900473ffffffffffffffffffffffffffffffffffffffff16600160008881526020019081526020016000206001015460016000898152602001908152602001600020600201600160008a8152602001908152602001600020600301600160008b8152602001908152602001600020600601548280546116a49061260b565b80601f01602080910402602001604051908101604052809291908181526020018280546116d09061260b565b801561171d5780601f106116f25761010080835404028352916020019161171d565b820191906000526020600020905b81548152906001019060200180831161170057829003601f168201915b505050505092508180546117309061260b565b80601f016020809104026020016040519081016040528092919081815260200182805461175c9061260b565b80156117a95780601f1061177e576101008083540402835291602001916117a9565b820191906000526020600020905b81548152906001019060200180831161178c57829003601f168201915b505050505091509450945094509450945091939590929450565b600060016000838152602001908152602001600020600701549050919050565b600073ffffffffffffffffffffffffffffffffffffffff166000803373ffffffffffffffffffffffffffffffffffffffff1673ffffffffffffffffffffffffffffffffffffffff16815260200190815260200160002060000160009054906101000a900473ffffffffffffffffffffffffffffffffffffffff1673ffffffffffffffffffffffffffffffffffffffff16146118b3576040517f08c379a00000000000000000000000000000000000000000000000000000000081526004016118aa90613045565b60405180910390fd5b336000803373ffffffffffffffffffffffffffffffffffffffff1673ffffffffffffffffffffffffffffffffffffffff16815260200190815260200160002060000160006101000a81548173ffffffffffffffffffffffffffffffffffffffff021916908373ffffffffffffffffffffffffffffffffffffffff160217905550806000803373ffffffffffffffffffffffffffffffffffffffff1673ffffffffffffffffffffffffffffffffffffffff16815260200190815260200160002060010190816119819190612952565b5060016000803373ffffffffffffffffffffffffffffffffffffffff1673ffffffffffffffffffffffffffffffffffffffff16815260200190815260200160002060020160006101000a81548160ff0219169083151502179055506000803373ffffffffffffffffffffffffffffffffffffffff1673ffffffffffffffffffffffffffffffffffffffff16815260200190815260200160002060000160009054906101000a900473ffffffffffffffffffffffffffffffffffffffff1673ffffffffffffffffffffffffffffffffffffffff167f7adcb4720057d6b9b1d9dc7f206a6dc456794ecdbf145763cc55d76930c3ab866000803373ffffffffffffffffffffffffffffffffffffffff1673ffffffffffffffffffffffffffffffffffffffff168152602001908152602001600020600101604051611ac391906130e9565b60405180910390a250565b600060606000806000808673ffffffffffffffffffffffffffffffffffffffff1673ffffffffffffffffffffffffffffffffffffffff1681526020019081526020016000206040518060600160405290816000820160009054906101000a900473ffffffffffffffffffffffffffffffffffffffff1673ffffffffffffffffffffffffffffffffffffffff1673ffffffffffffffffffffffffffffffffffffffff168152602001600182018054611b849061260b565b80601f0160208091040260200160405190810160405280929190818152602001828054611bb09061260b565b8015611bfd5780601f10611bd257610100808354040283529160200191611bfd565b820191906000526020600020905b815481529060010190602001808311611be057829003601f168201915b505050505081526020016002820160009054906101000a900460ff1615151515815250509050806000015181602001518260400151935093509350509193909250565b600060016000838152602001908152602001600020905060005b81600e0180549050811015611dd657600082600e018281548110611c8157611c8061310b565b5b9060005260206000200160009054906101000a900473ffffffffffffffffffffffffffffffffffffffff169050600083600c0160008373ffffffffffffffffffffffffffffffffffffffff1673ffffffffffffffffffffffffffffffffffffffff1681526020019081526020016000205490506000811115611dc7578173ffffffffffffffffffffffffffffffffffffffff166108fc829081150290604051600060405180830381858888f19350505050158015611d43573d6000803e3d6000fd5b50600084600c0160008473ffffffffffffffffffffffffffffffffffffffff1673ffffffffffffffffffffffffffffffffffffffff168152602001908152602001600020819055507f7a482fdeb6bc9a1376f597068a214a7a39472bb2eff1b8cad21ba04f49ddca1b858383604051611dbe93929190612bbb565b60405180910390a15b50508080600101915050611c5a565b50600081600701819055505050565b6000604051905090565b600080fd5b600080fd5b600073ffffffffffffffffffffffffffffffffffffffff82169050919050565b6000611e2482611df9565b9050919050565b611e3481611e19565b8114611e3f57600080fd5b50565b600081359050611e5181611e2b565b92915050565b600060208284031215611e6d57611e6c611def565b5b6000611e7b84828501611e42565b91505092915050565b611e8d81611e19565b82525050565b600081519050919050565b600082825260208201905092915050565b60005b83811015611ecd578082015181840152602081019050611eb2565b60008484015250505050565b6000601f19601f8301169050919050565b6000611ef582611e93565b611eff8185611e9e565b9350611f0f818560208601611eaf565b611f1881611ed9565b840191505092915050565b60008115159050919050565b611f3881611f23565b82525050565b6000606082019050611f536000830186611e84565b8181036020830152611f658185611eea565b9050611f746040830184611f2f565b949350505050565b600080fd5b600080fd5b7f4e487b7100000000000000000000000000000000000000000000000000000000600052604160045260246000fd5b611fbe82611ed9565b810181811067ffffffffffffffff82111715611fdd57611fdc611f86565b5b80604052505050565b6000611ff0611de5565b9050611ffc8282611fb5565b919050565b600067ffffffffffffffff82111561201c5761201b611f86565b5b61202582611ed9565b9050602081019050919050565b82818337600083830152505050565b600061205461204f84612001565b611fe6565b9050828152602081018484840111156120705761206f611f81565b5b61207b848285612032565b509392505050565b600082601f83011261209857612097611f7c565b5b81356120a8848260208601612041565b91505092915050565b6000819050919050565b6120c4816120b1565b81146120cf57600080fd5b50565b6000813590506120e1816120bb565b92915050565b600080604083850312156120fe576120fd611def565b5b600083013567ffffffffffffffff81111561211c5761211b611df4565b5b61212885828601612083565b9250506020612139858286016120d2565b9150509250929050565b60006020828403121561215957612158611def565b5b6000612167848285016120d2565b91505092915050565b612179816120b1565b82525050565b60006060820190506121946000830186612170565b6121a16020830185612170565b6121ae6040830184612170565b949350505050565b60006020820190506121cb6000830184612170565b92915050565b600082825260208201905092915050565b60006121ed82611e93565b6121f781856121d1565b9350612207818560208601611eaf565b61221081611ed9565b840191505092915050565b61222481611f23565b82525050565b6000604083016000830151848203600086015261224782826121e2565b915050602083015161225c602086018261221b565b508091505092915050565b60006101808201905061227d600083018f611e84565b61228a602083018e612170565b818103604083015261229c818d611eea565b905081810360608301526122b0818c611eea565b90506122bf608083018b612170565b6122cc60a083018a612170565b6122d960c0830189612170565b6122e660e0830188612170565b6122f4610100830187612170565b612302610120830186611f2f565b818103610140830152612315818561222a565b9050612325610160830184612170565b9d9c50505050505050505050505050565b6000806040838503121561234d5761234c611def565b5b600061235b858286016120d2565b925050602061236c85828601611e42565b9150509250929050565b600081519050919050565b600082825260208201905092915050565b6000819050602082019050919050565b6123ab81611e19565b82525050565b60006123bd83836123a2565b60208301905092915050565b6000602082019050919050565b60006123e182612376565b6123eb8185612381565b93506123f683612392565b8060005b8381101561242757815161240e88826123b1565b9750612419836123c9565b9250506001810190506123fa565b5085935050505092915050565b6000602082019050818103600083015261244e81846123d6565b905092915050565b600080600080600060a0868803121561247257612471611def565b5b600086013567ffffffffffffffff8111156124905761248f611df4565b5b61249c88828901612083565b955050602086013567ffffffffffffffff8111156124bd576124bc611df4565b5b6124c988828901612083565b94505060406124da888289016120d2565b93505060606124eb888289016120d2565b92505060806124fc888289016120d2565b9150509295509295909350565b600060408201905061251e6000830185611f2f565b61252b6020830184612170565b9392505050565b600060a0820190506125476000830188611e84565b6125546020830187612170565b81810360408301526125668186611eea565b9050818103606083015261257a8185611eea565b90506125896080830184612170565b9695505050505050565b6000602082840312156125a9576125a8611def565b5b600082013567ffffffffffffffff8111156125c7576125c6611df4565b5b6125d384828501612083565b91505092915050565b7f4e487b7100000000000000000000000000000000000000000000000000000000600052602260045260246000fd5b6000600282049050600182168061262357607f821691505b602082108103612636576126356125dc565b5b50919050565b7f4f6e6c79206f776e65722063616e2063616c6c20746869732066756e6374696f60008201527f6e00000000000000000000000000000000000000000000000000000000000000602082015250565b6000612698602183611e9e565b91506126a38261263c565b604082019050919050565b600060208201905081810360008301526126c78161268b565b9050919050565b7f526571756573742068617320616c7265616479206265656e2063726561746564600082015250565b6000612704602083611e9e565b915061270f826126ce565b602082019050919050565b60006020820190508181036000830152612733816126f7565b9050919050565b7f476f616c20686173206e6f74206265656e207265616368656400000000000000600082015250565b6000612770601983611e9e565b915061277b8261273a565b602082019050919050565b6000602082019050818103600083015261279f81612763565b9050919050565b60008190508160005260206000209050919050565b60006020601f8301049050919050565b600082821b905092915050565b6000600883026128087fffffffffffffffffffffffffffffffffffffffffffffffffffffffffffffffff826127cb565b61281286836127cb565b95508019841693508086168417925050509392505050565b6000819050919050565b600061284f61284a612845846120b1565b61282a565b6120b1565b9050919050565b6000819050919050565b61286983612834565b61287d61287582612856565b8484546127d8565b825550505050565b600090565b612892612885565b61289d818484612860565b505050565b5b818110156128c1576128b660008261288a565b6001810190506128a3565b5050565b601f821115612906576128d7816127a6565b6128e0846127bb565b810160208510156128ef578190505b6129036128fb856127bb565b8301826128a2565b50505b505050565b600082821c905092915050565b60006129296000198460080261290b565b1980831691505092915050565b60006129428383612918565b9150826002028217905092915050565b61295b82611e93565b67ffffffffffffffff81111561297457612973611f86565b5b61297e825461260b565b6129898282856128c5565b600060209050601f8311600181146129bc57600084156129aa578287015190505b6129b48582612936565b865550612a1c565b601f1984166129ca866127a6565b60005b828110156129f2578489015182556001820191506020850194506020810190506129cd565b86831015612a0f5784890151612a0b601f891682612918565b8355505b6001600288020188555050505b505050505050565b6000604082019050612a396000830185612170565b8181036020830152612a4b8184611eea565b90509392505050565b7f43616d706169676e20646f6573206e6f74206578697374000000000000000000600082015250565b6000612a8a601783611e9e565b9150612a9582612a54565b602082019050919050565b60006020820190508181036000830152612ab981612a7d565b9050919050565b7f4e487b7100000000000000000000000000000000000000000000000000000000600052601260045260246000fd5b7f4e487b7100000000000000000000000000000000000000000000000000000000600052601160045260246000fd5b6000612b29826120b1565b9150612b34836120b1565b925082612b4457612b43612ac0565b5b828204905092915050565b7f4e6f2062616c616e636520746f20776974686472617700000000000000000000600082015250565b6000612b85601683611e9e565b9150612b9082612b4f565b602082019050919050565b60006020820190508181036000830152612bb481612b78565b9050919050565b6000606082019050612bd06000830186612170565b612bdd6020830185611e84565b612bea6040830184612170565b949350505050565b7f446561646c696e65206d7573742062652067726561746572207468616e20302060008201527f6461797300000000000000000000000000000000000000000000000000000000602082015250565b6000612c4e602483611e9e565b9150612c5982612bf2565b604082019050919050565b60006020820190508181036000830152612c7d81612c41565b9050919050565b6000612c8f826120b1565b9150612c9a836120b1565b9250828202612ca8816120b1565b91508282048414831517612cbf57612cbe612aef565b5b5092915050565b6000612cd1826120b1565b9150612cdc836120b1565b9250828201905080821115612cf457612cf3612aef565b5b92915050565b6000608082019050612d0f6000830187612170565b8181036020830152612d218186611eea565b9050612d306040830185612170565b612d3d6060830184612170565b95945050505050565b6000612d51826120b1565b91507fffffffffffffffffffffffffffffffffffffffffffffffffffffffffffffffff8203612d8357612d82612aef565b5b600182019050919050565b7f4e6f207769746864726177616c207265717565737420617661696c61626c6500600082015250565b6000612dc4601f83611e9e565b9150612dcf82612d8e565b602082019050919050565b60006020820190508181036000830152612df381612db7565b9050919050565b7f4f6e6c7920636f6e7472696275746f72732063616e20766f7465000000000000600082015250565b6000612e30601a83611e9e565b9150612e3b82612dfa565b602082019050919050565b60006020820190508181036000830152612e5f81612e23565b9050919050565b7f416c726561647920766f74656400000000000000000000000000000000000000600082015250565b6000612e9c600d83611e9e565b9150612ea782612e66565b602082019050919050565b60006020820190508181036000830152612ecb81612e8f565b9050919050565b6000604082019050612ee76000830185612170565b612ef46020830184611e84565b9392505050565b7f4d7573742066756e6420616d6f756e742067726561746572207468616e206d6960008201527f6e20636f6e747269627574696f6e000000000000000000000000000000000000602082015250565b6000612f57602e83611e9e565b9150612f6282612efb565b604082019050919050565b60006020820190508181036000830152612f8681612f4a565b9050919050565b7f43616d706169676e2068617320656e6465640000000000000000000000000000600082015250565b6000612fc3601283611e9e565b9150612fce82612f8d565b602082019050919050565b60006020820190508181036000830152612ff281612fb6565b9050919050565b7f4f776e657220616c726561647920657869737473000000000000000000000000600082015250565b600061302f601483611e9e565b915061303a82612ff9565b602082019050919050565b6000602082019050818103600083015261305e81613022565b9050919050565b600081546130728161260b565b61307c8186611e9e565b9450600182166000811461309757600181146130ad576130e0565b60ff1983168652811515602002860193506130e0565b6130b6856127a6565b60005b838110156130d8578154818901526001820191506020810190506130b9565b808801955050505b50505092915050565b600060208201905081810360008301526131038184613065565b905092915050565b7f4e487b7100000000000000000000000000000000000000000000000000000000600052603260045260246000fdfea26469706673582212208a49afc040806770cfbd61657839fab57f169f4d020651650d64d9176a22a8ad64736f6c634300081b0033",
  "linkReferences": {},
  "deployedLinkReferences": {}
}