{
  "_format": "hh-sol-artifact-1",
  "contractName": "CharityDonation",
  "sourceName": "contracts/CharityDonation.sol",
  "abi": [
    {
      "anonymous": false,
      "inputs": [
        {
          "indexed": false,
          "internalType": "uint256",
          "name": "campaignId",
          "type": "uint256"
        },
        {
          "indexed": false,
          "internalType": "string",
          "name": "title",
          "type": "string"
        },
        {
          "indexed": false,
          "internalType": "uint256",
          "name": "goal",
          "type": "uint256"
        },
        {
          "indexed": false,
          "internalType": "uint256",
          "name": "deadline",
          "type": "uint256"
        }
      ],
      "name": "CampaignAdded",
      "type": "event"
    },
    {
      "anonymous": false,
      "inputs": [
        {
          "indexed": false,
          "internalType": "uint256",
          "name": "campaignId",
          "type": "uint256"
        },
        {
          "indexed": false,
          "internalType": "address",
          "name": "contributor",
          "type": "address"
        },
        {
          "indexed": false,
          "internalType": "uint256",
          "name": "amount",
          "type": "uint256"
        }
      ],
      "name": "Funded",
      "type": "event"
    },
    {
      "anonymous": false,
      "inputs": [
        {
          "indexed": false,
          "internalType": "uint256",
          "name": "campaignId",
          "type": "uint256"
        },
        {
          "indexed": false,
          "internalType": "address",
          "name": "owner",
          "type": "address"
        },
        {
          "indexed": false,
          "internalType": "uint256",
          "name": "amount",
          "type": "uint256"
        }
      ],
      "name": "FundsTransferred",
      "type": "event"
    },
    {
      "anonymous": false,
      "inputs": [
        {
          "indexed": true,
          "internalType": "address",
          "name": "ownerAddress",
          "type": "address"
        },
        {
          "indexed": false,
          "internalType": "string",
          "name": "ownerName",
          "type": "string"
        }
      ],
      "name": "OwnerAdded",
      "type": "event"
    },
    {
      "anonymous": false,
      "inputs": [
        {
          "indexed": false,
          "internalType": "uint256",
          "name": "campaignId",
          "type": "uint256"
        },
        {
          "indexed": false,
          "internalType": "address",
          "name": "contributor",
          "type": "address"
        },
        {
          "indexed": false,
          "internalType": "uint256",
          "name": "amount",
          "type": "uint256"
        }
      ],
      "name": "RefundIssued",
      "type": "event"
    },
    {
      "anonymous": false,
      "inputs": [
        {
          "indexed": false,
          "internalType": "uint256",
          "name": "campaignId",
          "type": "uint256"
        },
        {
          "indexed": false,
          "internalType": "address",
          "name": "voter",
          "type": "address"
        }
      ],
      "name": "VoteCasted",
      "type": "event"
    },
    {
      "anonymous": false,
      "inputs": [
        {
          "indexed": false,
          "internalType": "uint256",
          "name": "campaignId",
          "type": "uint256"
        },
        {
          "indexed": false,
          "internalType": "string",
          "name": "description",
          "type": "string"
        }
      ],
      "name": "WithdrawalRequested",
      "type": "event"
    },
    {
      "inputs": [
        {
          "internalType": "string",
          "name": "o",
          "type": "string"
        },
        {
          "internalType": "string",
          "name": "cid",
          "type": "string"
        }
      ],
      "name": "addApprovedOwners",
      "outputs": [],
      "stateMutability": "nonpayable",
      "type": "function"
    },
    {
      "inputs": [
        {
          "internalType": "string",
          "name": "_title",
          "type": "string"
        },
        {
          "internalType": "string",
          "name": "_description",
          "type": "string"
        },
        {
          "internalType": "uint256",
          "name": "_goal",
          "type": "uint256"
        },
        {
          "internalType": "uint256",
          "name": "_days",
          "type": "uint256"
        },
        {
          "internalType": "uint256",
          "name": "_hours",
          "type": "uint256"
        },
        {
          "internalType": "uint256",
          "name": "_minutes",
          "type": "uint256"
        },
        {
          "internalType": "uint256",
          "name": "_minContribution",
          "type": "uint256"
        }
      ],
      "name": "addCampaign",
      "outputs": [],
      "stateMutability": "nonpayable",
      "type": "function"
    },
    {
      "inputs": [
        {
          "internalType": "string",
          "name": "_ownerName",
          "type": "string"
        }
      ],
      "name": "addOwner",
      "outputs": [],
      "stateMutability": "nonpayable",
      "type": "function"
    },
    {
      "inputs": [
        {
          "internalType": "uint256",
          "name": "campaignId",
          "type": "uint256"
        },
        {
          "internalType": "string",
          "name": "updateTitle",
          "type": "string"
        },
        {
          "internalType": "string",
          "name": "updateDescription",
          "type": "string"
        },
        {
          "internalType": "string[]",
          "name": "updateImages",
          "type": "string[]"
        }
      ],
      "name": "addUpdate",
      "outputs": [],
      "stateMutability": "nonpayable",
      "type": "function"
    },
    {
      "inputs": [
        {
          "internalType": "string",
          "name": "",
          "type": "string"
        }
      ],
      "name": "approvedOwners",
      "outputs": [
        {
          "internalType": "string",
          "name": "",
          "type": "string"
        }
      ],
      "stateMutability": "view",
      "type": "function"
    },
    {
      "inputs": [],
      "name": "campaignCount",
      "outputs": [
        {
          "internalType": "uint256",
          "name": "",
          "type": "uint256"
        }
      ],
      "stateMutability": "view",
      "type": "function"
    },
    {
      "inputs": [
        {
          "internalType": "uint256",
          "name": "",
          "type": "uint256"
        }
      ],
      "name": "campaigns",
      "outputs": [
        {
          "internalType": "address",
          "name": "owner",
          "type": "address"
        },
        {
          "internalType": "uint256",
          "name": "id",
          "type": "uint256"
        },
        {
          "internalType": "string",
          "name": "title",
          "type": "string"
        },
        {
          "internalType": "string",
          "name": "description",
          "type": "string"
        },
        {
          "internalType": "uint256",
          "name": "goal",
          "type": "uint256"
        },
        {
          "internalType": "uint256",
          "name": "deadline",
          "type": "uint256"
        },
        {
          "internalType": "uint256",
          "name": "minContribution",
          "type": "uint256"
        },
        {
          "internalType": "uint256",
          "name": "balance",
          "type": "uint256"
        },
        {
          "internalType": "uint256",
          "name": "noOfContributors",
          "type": "uint256"
        },
        {
          "internalType": "bool",
          "name": "exists",
          "type": "bool"
        },
        {
          "internalType": "uint256",
          "name": "votesInFavor",
          "type": "uint256"
        },
        {
          "components": [
            {
              "internalType": "string",
              "name": "reqMsg",
              "type": "string"
            },
            {
              "internalType": "bool",
              "name": "requested",
              "type": "bool"
            }
          ],
          "internalType": "struct CharityDonation.Request",
          "name": "request",
          "type": "tuple"
        }
      ],
      "stateMutability": "view",
      "type": "function"
    },
    {
      "inputs": [
        {
          "internalType": "uint256",
          "name": "",
          "type": "uint256"
        }
      ],
      "name": "cardImage",
      "outputs": [
        {
          "internalType": "string",
          "name": "",
          "type": "string"
        }
      ],
      "stateMutability": "view",
      "type": "function"
    },
    {
      "inputs": [
        {
          "internalType": "string",
          "name": "o",
          "type": "string"
        }
      ],
      "name": "checkIfApprovedOwner",
      "outputs": [
        {
          "internalType": "bool",
          "name": "",
          "type": "bool"
        }
      ],
      "stateMutability": "view",
      "type": "function"
    },
    {
      "inputs": [
        {
          "internalType": "uint256",
          "name": "campaignId",
          "type": "uint256"
        }
      ],
      "name": "exists",
      "outputs": [
        {
          "internalType": "bool",
          "name": "",
          "type": "bool"
        }
      ],
      "stateMutability": "view",
      "type": "function"
    },
    {
      "inputs": [
        {
          "internalType": "uint256",
          "name": "campaignId",
          "type": "uint256"
        }
      ],
      "name": "fund",
      "outputs": [],
      "stateMutability": "payable",
      "type": "function"
    },
    {
      "inputs": [
        {
          "internalType": "uint256",
          "name": "_id",
          "type": "uint256"
        }
      ],
      "name": "getCampaignBasicDetails",
      "outputs": [
        {
          "internalType": "address",
          "name": "owner",
          "type": "address"
        },
        {
          "internalType": "uint256",
          "name": "id",
          "type": "uint256"
        },
        {
          "internalType": "string",
          "name": "title",
          "type": "string"
        },
        {
          "internalType": "string",
          "name": "description",
          "type": "string"
        },
        {
          "internalType": "uint256",
          "name": "minContribution",
          "type": "uint256"
        },
        {
          "internalType": "uint256",
          "name": "deadline",
          "type": "uint256"
        }
      ],
      "stateMutability": "view",
      "type": "function"
    },
    {
      "inputs": [],
      "name": "getCampaignCount",
      "outputs": [
        {
          "internalType": "uint256",
          "name": "",
          "type": "uint256"
        }
      ],
      "stateMutability": "view",
      "type": "function"
    },
    {
      "inputs": [
        {
          "internalType": "uint256",
          "name": "_id",
          "type": "uint256"
        }
      ],
      "name": "getCampaignFinancialDetails",
      "outputs": [
        {
          "internalType": "uint256",
          "name": "goal",
          "type": "uint256"
        },
        {
          "internalType": "uint256",
          "name": "balance",
          "type": "uint256"
        },
        {
          "internalType": "uint256",
          "name": "noOfContributors",
          "type": "uint256"
        }
      ],
      "stateMutability": "view",
      "type": "function"
    },
    {
      "inputs": [
        {
          "internalType": "uint256",
          "name": "_id",
          "type": "uint256"
        }
      ],
      "name": "getCampaignVoteRequestDetails",
      "outputs": [
        {
          "internalType": "bool",
          "name": "requestStatus",
          "type": "bool"
        },
        {
          "internalType": "uint256",
          "name": "votesInFavor",
          "type": "uint256"
        }
      ],
      "stateMutability": "view",
      "type": "function"
    },
    {
      "inputs": [
        {
          "internalType": "uint256",
          "name": "campaignId",
          "type": "uint256"
        }
      ],
      "name": "getCardImage",
      "outputs": [
        {
          "internalType": "string",
          "name": "",
          "type": "string"
        }
      ],
      "stateMutability": "view",
      "type": "function"
    },
    {
      "inputs": [
        {
          "internalType": "uint256",
          "name": "campaignId",
          "type": "uint256"
        },
        {
          "internalType": "address",
          "name": "contributor",
          "type": "address"
        }
      ],
      "name": "getContributionForAddress",
      "outputs": [
        {
          "internalType": "uint256",
          "name": "",
          "type": "uint256"
        }
      ],
      "stateMutability": "view",
      "type": "function"
    },
    {
      "inputs": [
        {
          "internalType": "uint256",
          "name": "campaignId",
          "type": "uint256"
        }
      ],
      "name": "getContributorsForCampaign",
      "outputs": [
        {
          "internalType": "address[]",
          "name": "",
          "type": "address[]"
        }
      ],
      "stateMutability": "view",
      "type": "function"
    },
    {
      "inputs": [
        {
          "internalType": "uint256",
          "name": "campaignId",
          "type": "uint256"
        }
      ],
      "name": "getContributorsIfVoted",
      "outputs": [
        {
          "internalType": "bool",
          "name": "",
          "type": "bool"
        }
      ],
      "stateMutability": "view",
      "type": "function"
    },
    {
      "inputs": [
        {
          "internalType": "address",
          "name": "ownerAddress",
          "type": "address"
        }
      ],
      "name": "getOwner",
      "outputs": [
        {
          "internalType": "address",
          "name": "",
          "type": "address"
        },
        {
          "internalType": "string",
          "name": "",
          "type": "string"
        },
        {
          "internalType": "bool",
          "name": "",
          "type": "bool"
        }
      ],
      "stateMutability": "view",
      "type": "function"
    },
    {
      "inputs": [
        {
          "internalType": "uint256",
          "name": "campaignId",
          "type": "uint256"
        }
      ],
      "name": "getOwnerBalance",
      "outputs": [
        {
          "internalType": "uint256",
          "name": "",
          "type": "uint256"
        }
      ],
      "stateMutability": "view",
      "type": "function"
    },
    {
      "inputs": [
        {
          "internalType": "uint256",
          "name": "campaignId",
          "type": "uint256"
        }
      ],
      "name": "getUpdates",
      "outputs": [
        {
          "components": [
            {
              "internalType": "string",
              "name": "title",
              "type": "string"
            },
            {
              "internalType": "string",
              "name": "description",
              "type": "string"
            },
            {
              "internalType": "string[]",
              "name": "images",
              "type": "string[]"
            },
            {
              "internalType": "uint256",
              "name": "timestamp",
              "type": "uint256"
            }
          ],
          "internalType": "struct CharityDonation.Update[]",
          "name": "",
          "type": "tuple[]"
        }
      ],
      "stateMutability": "view",
      "type": "function"
    },
    {
      "inputs": [
        {
          "internalType": "uint256",
          "name": "campaignId",
          "type": "uint256"
        }
      ],
      "name": "isContributor",
      "outputs": [
        {
          "internalType": "bool",
          "name": "",
          "type": "bool"
        }
      ],
      "stateMutability": "view",
      "type": "function"
    },
    {
      "inputs": [
        {
          "internalType": "uint256",
          "name": "campaignId",
          "type": "uint256"
        }
      ],
      "name": "isDeadlineReached",
      "outputs": [
        {
          "internalType": "bool",
          "name": "",
          "type": "bool"
        }
      ],
      "stateMutability": "view",
      "type": "function"
    },
    {
      "inputs": [
        {
          "internalType": "uint256",
          "name": "campaignId",
          "type": "uint256"
        }
      ],
      "name": "isStoredTimeExpired",
      "outputs": [
        {
          "internalType": "bool",
          "name": "",
          "type": "bool"
        }
      ],
      "stateMutability": "view",
      "type": "function"
    },
    {
      "inputs": [
        {
          "internalType": "uint256",
          "name": "campaignId",
          "type": "uint256"
        }
      ],
      "name": "isVotesInFavour",
      "outputs": [
        {
          "internalType": "bool",
          "name": "",
          "type": "bool"
        }
      ],
      "stateMutability": "view",
      "type": "function"
    },
    {
      "inputs": [
        {
          "internalType": "uint256",
          "name": "campaignId",
          "type": "uint256"
        }
      ],
      "name": "ownerWithdraw",
      "outputs": [],
      "stateMutability": "nonpayable",
      "type": "function"
    },
    {
      "inputs": [
        {
          "internalType": "address",
          "name": "",
          "type": "address"
        }
      ],
      "name": "owners",
      "outputs": [
        {
          "internalType": "address",
          "name": "owner",
          "type": "address"
        },
        {
          "internalType": "string",
          "name": "ownerName",
          "type": "string"
        },
        {
          "internalType": "bool",
          "name": "verified",
          "type": "bool"
        }
      ],
      "stateMutability": "view",
      "type": "function"
    },
    {
      "inputs": [
        {
          "internalType": "uint256",
          "name": "campaignId",
          "type": "uint256"
        }
      ],
      "name": "refundMyContribution",
      "outputs": [],
      "stateMutability": "nonpayable",
      "type": "function"
    },
    {
      "inputs": [
        {
          "internalType": "string",
          "name": "_description",
          "type": "string"
        },
        {
          "internalType": "uint256",
          "name": "campaignId",
          "type": "uint256"
        }
      ],
      "name": "requestWithdrawal",
      "outputs": [],
      "stateMutability": "nonpayable",
      "type": "function"
    },
    {
      "inputs": [
        {
          "internalType": "uint256",
          "name": "campaignId",
          "type": "uint256"
        },
        {
          "internalType": "string",
          "name": "imageUrl",
          "type": "string"
        }
      ],
      "name": "updateCardImage",
      "outputs": [],
      "stateMutability": "nonpayable",
      "type": "function"
    },
    {
      "inputs": [
        {
          "internalType": "uint256",
          "name": "",
          "type": "uint256"
        },
        {
          "internalType": "uint256",
          "name": "",
          "type": "uint256"
        }
      ],
      "name": "updates",
      "outputs": [
        {
          "internalType": "string",
          "name": "title",
          "type": "string"
        },
        {
          "internalType": "string",
          "name": "description",
          "type": "string"
        },
        {
          "internalType": "uint256",
          "name": "timestamp",
          "type": "uint256"
        }
      ],
      "stateMutability": "view",
      "type": "function"
    },
    {
      "inputs": [
        {
          "internalType": "uint256",
          "name": "campaignId",
          "type": "uint256"
        }
      ],
      "name": "voteForWithdrawal",
      "outputs": [],
      "stateMutability": "nonpayable",
      "type": "function"
    }
  ],
  "bytecode": "0x60806040526000600555348015601457600080fd5b50614ceb806100246000396000f3fe6080604052600436106101ee5760003560e01c8063aa6d63941161010d578063d8a94f1e116100a0578063f11265891161006f578063f1126589146107f9578063f141bd6014610822578063fa5441611461084b578063fd0304b11461088a578063ff93478c146108c7576101ee565b8063d8a94f1e14610700578063e41dae1d1461073d578063e6b25dfc1461077f578063e8d49e10146107bc576101ee565b8063bc24c16b116100dc578063bc24c16b14610655578063c0ffdba01461067e578063c29f152a146106bb578063ca1d209d146106e4576101ee565b8063aa6d639414610588578063b49b2fd8146105c6578063b4fde10814610603578063bb1b2ba21461062c576101ee565b806345f61112116101855780637274e30d116101545780637274e30d146104a65780638b89ad89146104d15780639b87c11f1461050e578063a4edee251461054b576101ee565b806345f61112146103c45780634f558e79146104015780635fc285791461043e5780636caa92181461047b576101ee565b806316074bd8116101c157806316074bd8146102e257806318e48a0b1461031f57806333f707d11461035e57806341c0ed5c14610387576101ee565b8063022914a7146101f3578063071f8a9814610232578063094fc0341461025b578063141961bc1461029a575b600080fd5b3480156101ff57600080fd5b5061021a60048036038101906102159190612ffb565b6108f0565b604051610229939291906130e2565b60405180910390f35b34801561023e57600080fd5b506102596004803603810190610254919061328b565b6109cf565b005b34801561026757600080fd5b50610282600480360381019061027d91906132e7565b610bf8565b60405161029193929190613323565b60405180910390f35b3480156102a657600080fd5b506102c160048036038101906102bc91906132e7565b610c4f565b6040516102d99c9b9a999897969594939291906133f0565b60405180910390f35b3480156102ee57600080fd5b50610309600480360381019061030491906132e7565b610ea3565b60405161031691906134bf565b60405180910390f35b34801561032b57600080fd5b50610346600480360381019061034191906134da565b610edb565b6040516103559392919061351a565b60405180910390f35b34801561036a57600080fd5b50610385600480360381019061038091906132e7565b611032565b005b34801561039357600080fd5b506103ae60048036038101906103a9919061355f565b61125b565b6040516103bb919061359f565b60405180910390f35b3480156103d057600080fd5b506103eb60048036038101906103e691906132e7565b6112b9565b6040516103f89190613678565b60405180910390f35b34801561040d57600080fd5b50610428600480360381019061042391906132e7565b61135d565b60405161043591906134bf565b60405180910390f35b34801561044a57600080fd5b50610465600480360381019061046091906132e7565b61138f565b604051610472919061359f565b60405180910390f35b34801561048757600080fd5b506104906113af565b60405161049d919061359f565b60405180910390f35b3480156104b257600080fd5b506104bb6113b9565b6040516104c8919061359f565b60405180910390f35b3480156104dd57600080fd5b506104f860048036038101906104f391906132e7565b6113bf565b604051610505919061369a565b60405180910390f35b34801561051a57600080fd5b50610535600480360381019061053091906132e7565b611464565b60405161054291906134bf565b60405180910390f35b34801561055757600080fd5b50610572600480360381019061056d91906132e7565b6114c3565b60405161057f91906134bf565b60405180910390f35b34801561059457600080fd5b506105af60048036038101906105aa91906132e7565b6114fa565b6040516105bd9291906136bc565b60405180910390f35b3480156105d257600080fd5b506105ed60048036038101906105e891906132e7565b611544565b6040516105fa91906134bf565b60405180910390f35b34801561060f57600080fd5b5061062a600480360381019061062591906136e5565b611566565b005b34801561063857600080fd5b50610653600480360381019061064e91906132e7565b61179d565b005b34801561066157600080fd5b5061067c600480360381019061067791906132e7565b611978565b005b34801561068a57600080fd5b506106a560048036038101906106a091906132e7565b611b65565b6040516106b291906139c3565b60405180910390f35b3480156106c757600080fd5b506106e260048036038101906106dd91906139e5565b611dde565b005b6106fe60048036038101906106f991906132e7565b611e0e565b005b34801561070c57600080fd5b5061072760048036038101906107229190613a5d565b612051565b60405161073491906134bf565b60405180910390f35b34801561074957600080fd5b50610764600480360381019061075f91906132e7565b612087565b60405161077696959493929190613aa6565b60405180910390f35b34801561078b57600080fd5b506107a660048036038101906107a191906132e7565b612265565b6040516107b3919061369a565b60405180910390f35b3480156107c857600080fd5b506107e360048036038101906107de91906132e7565b612305565b6040516107f091906134bf565b60405180910390f35b34801561080557600080fd5b50610820600480360381019061081b9190613b15565b61236f565b005b34801561082e57600080fd5b5061084960048036038101906108449190613a5d565b61249b565b005b34801561085757600080fd5b50610872600480360381019061086d9190612ffb565b612786565b604051610881939291906130e2565b60405180910390f35b34801561089657600080fd5b506108b160048036038101906108ac9190613a5d565b6128f8565b6040516108be919061369a565b60405180910390f35b3480156108d357600080fd5b506108ee60048036038101906108e99190613c57565b6129ae565b005b60006020528060005260406000206000915090508060000160009054906101000a900473ffffffffffffffffffffffffffffffffffffffff169080600101805461093990613d41565b80601f016020809104026020016040519081016040528092919081815260200182805461096590613d41565b80156109b25780601f10610987576101008083540402835291602001916109b2565b820191906000526020600020905b81548152906001019060200180831161099557829003601f168201915b5050505050908060020160009054906101000a900460ff16905083565b806001600082815260200190815260200160002060000160009054906101000a900473ffffffffffffffffffffffffffffffffffffffff1673ffffffffffffffffffffffffffffffffffffffff163373ffffffffffffffffffffffffffffffffffffffff1614610a74576040517f08c379a0000000000000000000000000000000000000000000000000000000008152600401610a6b90613de4565b60405180910390fd5b60016000838152602001908152602001600020600e0160010160009054906101000a900460ff1615610adb576040517f08c379a0000000000000000000000000000000000000000000000000000000008152600401610ad290613e50565b60405180910390fd5b606460506001600085815260200190815260200160002060040154610b009190613e9f565b610b0a9190613f10565b60016000848152602001908152602001600020600701541015610b62576040517f08c379a0000000000000000000000000000000000000000000000000000000008152600401610b5990613f8d565b60405180910390fd5b8260016000848152602001908152602001600020600e016000019081610b889190614159565b506001806000848152602001908152602001600020600e0160010160006101000a81548160ff0219169083151502179055507fe21ee65d22ca73e62948637516eafe929496dca7c69123043c20b414526ca8d98284604051610beb92919061422b565b60405180910390a1505050565b60008060006001600085815260200190815260200160002060040154600160008681526020019081526020016000206007015460016000878152602001908152602001600020600801549250925092509193909250565b60016020528060005260406000206000915090508060000160009054906101000a900473ffffffffffffffffffffffffffffffffffffffff1690806001015490806002018054610c9e90613d41565b80601f0160208091040260200160405190810160405280929190818152602001828054610cca90613d41565b8015610d175780601f10610cec57610100808354040283529160200191610d17565b820191906000526020600020905b815481529060010190602001808311610cfa57829003601f168201915b505050505090806003018054610d2c90613d41565b80601f0160208091040260200160405190810160405280929190818152602001828054610d5890613d41565b8015610da55780601f10610d7a57610100808354040283529160200191610da5565b820191906000526020600020905b815481529060010190602001808311610d8857829003601f168201915b5050505050908060040154908060050154908060060154908060070154908060080154908060090160009054906101000a900460ff169080600d01549080600e01604051806040016040529081600082018054610e0190613d41565b80601f0160208091040260200160405190810160405280929190818152602001828054610e2d90613d41565b8015610e7a5780601f10610e4f57610100808354040283529160200191610e7a565b820191906000526020600020905b815481529060010190602001808311610e5d57829003601f168201915b505050505081526020016001820160009054906101000a900460ff16151515158152505090508c565b60008060016000848152602001908152602001600020905080600501544210610ed0576001915050610ed6565b60009150505b919050565b60036020528160005260406000208181548110610ef757600080fd5b906000526020600020906004020160009150915050806000018054610f1b90613d41565b80601f0160208091040260200160405190810160405280929190818152602001828054610f4790613d41565b8015610f945780601f10610f6957610100808354040283529160200191610f94565b820191906000526020600020905b815481529060010190602001808311610f7757829003601f168201915b505050505090806001018054610fa990613d41565b80601f0160208091040260200160405190810160405280929190818152602001828054610fd590613d41565b80156110225780601f10610ff757610100808354040283529160200191611022565b820191906000526020600020905b81548152906001019060200180831161100557829003601f168201915b5050505050908060030154905083565b60006001600083815260200190815260200160002090508060000160009054906101000a900473ffffffffffffffffffffffffffffffffffffffff1673ffffffffffffffffffffffffffffffffffffffff163373ffffffffffffffffffffffffffffffffffffffff16146110db576040517f08c379a00000000000000000000000000000000000000000000000000000000081526004016110d2906142a7565b60405180910390fd5b8060050154421015611122576040517f08c379a000000000000000000000000000000000000000000000000000000000815260040161111990614313565b60405180910390fd5b600281600801546111339190613f10565b81600d015411611178576040517f08c379a000000000000000000000000000000000000000000000000000000000815260040161116f906143a5565b60405180910390fd5b600081600701549050600081116111c4576040517f08c379a00000000000000000000000000000000000000000000000000000000081526004016111bb90614411565b60405180910390fd5b6000826007018190555060008260090160006101000a81548160ff0219169083151502179055508160000160009054906101000a900473ffffffffffffffffffffffffffffffffffffffff1673ffffffffffffffffffffffffffffffffffffffff166108fc829081150290604051600060405180830381858888f19350505050158015611255573d6000803e3d6000fd5b50505050565b600060016000848152602001908152602001600020600a0160008373ffffffffffffffffffffffffffffffffffffffff1673ffffffffffffffffffffffffffffffffffffffff16815260200190815260200160002054905092915050565b606060016000838152602001908152602001600020600c0180548060200260200160405190810160405280929190818152602001828054801561135157602002820191906000526020600020905b8160009054906101000a900473ffffffffffffffffffffffffffffffffffffffff1673ffffffffffffffffffffffffffffffffffffffff1681526020019060010190808311611307575b50505050509050919050565b6000806001600084815260200190815260200160002090508060090160009054906101000a900460ff16915050919050565b600060016000838152602001908152602001600020600701549050919050565b6000600554905090565b60055481565b60606002600083815260200190815260200160002080546113df90613d41565b80601f016020809104026020016040519081016040528092919081815260200182805461140b90613d41565b80156114585780601f1061142d57610100808354040283529160200191611458565b820191906000526020600020905b81548152906001019060200180831161143b57829003601f168201915b50505050509050919050565b60008060016000848152602001908152602001600020600a0160003373ffffffffffffffffffffffffffffffffffffffff1673ffffffffffffffffffffffffffffffffffffffff16815260200190815260200160002054119050919050565b600080600160008481526020019081526020016000209050600281600801546114ec9190613f10565b81600d015411915050919050565b60008060016000848152602001908152602001600020600e0160010160009054906101000a900460ff1660016000858152602001908152602001600020600d015491509150915091565b6000426001600084815260200190815260200160002060050154109050919050565b6000603c836115759190613e9f565b610e10856115839190613e9f565b62015180876115929190613e9f565b61159c9190614431565b6115a69190614431565b9050600081116115eb576040517f08c379a00000000000000000000000000000000000000000000000000000000081526004016115e2906144d7565b60405180910390fd5b600081426115f99190614431565b9050600060016000600554815260200190815260200160002090506005548160010181905550898160020190816116309190614159565b50888160030190816116429190614159565b508781600401819055508181600501819055508381600601819055506000816007018190555060008160080181905550338160000160006101000a81548173ffffffffffffffffffffffffffffffffffffffff021916908373ffffffffffffffffffffffffffffffffffffffff16021790555060405180604001604052806040518060200160405280600081525081526020016000151581525081600e0160008201518160000190816116f59190614159565b5060208201518160010160006101000a81548160ff02191690831515021790555090505060018160090160006101000a81548160ff0219169083151502179055507fd375203c1b7c7b8b86a069706b2b59bf0267922e586ada570e5d9b55525bacf96005548b8a846005015460405161177194939291906144f7565b60405180910390a16005600081548092919061178c90614543565b919050555050505050505050505050565b6000600160008381526020019081526020016000209050600081600a0160003373ffffffffffffffffffffffffffffffffffffffff1673ffffffffffffffffffffffffffffffffffffffff1681526020019081526020016000205411611838576040517f08c379a000000000000000000000000000000000000000000000000000000000815260040161182f906145d7565b60405180910390fd5b80600b0160003373ffffffffffffffffffffffffffffffffffffffff1673ffffffffffffffffffffffffffffffffffffffff16815260200190815260200160002060009054906101000a900460ff16156118c7576040517f08c379a00000000000000000000000000000000000000000000000000000000081526004016118be90614643565b60405180910390fd5b600181600b0160003373ffffffffffffffffffffffffffffffffffffffff1673ffffffffffffffffffffffffffffffffffffffff16815260200190815260200160002060006101000a81548160ff02191690831515021790555080600d01600081548092919061193690614543565b91905055507fd8d46ecf72f6103ff400e47d1b5fdfe248d4ca34a4acd39f63fbe903c8f7e7bd823360405161196c929190614663565b60405180910390a15050565b6000600160008381526020019081526020016000209050600081600a0160003373ffffffffffffffffffffffffffffffffffffffff1673ffffffffffffffffffffffffffffffffffffffff16815260200190815260200160002054905060008111611a18576040517f08c379a0000000000000000000000000000000000000000000000000000000008152600401611a0f906146fe565b60405180910390fd5b6000151582600b0160003373ffffffffffffffffffffffffffffffffffffffff1673ffffffffffffffffffffffffffffffffffffffff16815260200190815260200160002060009054906101000a900460ff16151514611aad576040517f08c379a0000000000000000000000000000000000000000000000000000000008152600401611aa490614790565b60405180910390fd5b3373ffffffffffffffffffffffffffffffffffffffff166108fc829081150290604051600060405180830381858888f19350505050158015611af3573d6000803e3d6000fd5b5080826007016000828254611b0891906147b0565b92505081905550600082600a0160003373ffffffffffffffffffffffffffffffffffffffff1673ffffffffffffffffffffffffffffffffffffffff16815260200190815260200160002081905550611b608333612c21565b505050565b606060036000838152602001908152602001600020805480602002602001604051908101604052809291908181526020016000905b82821015611dd35783829060005260206000209060040201604051806080016040529081600082018054611bcd90613d41565b80601f0160208091040260200160405190810160405280929190818152602001828054611bf990613d41565b8015611c465780601f10611c1b57610100808354040283529160200191611c46565b820191906000526020600020905b815481529060010190602001808311611c2957829003601f168201915b50505050508152602001600182018054611c5f90613d41565b80601f0160208091040260200160405190810160405280929190818152602001828054611c8b90613d41565b8015611cd85780601f10611cad57610100808354040283529160200191611cd8565b820191906000526020600020905b815481529060010190602001808311611cbb57829003601f168201915b5050505050815260200160028201805480602002602001604051908101604052809291908181526020016000905b82821015611db2578382906000526020600020018054611d2590613d41565b80601f0160208091040260200160405190810160405280929190818152602001828054611d5190613d41565b8015611d9e5780601f10611d7357610100808354040283529160200191611d9e565b820191906000526020600020905b815481529060010190602001808311611d8157829003601f168201915b505050505081526020019060010190611d06565b50505050815260200160038201548152505081526020019060010190611b9a565b505050509050919050565b80600483604051611def9190614820565b90815260200160405180910390209081611e099190614159565b505050565b6001600082815260200190815260200160002060060154341015611e67576040517f08c379a0000000000000000000000000000000000000000000000000000000008152600401611e5e906148a9565b60405180910390fd5b60016000828152602001908152602001600020600501544210611ebf576040517f08c379a0000000000000000000000000000000000000000000000000000000008152600401611eb690614915565b60405180910390fd5b6000600160008381526020019081526020016000209050600081600a0160003373ffffffffffffffffffffffffffffffffffffffff1673ffffffffffffffffffffffffffffffffffffffff1681526020019081526020016000205403611f9f5780600c01339080600181540180825580915050600190039060005260206000200160009091909190916101000a81548173ffffffffffffffffffffffffffffffffffffffff021916908373ffffffffffffffffffffffffffffffffffffffff160217905550806008016000815480929190611f9990614543565b91905055505b3481600a0160003373ffffffffffffffffffffffffffffffffffffffff1673ffffffffffffffffffffffffffffffffffffffff1681526020019081526020016000206000828254611ff09190614431565b925050819055503481600701600082825461200b9190614431565b925050819055507f38c48552690c96ec2872092ac1db6c19fb59f5a8c5b49bbf41ed4886d0ca692682333460405161204593929190614935565b60405180910390a15050565b6000806004836040516120649190614820565b9081526020016040518091039020805461207d90613d41565b9050119050919050565b6000806060806000806001600088815260200190815260200160002060000160009054906101000a900473ffffffffffffffffffffffffffffffffffffffff166001600089815260200190815260200160002060010154600160008a8152602001908152602001600020600201600160008b8152602001908152602001600020600301600160008c815260200190815260200160002060060154600160008d81526020019081526020016000206005015483805461214490613d41565b80601f016020809104026020016040519081016040528092919081815260200182805461217090613d41565b80156121bd5780601f10612192576101008083540402835291602001916121bd565b820191906000526020600020905b8154815290600101906020018083116121a057829003601f168201915b505050505093508280546121d090613d41565b80601f01602080910402602001604051908101604052809291908181526020018280546121fc90613d41565b80156122495780601f1061221e57610100808354040283529160200191612249565b820191906000526020600020905b81548152906001019060200180831161222c57829003601f168201915b5050505050925095509550955095509550955091939550919395565b6002602052806000526040600020600091509050805461228490613d41565b80601f01602080910402602001604051908101604052809291908181526020018280546122b090613d41565b80156122fd5780601f106122d2576101008083540402835291602001916122fd565b820191906000526020600020905b8154815290600101906020018083116122e057829003601f168201915b505050505081565b600060016000838152602001908152602001600020600b0160003373ffffffffffffffffffffffffffffffffffffffff1673ffffffffffffffffffffffffffffffffffffffff16815260200190815260200160002060009054906101000a900460ff169050919050565b6001600083815260200190815260200160002060090160009054906101000a900460ff166123d2576040517f08c379a00000000000000000000000000000000000000000000000000000000081526004016123c9906149b8565b60405180910390fd5b6001600083815260200190815260200160002060000160009054906101000a900473ffffffffffffffffffffffffffffffffffffffff1673ffffffffffffffffffffffffffffffffffffffff163373ffffffffffffffffffffffffffffffffffffffff1614612476576040517f08c379a000000000000000000000000000000000000000000000000000000000815260040161246d90614a24565b60405180910390fd5b806002600084815260200190815260200160002090816124969190614159565b505050565b600073ffffffffffffffffffffffffffffffffffffffff166000803373ffffffffffffffffffffffffffffffffffffffff1673ffffffffffffffffffffffffffffffffffffffff16815260200190815260200160002060000160009054906101000a900473ffffffffffffffffffffffffffffffffffffffff1673ffffffffffffffffffffffffffffffffffffffff161461256b576040517f08c379a000000000000000000000000000000000000000000000000000000000815260040161256290614a90565b60405180910390fd5b336000803373ffffffffffffffffffffffffffffffffffffffff1673ffffffffffffffffffffffffffffffffffffffff16815260200190815260200160002060000160006101000a81548173ffffffffffffffffffffffffffffffffffffffff021916908373ffffffffffffffffffffffffffffffffffffffff160217905550806000803373ffffffffffffffffffffffffffffffffffffffff1673ffffffffffffffffffffffffffffffffffffffff16815260200190815260200160002060010190816126399190614159565b5060016000803373ffffffffffffffffffffffffffffffffffffffff1673ffffffffffffffffffffffffffffffffffffffff16815260200190815260200160002060020160006101000a81548160ff0219169083151502179055506000803373ffffffffffffffffffffffffffffffffffffffff1673ffffffffffffffffffffffffffffffffffffffff16815260200190815260200160002060000160009054906101000a900473ffffffffffffffffffffffffffffffffffffffff1673ffffffffffffffffffffffffffffffffffffffff167f7adcb4720057d6b9b1d9dc7f206a6dc456794ecdbf145763cc55d76930c3ab866000803373ffffffffffffffffffffffffffffffffffffffff1673ffffffffffffffffffffffffffffffffffffffff16815260200190815260200160002060010160405161277b9190614b34565b60405180910390a250565b600060606000806000808673ffffffffffffffffffffffffffffffffffffffff1673ffffffffffffffffffffffffffffffffffffffff1681526020019081526020016000206040518060600160405290816000820160009054906101000a900473ffffffffffffffffffffffffffffffffffffffff1673ffffffffffffffffffffffffffffffffffffffff1673ffffffffffffffffffffffffffffffffffffffff16815260200160018201805461283c90613d41565b80601f016020809104026020016040519081016040528092919081815260200182805461286890613d41565b80156128b55780601f1061288a576101008083540402835291602001916128b5565b820191906000526020600020905b81548152906001019060200180831161289857829003601f168201915b505050505081526020016002820160009054906101000a900460ff1615151515815250509050806000015181602001518260400151935093509350509193909250565b600481805160208101820180518482526020830160208501208183528095505050505050600091509050805461292d90613d41565b80601f016020809104026020016040519081016040528092919081815260200182805461295990613d41565b80156129a65780601f1061297b576101008083540402835291602001916129a6565b820191906000526020600020905b81548152906001019060200180831161298957829003601f168201915b505050505081565b836001600082815260200190815260200160002060000160009054906101000a900473ffffffffffffffffffffffffffffffffffffffff1673ffffffffffffffffffffffffffffffffffffffff163373ffffffffffffffffffffffffffffffffffffffff1614612a53576040517f08c379a0000000000000000000000000000000000000000000000000000000008152600401612a4a90613de4565b60405180910390fd5b6001600086815260200190815260200160002060090160009054906101000a900460ff16612ab6576040517f08c379a0000000000000000000000000000000000000000000000000000000008152600401612aad906149b8565b60405180910390fd5b6001600086815260200190815260200160002060000160009054906101000a900473ffffffffffffffffffffffffffffffffffffffff1673ffffffffffffffffffffffffffffffffffffffff163373ffffffffffffffffffffffffffffffffffffffff1614612b5a576040517f08c379a0000000000000000000000000000000000000000000000000000000008152600401612b5190614ba2565b60405180910390fd5b612b62612e87565b84816000018190525083816020018190525082816040018190525042816060018181525050600360008781526020019081526020016000208190806001815401808255809150506001900390600052602060002090600402016000909190919091506000820151816000019081612bd99190614159565b506020820151816001019081612bef9190614159565b506040820151816002019080519060200190612c0c929190612eaf565b50606082015181600301555050505050505050565b60006001600084815260200190815260200160002090506000806000905060005b83600c0180549050811015612cdd578473ffffffffffffffffffffffffffffffffffffffff1684600c018281548110612c7e57612c7d614bc2565b5b9060005260206000200160009054906101000a900473ffffffffffffffffffffffffffffffffffffffff1673ffffffffffffffffffffffffffffffffffffffff1603612cd05780925060019150612cdd565b8080600101915050612c42565b5080612d1e576040517f08c379a0000000000000000000000000000000000000000000000000000000008152600401612d1590614c3d565b60405180910390fd5b6000600184600c0180549050612d3491906147b0565b905083600c018181548110612d4c57612d4b614bc2565b5b9060005260206000200160009054906101000a900473ffffffffffffffffffffffffffffffffffffffff1684600c018481548110612d8d57612d8c614bc2565b5b9060005260206000200160006101000a81548173ffffffffffffffffffffffffffffffffffffffff021916908373ffffffffffffffffffffffffffffffffffffffff16021790555083600c01805480612de957612de8614c5d565b5b6001900381819060005260206000200160006101000a81549073ffffffffffffffffffffffffffffffffffffffff02191690559055600084600a0160008773ffffffffffffffffffffffffffffffffffffffff1673ffffffffffffffffffffffffffffffffffffffff16815260200190815260200160002081905550836008016000815480929190612e7a90614c8c565b9190505550505050505050565b6040518060800160405280606081526020016060815260200160608152602001600081525090565b828054828255906000526020600020908101928215612ef7579160200282015b82811115612ef6578251829081612ee69190614159565b5091602001919060010190612ecf565b5b509050612f049190612f08565b5090565b5b80821115612f285760008181612f1f9190612f2c565b50600101612f09565b5090565b508054612f3890613d41565b6000825580601f10612f4a5750612f69565b601f016020900490600052602060002090810190612f689190612f6c565b5b50565b5b80821115612f85576000816000905550600101612f6d565b5090565b6000604051905090565b600080fd5b600080fd5b600073ffffffffffffffffffffffffffffffffffffffff82169050919050565b6000612fc882612f9d565b9050919050565b612fd881612fbd565b8114612fe357600080fd5b50565b600081359050612ff581612fcf565b92915050565b60006020828403121561301157613010612f93565b5b600061301f84828501612fe6565b91505092915050565b61303181612fbd565b82525050565b600081519050919050565b600082825260208201905092915050565b60005b83811015613071578082015181840152602081019050613056565b60008484015250505050565b6000601f19601f8301169050919050565b600061309982613037565b6130a38185613042565b93506130b3818560208601613053565b6130bc8161307d565b840191505092915050565b60008115159050919050565b6130dc816130c7565b82525050565b60006060820190506130f76000830186613028565b8181036020830152613109818561308e565b905061311860408301846130d3565b949350505050565b600080fd5b600080fd5b7f4e487b7100000000000000000000000000000000000000000000000000000000600052604160045260246000fd5b6131628261307d565b810181811067ffffffffffffffff821117156131815761318061312a565b5b80604052505050565b6000613194612f89565b90506131a08282613159565b919050565b600067ffffffffffffffff8211156131c0576131bf61312a565b5b6131c98261307d565b9050602081019050919050565b82818337600083830152505050565b60006131f86131f3846131a5565b61318a565b90508281526020810184848401111561321457613213613125565b5b61321f8482856131d6565b509392505050565b600082601f83011261323c5761323b613120565b5b813561324c8482602086016131e5565b91505092915050565b6000819050919050565b61326881613255565b811461327357600080fd5b50565b6000813590506132858161325f565b92915050565b600080604083850312156132a2576132a1612f93565b5b600083013567ffffffffffffffff8111156132c0576132bf612f98565b5b6132cc85828601613227565b92505060206132dd85828601613276565b9150509250929050565b6000602082840312156132fd576132fc612f93565b5b600061330b84828501613276565b91505092915050565b61331d81613255565b82525050565b60006060820190506133386000830186613314565b6133456020830185613314565b6133526040830184613314565b949350505050565b600082825260208201905092915050565b600061337682613037565b613380818561335a565b9350613390818560208601613053565b6133998161307d565b840191505092915050565b6133ad816130c7565b82525050565b600060408301600083015184820360008601526133d0828261336b565b91505060208301516133e560208601826133a4565b508091505092915050565b600061018082019050613406600083018f613028565b613413602083018e613314565b8181036040830152613425818d61308e565b90508181036060830152613439818c61308e565b9050613448608083018b613314565b61345560a083018a613314565b61346260c0830189613314565b61346f60e0830188613314565b61347d610100830187613314565b61348b6101208301866130d3565b613499610140830185613314565b8181036101608301526134ac81846133b3565b90509d9c50505050505050505050505050565b60006020820190506134d460008301846130d3565b92915050565b600080604083850312156134f1576134f0612f93565b5b60006134ff85828601613276565b925050602061351085828601613276565b9150509250929050565b60006060820190508181036000830152613534818661308e565b90508181036020830152613548818561308e565b90506135576040830184613314565b949350505050565b6000806040838503121561357657613575612f93565b5b600061358485828601613276565b925050602061359585828601612fe6565b9150509250929050565b60006020820190506135b46000830184613314565b92915050565b600081519050919050565b600082825260208201905092915050565b6000819050602082019050919050565b6135ef81612fbd565b82525050565b600061360183836135e6565b60208301905092915050565b6000602082019050919050565b6000613625826135ba565b61362f81856135c5565b935061363a836135d6565b8060005b8381101561366b57815161365288826135f5565b975061365d8361360d565b92505060018101905061363e565b5085935050505092915050565b60006020820190508181036000830152613692818461361a565b905092915050565b600060208201905081810360008301526136b4818461308e565b905092915050565b60006040820190506136d160008301856130d3565b6136de6020830184613314565b9392505050565b600080600080600080600060e0888a03121561370457613703612f93565b5b600088013567ffffffffffffffff81111561372257613721612f98565b5b61372e8a828b01613227565b975050602088013567ffffffffffffffff81111561374f5761374e612f98565b5b61375b8a828b01613227565b965050604061376c8a828b01613276565b955050606061377d8a828b01613276565b945050608061378e8a828b01613276565b93505060a061379f8a828b01613276565b92505060c06137b08a828b01613276565b91505092959891949750929550565b600081519050919050565b600082825260208201905092915050565b6000819050602082019050919050565b600081519050919050565b600082825260208201905092915050565b6000819050602082019050919050565b6000613823838361336b565b905092915050565b6000602082019050919050565b6000613843826137eb565b61384d81856137f6565b93508360208202850161385f85613807565b8060005b8581101561389b578484038952815161387c8582613817565b94506138878361382b565b925060208a01995050600181019050613863565b50829750879550505050505092915050565b6138b681613255565b82525050565b600060808301600083015184820360008601526138d9828261336b565b915050602083015184820360208601526138f3828261336b565b9150506040830151848203604086015261390d8282613838565b915050606083015161392260608601826138ad565b508091505092915050565b600061393983836138bc565b905092915050565b6000602082019050919050565b6000613959826137bf565b61396381856137ca565b935083602082028501613975856137db565b8060005b858110156139b15784840389528151613992858261392d565b945061399d83613941565b925060208a01995050600181019050613979565b50829750879550505050505092915050565b600060208201905081810360008301526139dd818461394e565b905092915050565b600080604083850312156139fc576139fb612f93565b5b600083013567ffffffffffffffff811115613a1a57613a19612f98565b5b613a2685828601613227565b925050602083013567ffffffffffffffff811115613a4757613a46612f98565b5b613a5385828601613227565b9150509250929050565b600060208284031215613a7357613a72612f93565b5b600082013567ffffffffffffffff811115613a9157613a90612f98565b5b613a9d84828501613227565b91505092915050565b600060c082019050613abb6000830189613028565b613ac86020830188613314565b8181036040830152613ada818761308e565b90508181036060830152613aee818661308e565b9050613afd6080830185613314565b613b0a60a0830184613314565b979650505050505050565b60008060408385031215613b2c57613b2b612f93565b5b6000613b3a85828601613276565b925050602083013567ffffffffffffffff811115613b5b57613b5a612f98565b5b613b6785828601613227565b9150509250929050565b600067ffffffffffffffff821115613b8c57613b8b61312a565b5b602082029050602081019050919050565b600080fd5b6000613bb5613bb084613b71565b61318a565b90508083825260208201905060208402830185811115613bd857613bd7613b9d565b5b835b81811015613c1f57803567ffffffffffffffff811115613bfd57613bfc613120565b5b808601613c0a8982613227565b85526020850194505050602081019050613bda565b5050509392505050565b600082601f830112613c3e57613c3d613120565b5b8135613c4e848260208601613ba2565b91505092915050565b60008060008060808587031215613c7157613c70612f93565b5b6000613c7f87828801613276565b945050602085013567ffffffffffffffff811115613ca057613c9f612f98565b5b613cac87828801613227565b935050604085013567ffffffffffffffff811115613ccd57613ccc612f98565b5b613cd987828801613227565b925050606085013567ffffffffffffffff811115613cfa57613cf9612f98565b5b613d0687828801613c29565b91505092959194509250565b7f4e487b7100000000000000000000000000000000000000000000000000000000600052602260045260246000fd5b60006002820490506001821680613d5957607f821691505b602082108103613d6c57613d6b613d12565b5b50919050565b7f4f6e6c79206f776e65722063616e2063616c6c20746869732066756e6374696f60008201527f6e00000000000000000000000000000000000000000000000000000000000000602082015250565b6000613dce602183613042565b9150613dd982613d72565b604082019050919050565b60006020820190508181036000830152613dfd81613dc1565b9050919050565b7f526571756573742068617320616c7265616479206265656e2063726561746564600082015250565b6000613e3a602083613042565b9150613e4582613e04565b602082019050919050565b60006020820190508181036000830152613e6981613e2d565b9050919050565b7f4e487b7100000000000000000000000000000000000000000000000000000000600052601160045260246000fd5b6000613eaa82613255565b9150613eb583613255565b9250828202613ec381613255565b91508282048414831517613eda57613ed9613e70565b5b5092915050565b7f4e487b7100000000000000000000000000000000000000000000000000000000600052601260045260246000fd5b6000613f1b82613255565b9150613f2683613255565b925082613f3657613f35613ee1565b5b828204905092915050565b7f476f616c20686173206e6f74206265656e207265616368656400000000000000600082015250565b6000613f77601983613042565b9150613f8282613f41565b602082019050919050565b60006020820190508181036000830152613fa681613f6a565b9050919050565b60008190508160005260206000209050919050565b60006020601f8301049050919050565b600082821b905092915050565b60006008830261400f7fffffffffffffffffffffffffffffffffffffffffffffffffffffffffffffffff82613fd2565b6140198683613fd2565b95508019841693508086168417925050509392505050565b6000819050919050565b600061405661405161404c84613255565b614031565b613255565b9050919050565b6000819050919050565b6140708361403b565b61408461407c8261405d565b848454613fdf565b825550505050565b600090565b61409961408c565b6140a4818484614067565b505050565b5b818110156140c8576140bd600082614091565b6001810190506140aa565b5050565b601f82111561410d576140de81613fad565b6140e784613fc2565b810160208510156140f6578190505b61410a61410285613fc2565b8301826140a9565b50505b505050565b600082821c905092915050565b600061413060001984600802614112565b1980831691505092915050565b6000614149838361411f565b9150826002028217905092915050565b61416282613037565b67ffffffffffffffff81111561417b5761417a61312a565b5b6141858254613d41565b6141908282856140cc565b600060209050601f8311600181146141c357600084156141b1578287015190505b6141bb858261413d565b865550614223565b601f1984166141d186613fad565b60005b828110156141f9578489015182556001820191506020850194506020810190506141d4565b868310156142165784890151614212601f89168261411f565b8355505b6001600288020188555050505b505050505050565b60006040820190506142406000830185613314565b8181036020830152614252818461308e565b90509392505050565b7f4f6e6c7920746865206f776e65722063616e2077697468647261770000000000600082015250565b6000614291601b83613042565b915061429c8261425b565b602082019050919050565b600060208201905081810360008301526142c081614284565b9050919050565b7f446561646c696e65206e6f742072656163686564000000000000000000000000600082015250565b60006142fd601483613042565b9150614308826142c7565b602082019050919050565b6000602082019050818103600083015261432c816142f0565b9050919050565b7f566f74657320617265206c657373207468616e20353025206f6620636f6e747260008201527f696275746f727300000000000000000000000000000000000000000000000000602082015250565b600061438f602783613042565b915061439a82614333565b604082019050919050565b600060208201905081810360008301526143be81614382565b9050919050565b7f4e6f2066756e647320617661696c61626c650000000000000000000000000000600082015250565b60006143fb601283613042565b9150614406826143c5565b602082019050919050565b6000602082019050818103600083015261442a816143ee565b9050919050565b600061443c82613255565b915061444783613255565b925082820190508082111561445f5761445e613e70565b5b92915050565b7f546f74616c206475726174696f6e206d7573742062652067726561746572207460008201527f68616e207a65726f000000000000000000000000000000000000000000000000602082015250565b60006144c1602883613042565b91506144cc82614465565b604082019050919050565b600060208201905081810360008301526144f0816144b4565b9050919050565b600060808201905061450c6000830187613314565b818103602083015261451e818661308e565b905061452d6040830185613314565b61453a6060830184613314565b95945050505050565b600061454e82613255565b91507fffffffffffffffffffffffffffffffffffffffffffffffffffffffffffffffff82036145805761457f613e70565b5b600182019050919050565b7f4f6e6c7920636f6e7472696275746f72732063616e20766f7465000000000000600082015250565b60006145c1601a83613042565b91506145cc8261458b565b602082019050919050565b600060208201905081810360008301526145f0816145b4565b9050919050565b7f416c726561647920766f74656400000000000000000000000000000000000000600082015250565b600061462d600d83613042565b9150614638826145f7565b602082019050919050565b6000602082019050818103600083015261465c81614620565b9050919050565b60006040820190506146786000830185613314565b6146856020830184613028565b9392505050565b7f596f752068617665206e6f7420636f6e747269627574656420746f207468697360008201527f2063616d706169676e0000000000000000000000000000000000000000000000602082015250565b60006146e8602983613042565b91506146f38261468c565b604082019050919050565b60006020820190508181036000830152614717816146db565b9050919050565b7f596f75206861766520616c726561647920766f7465642c206e6f20726566756e60008201527f6400000000000000000000000000000000000000000000000000000000000000602082015250565b600061477a602183613042565b91506147858261471e565b604082019050919050565b600060208201905081810360008301526147a98161476d565b9050919050565b60006147bb82613255565b91506147c683613255565b92508282039050818111156147de576147dd613e70565b5b92915050565b600081905092915050565b60006147fa82613037565b61480481856147e4565b9350614814818560208601613053565b80840191505092915050565b600061482c82846147ef565b915081905092915050565b7f4d7573742066756e6420616d6f756e742067726561746572207468616e206d6960008201527f6e20636f6e747269627574696f6e000000000000000000000000000000000000602082015250565b6000614893602e83613042565b915061489e82614837565b604082019050919050565b600060208201905081810360008301526148c281614886565b9050919050565b7f43616d706169676e2068617320656e6465640000000000000000000000000000600082015250565b60006148ff601283613042565b915061490a826148c9565b602082019050919050565b6000602082019050818103600083015261492e816148f2565b9050919050565b600060608201905061494a6000830186613314565b6149576020830185613028565b6149646040830184613314565b949350505050565b7f43616d706169676e20646f6573206e6f74206578697374000000000000000000600082015250565b60006149a2601783613042565b91506149ad8261496c565b602082019050919050565b600060208201905081810360008301526149d181614995565b9050919050565b7f4f6e6c79206f776e65722063616e20757064617465206361726420696d616765600082015250565b6000614a0e602083613042565b9150614a19826149d8565b602082019050919050565b60006020820190508181036000830152614a3d81614a01565b9050919050565b7f4f776e657220616c726561647920657869737473000000000000000000000000600082015250565b6000614a7a601483613042565b9150614a8582614a44565b602082019050919050565b60006020820190508181036000830152614aa981614a6d565b9050919050565b60008154614abd81613d41565b614ac78186613042565b94506001821660008114614ae25760018114614af857614b2b565b60ff198316865281151560200286019350614b2b565b614b0185613fad565b60005b83811015614b2357815481890152600182019150602081019050614b04565b808801955050505b50505092915050565b60006020820190508181036000830152614b4e8184614ab0565b905092915050565b7f4e6f74206f776e65720000000000000000000000000000000000000000000000600082015250565b6000614b8c600983613042565b9150614b9782614b56565b602082019050919050565b60006020820190508181036000830152614bbb81614b7f565b9050919050565b7f4e487b7100000000000000000000000000000000000000000000000000000000600052603260045260246000fd5b7f436f6e7472696275746f72206e6f7420666f756e640000000000000000000000600082015250565b6000614c27601583613042565b9150614c3282614bf1565b602082019050919050565b60006020820190508181036000830152614c5681614c1a565b9050919050565b7f4e487b7100000000000000000000000000000000000000000000000000000000600052603160045260246000fd5b6000614c9782613255565b915060008203614caa57614ca9613e70565b5b60018203905091905056fea264697066735822122033b879607b77bc3b1fc8021fcff969ca84b08345f53ae89fdee698a9fd41d95964736f6c634300081b0033",
  "linkReferences": {},
  "deployedLinkReferences": {}
}